:020000040800F2
:10000000B820002045010008690100086B010008C4
:100010006D0100086F010008710100080000000078
:100020000000000000000000000000007301000854
:100030007501000800000000770100084D0300086A
:100040005F0100085F0100085F0100085F01000810
:100050005F0100085F0100085F0100085F01000800
:100060005F0100085F0100085F0100085F010008F0
:100070005F0100085F0100085F0100085F010008E0
:100080005F0100085F0100085F0100085F010008D0
:100090005F0100085F0100085F0100085F010008C0
:1000A0005F0100085F0100085F0100085F010008B0
:1000B0005F0100085F0100085F0100085F010008A0
:1000C0005F0100085F0100085F0100085F01000890
:1000D0005F010008790100085F0100085F01000866
:1000E0005F0100085F0100085F0100085F01000870
:1000F0005F0100085F0100085F0100085F01000860
:100100005F0100085F0100085F0100085F0100084F
:100110005F0100085F0100085F0100085F0100083F
:100120005F0100085F0100085F0100085F0100082F
:10013000DFF80CD002F0DEFE004800475114000842
:10014000B82000200648804706480047FEE7FEE743
:10015000FEE7FEE7FEE7FEE7FEE7FEE7FEE7FEE777
:10016000E90D0008310100087047FEE7FEE7FEE7F1
:10017000FEE770477047704710B540F225510748B9
:1001800000F0A0FD002808BF10BD05480088BDE8AC
:100190001040C1B203A000F08BB80000003801404D
:1001A000043801402563000008B54FF4E06000F01A
:1001B000B9FD25208DF8000001208DF801000021F7
:1001C0008DF802108DF80300684600F0B2FD08BDFE
:1001D00030B587B0012144F2040000F050FA4FF42A
:1001E0000070ADF8100018208DF813000320424C69
:1001F0008DF8120004A9204600F0FFFA2015ADF892
:10020000100004208DF8130004A9204600F0F5FA30
:1002100000244FF4E1300090ADF808400C20374D39
:10022000ADF80440ADF80A00ADF80640ADF80C405A
:100230006946284600F014FC012240F22551284668
:1002400000F091FC0121284600F084FC4FF4E060AE
:1002500000F068FD25208DF8140001208DF81500B0
:100260008DF816408DF8170005A800F062FD07B064
:1002700030BD10B5214C0146204600F0BEFC208860
:1002800010F0800FFBD010BD70B504460078002838
:1002900014BF1A4D70BD2178284600F0AEFC2888A6
:1002A00010F0800FFBD014F8010F0028F3D170BDBF
:1002B0000FB4FF2130B5C1B045AB6846449A02F097
:1002C0004DFE9DF800006C46002811BF0B4D41B05B
:1002D00030BC5DF814FB2178284600F08EFC29889C
:1002E00011F0800FFBD014F8010F0028F3D141B0BA
:1002F00030BC5DF814FB00000008014000380140EC
:10030000002818BF002186BF4A4A9268704700BF84
:1003100001F101018842FBD8704747484FF47A71D8
:100320000068B0FBF1F0B0F1807F28BF704720F08B
:100330007F40411E4FF0E0204161404AF02182F8A9
:10034000141D002181610721016170473C4801684B
:10035000491C01607047374800687047354A4FF0C4
:10036000E02110688B6900BF00BFD2F800C0604573
:10037000F7D1D1F810C01CF4803F1CBF8B69401C22
:1003800049695268C91A491CB1FBF2F100EB4002FD
:10039000C2EBC01001EBC000704770B42548016883
:1003A00002688A42FCD04FF0E02102688B6900BFEE
:1003B00000BFD0F800C06245F7D1D1F810C01CF4DE
:1003C000803F1CBF8B69521CD1F814C04668ACEB4F
:1003D00003035B1CB3FBF6F302EB420CCCEBC21243
:1003E00003EBC205002472B6641C02688B6900BF6F
:1003F00000BFD0F800C06245F7D1D1F810C01CF49E
:10040000803F1CBF8B69521CD1F814C0ACEB0303B6
:100410005B1CB3FBF6F302EB420CCCEBC21203EB1A
:10042000C202521BB2F5FA7FDED362B6600070BC26
:100430007047000000000020200000200FE000E0D6
:10044000B0000020AD48016841F001010160416841
:10045000AB4A11404160016821F4102121F0807104
:100460000160016821F480210160416821F4FE01EE
:1004700041604FF41F0181607047A0490A6822F46F
:1004800080320A600A6822F480220A60B0F5803F58
:1004900004BF086840F4803006D0B0F5802F06BF56
:1004A000086840F4A02070470860704700224309A4
:1004B0009249012B08BF096803D0022B0CBF096ABF
:1004C000496A00F01F00012303FA00F0084218BF38
:1004D00001221046704781B000208849009000201A
:1004E0000A6812F4003F18BF0120009A521C0092C3
:1004F000B2F5A06F01D00028F1D0086810F40030E8
:1005000018BF012001B070477C490A6822F0F80248
:1005100042EAC000086070477A4908607047774A2D
:100520005368084323F47C1318435060704775499F
:100530000866704771494A6822F003021043486018
:1005400070476E48406800F00C0070476B494A687D
:1005500022F0F00210434860704768494A6822F46C
:10056000E06210434860704764494A6822F4605270
:1005700042EAC00048607047604A0029517A14BFBF
:10058000084321EA0000507270475E49C1F8D80064
:1005900070475A494A6822F4404210434860704705
:1005A0005649002281F8202081F82020012803D01C
:1005B00004280CBF0520704781F82000704752497D
:1005C000086070474D490A6A1043086270474F49F6
:1005D00008607047494910B44A6812F00C034C4A4D
:1005E00018BF042B01D0082B01D0026015E04A6827
:1005F0004B6802F470124FF0020C13F4803F0CEBC6
:10060000924203D04B6813F4003F03D0414B5A434E
:10061000026002E03E4B5A4302604A680F2303EA3D
:1006200012123D4B9A5CD0F800C02CFA02F24260E4
:10063000D1F804C0072404EA1C2C13F80CC022FAD9
:100640000CFCC0F808C0D1F804C004EADC2C13F894
:100650000C30DA40C2604968032303EA91312F4B22
:10066000595CB2FBF1F1016110BC7047234A0029CB
:10067000516914BF084321EA0000506170471F4AC6
:100680000029916914BF084321EA00009061704776
:100690001A4A0029D16914BF084321EA0000D06139
:1006A0007047164A0029D16814BF084321EA0000A8
:1006B000D0607047114A0029116914BF084321EA2C
:1006C0000000106170471649086070470D49C86402
:1006D00070470A49C87170470848416A41F0807103
:1006E00041627047054A0146002092680A4218BFDD
:1006F00001207047014988727047000000100240D5
:100700000000FFF800004242800442423C044242A2
:1007100000127A0000093D00100000200C000020AB
:100720004004424210B5A0F18041B1F584311DD0A2
:10073000B1F5806124D0B1F580612BD0B1F5806135
:1007400032D0B1F5806139D0B1F5806140D0B1F5DA
:10075000806118BF10BD01210802FFF7A2FFBDE8AC
:10076000104000214FF48070FFF79BBF012104204F
:10077000FFF797FF0021BDE810400420FFF791BF6D
:1007800001210820FFF78DFF0021BDE8104008205F
:10079000FFF787BF01211020FFF783FF0021BDE88D
:1007A00010401020FFF77DBF01212020FFF779FFC7
:1007B0000021BDE810402020FFF773BF0121402039
:1007C000FFF76FFF0021BDE810404020FFF769BF31
:1007D00001218020FFF765FF0021BDE81040802047
:1007E000FFF75FBF10B501210846FFF75AFF002150
:1007F000BDE810400120FFF754BF2DE9F003CB788E
:1008000003F00F0213F0100F1CBF8B781A430B7804
:100810004FF00F0713F0FF0F4FF001081ED00468D0
:10082000002308250E8808FA03FC3CEA060611D1CD
:100830009E0007FA06F924EA090402FA06F6344390
:10084000CE78282E08BFC0F814C003D0482E08BFA9
:10085000C0F810C05B1C6D1EE4D104600B88FF2B38
:100860009CBFBDE8F003704744684FF0000C0825BA
:100870000CF108030E8808FA03F333EA060607D0E2
:100880006D1E0CF1010CF3D14460BDE8F00370471C
:100890004FEA8C0607FA06F924EA090402FA06F67A
:1008A0003443CE78282E08BF4361CE78482E08BF47
:1008B0000361E5E74FF6FF71018002218170042199
:1008C000C17070470246002092680A4218BF01209A
:1008D0007047806880B2704702460020D2680A42A2
:1008E00018BF01207047C06880B27047016170472F
:1008F00041617047002A14BF016141617047C160C6
:10090000704741F4803282618161826181698069CE
:1009100070472C4A13684FF6807C03EA0C0343EAC5
:1009200000100843106070472749C861704770B4D1
:10093000244A10F0004F14BFD3695368C0F3034436
:100940004FF4401C3CEA00054FEA505C4FEA0C1C97
:1009500086B206FA0CFC16D010F4801F08BF23EAFA
:100960000C0303D0032505FA04F4A34343F070639A
:10097000002918BF4CEA030310F0004F14BFD361E5
:10098000536070BC7047546823F0706324F0706447
:100990005460EDE78A0721F0030101F1804101F580
:1009A0008031120F0F23D1F808C093402CEA0303C3
:1009B0008B608B6890401843886070470249C1F88B
:1009C000DC007047000001400000204210B5A0F19B
:1009D0008041B1F59C3117D011F574411FD0B1F5AC
:1009E000806127D0B1F580612FD0B1F5806118BF4B
:1009F00010BD01210805FFF75DFEBDE81040002194
:100A00004FF48010FFF756BE01218803FFF749FE1F
:100A1000BDE8104000214FF48040FFF742BE0121A5
:100A20004804FFF747FEBDE8104000214FF40030B6
:100A3000FFF740BE01218804FFF73CFEBDE81040EF
:100A400000214FF48020FFF735BE0121C804FFF7D5
:100A500031FEBDE8104000214FF40020FFF72ABE10
:100A600030B50446008A85B00D464CF6FF7108404B
:100A7000E98808432082A0894EF6F3110840A9882E
:100A80002A8911436A8910430843A081A08A4FF63E
:100A9000FF410840A9890843A0826846FFF79AFDF4
:100AA000A4F18040B0F59C300CBF03980298A18956
:100AB00011F4004F00EBC00101EB0010296814BFD6
:100AC00049008900B0FBF1F0954A6FF0180CA2FBC9
:100AD0000031490909010B0903FB0CF300EB83000A
:100AE000A38913F4004F4FF0320314BF03EBC0008F
:100AF00003EB0010A2FB00204FEA501014BF00F0DF
:100B0000070000F00F000843208105B030BD4FF40E
:100B10001651016000218180C18001810C22428137
:100B200081817047028A4FF2FF031A400B88B1F8A7
:100B300002C043EA0C03B1F804C0C9884CEA0101C1
:100B40001943114301827047002101804180818057
:100B5000C18070470029818914BF41F4005121F4FC
:100B6000005181817047C1F3421301F01F014FF022
:100B7000010C0CFA01F1012B08BF0C3003D0022B41
:100B80000CBF10301430002A026814BF114322EA4F
:100B9000010101607047002A828A14BF114322EAD2
:100BA000010181827047028A22F00F020282028ACA
:100BB000114301827047828922F400628281828916
:100BC0001143818170470029818914BF41F00201DE
:100BD00021F0020181817047028A22F02002028204
:100BE000028A1143018270470029018A14BF41F42F
:100BF000804121F4804101827047C1F30801818066
:100C000070478088C0F308007047818941F0010176
:100C100081817047028BD2B20283028B42EA0121AA
:100C200001837047028B02F47F420283028B1143DF
:100C3000018370470029818A14BF41F0200121F00F
:100C40002001818270470029818A14BF41F0100180
:100C500021F01001818270470029818A14BF41F080
:100C6000080121F00801818270470029818914BFA1
:100C700041F40041C1F30E01818170470029818A4E
:100C800014BF41F4006121F4006181827047828ABF
:100C900022F004028282828A1143818270470029F5
:100CA000818A14BF41F0020121F002018182704764
:100CB0000246002012880A4218BF01207047C9432B
:100CC0000180704710B401F01F0201240023C1F31A
:100CD000421C04FA02F2BCF1010F04BFB0F80CC0D0
:100CE0000CEA020208D0BCF1020F0CBFB0F810C031
:100CF000B0F814C00CEA0202090A008804FA01F1F3
:100D00000840002A1CBF00280123184610BC704769
:100D1000090A012202FA01F1C9430180704700006B
:100D20001F85EB512D4940F0FD7040F08060086058
:100D3000704710B4C27801784FF00F0C012322B332
:100D4000264A126801F1E02102F4E062C2F5E06295
:100D5000120AC2F104042CFA02F290F801C00CFA53
:100D600004FC8478224042EA0C02120181F800243B
:100D7000007800F01F0103FA01F14009800000F142
:100D8000E020C0F8001110BC704701F01F0003FA0A
:100D900000F04909890001F1E021C1F8800110BC8F
:100DA000704721F07F0121F0604108430C49086041
:100DB00070470C4A0029116814BF084321EA00005B
:100DC000106070474FF0E021042808690CBF40F024
:100DD000040020F004000861704700000CED00E002
:100DE00008ED00E010ED00E04D4882B0016841F0F0
:100DF0000101016041684B4A11404160016821F4E2
:100E0000102121F080710160016821F480210160CE
:100E1000416821F4FE0141604FF41F01816000220E
:100E200001920092016841F480310160016801F48F
:100E3000003100910199491C0191009919B901995A
:100E4000B1F5A06FF2D1016811F4003F08BF009224
:100E500033D00121009134490A6842F010020A603F
:100E60000A6822F003020A600A6842F002020A607D
:100E70004168416041684160416841F4806141607E
:100E8000416821F47C114160416841F4E8114160FE
:100E9000016841F080710160016811F0007FFBD0B2
:100EA000416821F003014160416841F00201416065
:100EB000416801F00C010829FAD11C494FF000608B
:100EC000086002B0704716494868194A10F00C03D0
:100ED000184818BF042B01D0082B01D0026015E080
:100EE0004A684B6802F470124FF0020C13F4803F12
:100EF0000CEB924203D04B6813F4003F03D00E4B2F
:100F00005A43026002E00A4B5A43026049680B4AA6
:100F1000C1F30311515C026822FA01F101607047CC
:100F2000001002400000FFF80020024008ED00E041
:100F300000127A002000002000093D00240000205B
:100F4000F0B5B0F900600746C6F3C01083B00C4698
:100F500000281EBF06F07F0003B0F0BD16F00700AA
:100F6000C6F3C30141EA011112D0012818BF35466A
:100F700022D0218FA8B201F073FC208705F07F00FA
:100F800006F47F41014341F08001398003B0F0BD98
:100F90002229B8BF2221208FCDE90010D4E9051005
:100FA000B4F90230B4F9002001F037FB05B2E08F4C
:100FB000002808BFE587DCE7228F04F1280001F054
:100FC000F6F905B2A08F002808BFA587D1E770B554
:100FD0000E4615461146FFF7B3FF04462946304634
:100FE000FFF7AEFF201A70BD6AB9028802F47F4392
:100FF000C2F307221A4302800A8802F47F43C2F335
:1010000007221A430A80B0F90200B1F90210401A0F
:1010100070470A8802804988418070472DE9F74F60
:1010200082464FF0010900BF5FEA0A054FF0000A4F
:101030005746D3463FD000262C4630460BF1010BD5
:10104000B9F1000FD8BFC84624DD2468761C002CF7
:101050001CBF401C4845F8DBC846002E1ADD7EB197
:10106000B8F1000F18BF002C06D0DDE9013261682D
:1010700068689847002803DC28462D68761E03E040
:1010800020462468A8F10108002F14BF386082466A
:101090000746E2E7B8F1000F02DD002CDFD101E0E6
:1010A0002500C8D100203860BBF1010FC8BF4FEA4E
:1010B0004909B9DC01E00020006003B05046BDE8FA
:1010C000F08F42684B6843604A600A6802600860BB
:1010D0007047B1F90220002A0ADB002808BF7047D8
:1010E0004168B1F90210914218BF0068F5D170470C
:1010F000002808BF70474268B1F9003012789A4260
:1011000018BF0068F4D17047D0E900124B68436003
:101110004A60026812680260002008600846704752
:10112000002120B10268016001461000FAD1084692
:1011300070472DE9F05F0023B0F904A08946456AA5
:10114000024698461F4669F31F469C46BAF1000FB7
:1011500048DD00BF0CF0FF0060F30F062C46311491
:1011600008D484B16068B0F90200884218BF2468CE
:10117000F7D108E03CB1D4F804B09BF800B0834547
:1011800018BF2468F6D100203DB100BFD5F800B0EB
:10119000286028465FEA0B05F8D10546002C4AD0A6
:1011A00008F101001FFA80F86068B0F9000010F043
:1011B000010F03D0C0F34020184483B2206830B13F
:1011C000D0F800B0C4F800B02C6804602860002992
:1011D000A4BF481C60F31F460CF101000FFA80FC0D
:1011E000D445B7DBC7EB8800184487B2B9F1000FCC
:1011F00005DDAFF225212846FFF710FF05462868D8
:10120000D0E90081D8F804204260C8F804100168D1
:10121000096801600020C8F800002846311448BF62
:1012200031B212D4D0B14268B2F902208A4218BF5A
:101230000068F7D110E0781C87B228684068008801
:10124000C0F30020184483B2C1E738B14268127875
:101250008A4218BF0068F8D1044601E02C684CB1FE
:1012600068683946B0F9000001F01FFB24680746A2
:10127000002CF5D12868D8F804104268C8F804207A
:1012800041600168C8F800100022AFF2A321C0F845
:1012900000802846FFF7C2FE046805464CB1686826
:1012A0003946B0F9000001F000FB24680746002C25
:1012B000F5D13846BDE8F09F70B48446DDE903659A
:1012C000106800F10804B44203D21E68361DAE4215
:1012D00002D370BC002070471460DCF8002002606C
:1012E000CCF800001A6842601A68121D1A60426841
:1012F0000B8813804988518070BC70472DE9F00F2E
:101300001423B0FBF3F0871E01EBC70400234C60ED
:101310000B606380D1F804C048F280030846ACF843
:10132000003001F1080C231D103104EB870547F64E
:10133000FF794FF0FF36A1423CBF03F10408A845F6
:101340000DD26146D0F80080C1F8008001604B608A
:1013500019460CF1080C0E801B1DA1F8029000210B
:10136000002F22D982EA010606F00F080E4668F324
:10137000DF0646EA062A0CF10806A6423CBF03F146
:101380000408A8450ED2E0460668C8F80060C0F818
:101390000080C8F80430A3F800A0A3F802900CF174
:1013A000080C1B1D491CB942DCD303680121D3F88A
:1013B00000C0BCF1000F1FD0DFF848C0ACFB074CE9
:1013C0004FEA9C048C4205D9D3F804C0ACF8021053
:1013D000491C0BE081EA020C491C01F007054CEAAC
:1013E000052C5D68CCF30D0CA5F802C01B68D3F882
:1013F00000C0BCF1000FE5D10022AFF21341BDE8FF
:10140000F00F0BE6CDCCCCCC70B50446C6690020FD
:1014100020876087A087E0870546002E16D9012126
:101420002046FFF786FE218F01F01AFA20874FF041
:10143000FF312046FFF77DFE218F01F011FA208752
:10144000002D08BF60876D1CB542E8D3002070BD39
:101450002DE9F34F0027ADF6240D0D463C467E1EC8
:10146000B846FEF7B5FEE3A0FEF722FF2A460DF6CA
:10147000240102AD0DF14A0001F073FAE2A0FEF77B
:1014800017FFF0A0FEF714FF012001F0C3F9ADF83B
:101490000800022001F0BEF9ADF80A00032001F0B7
:1014A000B9F9ADF80C00042001F0B4F90990052059
:1014B00001F0B0F90A90002804BF07200A90BDF996
:1014C000080066214FF0000A002804BFBDF80A207A
:1014D000002A05D1BDF80C20002A08BFADF80C1079
:1014E000012801BFBDF80A000028BDF80C00002843
:1014F00007D143F21540ADF80800ADF80A00ADF889
:101500000C1014A804904FF4FA6008900A98ADF8F3
:1015100048A010F0010F4FF0010B18BF01240A98EA
:1015200010F0020F18BF641C0A9810F0040F18BFC7
:10153000641C0898B0FBF4F008900A9810F0010FB2
:1015400005D00899049801FB0700012705900A9827
:1015500010F0020F05D00899049801FB07007F1CCA
:1015600006900A9810F0040F04D00899049801FB23
:10157000070007905FF0000707EB071905EB8904E8
:1015800094F8200010F0010F06D035F92920E16809
:101590000898FFF7B3FE606294F8200010F0020F85
:1015A0000AD035F92900618804F1280340EA014294
:1015B0002169089800F00CFF94F8200010F0040F47
:1015C00005D035F929106269089801F09DF8781C5A
:1015D00007043F0CD0D00998002850D10024CDF842
:1015E00024B02746DFF884B234E0099800EB80008D
:1015F0004000099001F096F9DDF82490ADF840A084
:10160000ADF844A0002702ACADF842A0ADF846A06A
:10161000B9F1000F16D901212046FFF78AFD218F6D
:1016200001F01EF920874FF0FF312046FFF781FDC2
:10163000218F01F015F92087002F08BF60877F1CDC
:101640004F45E8D301F073F901F07DF901F07EF91F
:1016500004460F4600225B462046394601F034FA24
:10166000C3D32046394601F015FA002808BF0120EF
:101670000A21B1FBF0F00999401C4843099001F0A0
:1016800051F9099FADF840A0ADF844A002ACADF807
:1016900042A0ADF846A04FF00009002F18D9012153
:1016A0002046FFF746FD218F01F0DAF820874FF042
:1016B000FF312046FFF73DFD218F01F0D1F8208753
:1016C000B9F1000F08BF608709F10109B945E6D3F8
:1016D00001F02DF901F037F90090BDF90800002163
:1016E00001F0E3F8BDF90A200146104601F0DDF8EB
:1016F000BDF90C200146104601F0D7F801460898C4
:1017000000B201F0D2F847F60532811ADFF8609195
:101710000190904204BF012656A024D010DC00F2B4
:101720000E70B0F5005004BF04265EA01BD000F67A
:101730004320B0F5804F04BF022666A013D00AE014
:10174000A1F56060FD3809D00D30B0F5C04F04BF81
:1017500003266DA007D04FF0FF3851E1002676A098
:10176000FEF7A6FD01E0FEF7A3FDD9F80000002773
:10177000002888BFDFF8F0B13AD900BF07EB0710A7
:1017800005EB8004A4F840A094F8200010F0010FAD
:101790000DD0628F3BF816309A4208D0394673A0BC
:1017A000FEF786FDB4F84000401CA4F8400094F811
:1017B000200010F0020F0ED07848A28F30F81630BB
:1017C0009A4208D0394676A0FEF772FDB4F8400080
:1017D000401CA4F8400094F8200010F0040F08D03A
:1017E0007C48E28F30F816309A4202D03946F3E056
:1017F00006E1F9E05553415254315F436F6E66691B
:1018000067206F6B0D0A00005472616E73706C611B
:101810006E7420436F72654D61726B2070726F67DA
:1018200072616D732042792048656C6978210D0AD8
:1018300051513A353437333336303833202E0D0A90
:1018400000000000436F72654D61726B2054657338
:10185000742069732072756E696E672C20506C61FC
:1018600073652057616974210D0A00000000F03F84
:10187000A8000020366B2076616C69646174696F22
:101880006E2072756E20706172616D657465727321
:1018900020666F7220636F72656D61726B2E0D0A28
:1018A00000000000324B2076616C69646174696FDE
:1018B0006E2072756E20706172616D6574657273F1
:1018C00020666F7220636F72656D61726B2E0D0AF8
:1018D0000000000050726F66696C652067656E6578
:1018E000726174696F6E2072756E20706172616DC5
:1018F000657465727320666F7220636F72656D61C7
:10190000726B2E0D0A000000324B20706572666FFC
:10191000726D616E63652072756E20706172616DAB
:10192000657465727320666F7220636F72656D6196
:10193000726B2E0D0A000000366B20706572666FA8
:10194000726D616E63652072756E20706172616D7B
:10195000657465727320666F7220636F72656D6166
:10196000726B2E0D0A000000340000205B25755DAF
:101970004552524F5221206C697374206372632068
:10198000307825303478202D2073686F756C642092
:101990006265203078253034780D0A003E00002042
:1019A0005B25755D4552524F5221206D61747269FD
:1019B000782063726320307825303478202D2073AE
:1019C000686F756C64206265203078253034780D3E
:1019D0000A000000480000207DA0FEF769FCB4F872
:1019E0004000401CA4F84000B4F8400040440FFA06
:1019F00080F8781C87B2D9F800008742FFF4BEAEA9
:101A000000F084FF404407B27EA00899FEF750FC26
:101A100083A00099FEF74CFC009800F097FF024667
:101A20000B4686A0FEF744FC009800F08FFF0022D2
:101A3000134601F061F813D2009800F087FF0446C6
:101A400088460998D9F80010484301F016F8224654
:101A5000434600F0A3FF02460B467EA0FEF728FC9B
:101A6000009800F073FF0022804B01F02DF804D2A3
:101A70007FA0FEF71DFC781C07B20998D9F800106A
:101A800041438BA0FEF714FC90A19AA0FEF710FC36
:101A90009EA1A2A0FEF70CFCA6A1A8A0FEF708FC40
:101AA000ACA00199FEF704FC0A9810F0010F14D0C5
:101AB000D9F80000002400280FD900BF04EB04105F
:101AC00005EB80002146428FA9A0FEF7F1FB601CC8
:101AD00084B2D9F80000A042F0D80A9810F0020FA2
:101AE00013D0D9F80000002400280ED904EB04100C
:101AF00005EB80002146828FA5A0FEF7D9FB601C74
:101B000084B2D9F80000A042F0D80A9810F0040F6F
:101B100013D0D9F80000002400280ED904EB0410DB
:101B200005EB80002146C28FA1A0FEF7C1FB601C1F
:101B300084B2D9F80000A042F0D8D9F800000024FF
:101B400000280ED904EB041005EB80002146028F1B
:101B50009FA0FEF7ADFB601C84B2D9F80000A04244
:101B6000F0D8002FC8BFA2A003D025DDFEF7A0FB50
:101B700025E0A448FEF79CFB032E20D1009800F03E
:101B8000E5FE06460C460998D9F80010484300F0D7
:101B900074FF3246234600F001FF5CA34BA2CDE95F
:101BA000002302460B4698A0FEF782FB61A19DA090
:101BB000FEF77EFB3DA0D9E79C48FEF779FB05F1D7
:101BC000420000F0D6FE0DF62C0D0020BDE8F08F8F
:101BD0005B25755D4552524F5221207374617465C7
:101BE0002063726320307825303478202D2073688C
:101BF0006F756C64206265203078253034780D0A6A
:101C000000000000436F72654D61726B2053697A6A
:101C100065202020203A20256C750D0A0000000068
:101C2000546F74616C207469636B732020202020D2
:101C3000203A20256C750D0A00000000546F746175
:101C40006C2074696D65202873656373293A2025BB
:101C5000660D0A00497465726174696F6E732F5363
:101C600065632020203A2025660D0A0000002440EC
:101C70004552524F5221204D75737420657865632B
:101C800075746520666F72206174206C6561737471
:101C9000203130207365637320666F722061207677
:101CA000616C696420726573756C74210D0A0000A3
:101CB000497465726174696F6E7320202020202042
:101CC000203A20256C750D0A0000000041524D207D
:101CD000436F6D70696C657220352E3036207570DB
:101CE00064617465203220286275696C6420313823
:101CF00033290000436F6D70696C657220766572E0
:101D000073696F6E203A2025730D0A002D67202D10
:101D10004F33202D4F74696D65000000436F6D7067
:101D2000696C657220666C6167732020203A2025FB
:101D3000730D0A00535441434B0000004D656D6F15
:101D40007279206C6F636174696F6E20203A202570
:101D5000730D0A0073656564637263202020202080
:101D600020202020203A203078253034780D0A00B9
:101D70005B25645D6372636C69737420202020208E
:101D800020203A203078253034780D0A00000000F9
:101D90005B25645D6372636D6174726978202020D5
:101DA00020203A203078253034780D0A00000000D9
:101DB0005B25645D63726373746174652020202009
:101DC00020203A203078253034780D0A00000000B9
:101DD0005B25645D63726366696E616C2020202000
:101DE00020203A203078253034780D0A0000000099
:101DF0004572726F72732064657465637465640DF7
:101E00000A000000AC380008436F72654D61726BC8
:101E100020312E30203A202566202F2025732025C2
:101E200073000000202F20257300000048380008B0
:101E300010B4002819BF00FB00F3002B10BC704742
:101E400010F0010004D0B1F800C09444A1F800C023
:101E500083429CBF10BC704731F810C0944421F8F5
:101E600010C001EB400C801CBCF8024083421444BB
:101E7000ACF80240F0D810BC70472DE9F001002406
:101E8000A046A446002818BF002516D900E088B156
:101E900005FB00F301EB8306074633681C449442BC
:101EA0000FDD0CF10A0C0FFA8CFC0024361D98464D
:101EB0007F1EF2D16D1C8542E9D3BDE8F00160467A
:101EC00070474345CCBF4FF001084FF00008C444B1
:101ED0000FFA8CFCEAE72DE9FF4F002818BF4FF0FE
:101EE00000088EBF4FF0000E04B0BDE8F08F00BFB9
:101EF0004FF00005002824D9DDF808C008FB00F2E7
:101F00000CEB420A08FB005B724641F82BE0A8B1DB
:101F1000D44603EB45040646B4F800903CF8027B37
:101F200004EB400407FB09F7C7F38309C7F346171F
:101F300009FB0722761EEFD141F82B206D1C85424C
:101F4000E0D308F10108804524BF04B0BDE8F08F5C
:101F50000028F6D0CCE72DE9FF4F002818BF002756
:101F60008EBF4FEA500804B0BDE8F08F4FF0000676
:101F7000002837D9029B07FB00F203EB420A07FB5C
:101F80000069002241F8292048B3039BA6EB000C0E
:101F9000AAF1020403EB4C0C10F0010F07D00CEB7C
:101FA000400C34F9023FBCF9005003FB0522002528
:101FB0005FEA080310D000BF3CF910E0B4F902B0AA
:101FC0000CEB800C0BFB0E2234F904BFBCF900E0D3
:101FD0005B1E0BFB0E55EFD12A4441F82920761CDD
:101FE0008642CCD37F1C874224BF04B0BDE8F08F6B
:101FF0000028F7D0BAE72DE9F04F002818BF0027D6
:1020000086BF4FF0000B4FEA500ABDE8F08F00BFCB
:1020100041F827B038B307FB00F402EB4404DC4678
:10202000A4F10205A3F1020610F0010F05D035F965
:10203000024F36F9028F04FB08CC4FF000085FEA2C
:102040000A040DD0B5F90290B6F902E0641E09FB4E
:102050000ECC35F9049F36F904EF09FB0E88F1D157
:10206000C44441F827C07F1C8742D1D3BDE8F08F1C
:102070002DE9F001002818BF00268EBF4708BDE8F3
:10208000F001704706FB00FC02EB4C04A4F10205D2
:1020900001EB8C0CACF1040410F0010F05D035F904
:1020A00002CF0CFB03FC44F804CF5FEA070C0ED010
:1020B000B5F90280BCF1010C08FB03F8C4F80480F8
:1020C00035F9048F08FB03F844F8088FF0D1761C2B
:1020D000864224BFBDE8F00170470028D2D1F6E760
:1020E0002DE9FF4F91B000261E98139A40F47040DE
:1020F00000B20C9011981E9900FB00F30B9300287E
:1021000018BF5FEA030C14D010F0010002D013884E
:102110000B44138084450CD932F810300B4422F85C
:10212000103002EB4003801C5C8884450C445C80CA
:10213000F2D8DDE91109DDF84C801E9D002818BF9A
:10214000002488BF470826D904FB00F108EB4102B0
:1021500009EB8101A2F1020CA1F1040310F0010FBF
:1021600005D03CF9021F01FB05F143F8041F3A00BA
:102170000BD000BFBCF90210694359603CF9041F41
:10218000694343F8081F521EF4D1641C844202D2F2
:102190000028D9D1F9E7DDE911010C9AFFF76DFEAE
:1021A000314600F082FB0190DDE911C8DDE913BA88
:1021B000BCF1000F18BF002484BF4FEA5C09002760
:1021C0002ED9384648F82470BCF1000F25D004FB06
:1021D0000CF10BEB41018A1EAAF102031CF0010F66
:1021E00005D032F9021F33F9025F01FB050000251B
:1021F0005FEA09010ED000BFB2F90260B3F902E054
:10220000491E06FB0E0032F9046F33F904EF06FB9A
:102210000E55F1D1284448F82400641C6445D0D3FD
:10222000DDE911010C9AFFF728FE019900F03DFB52
:102230000190DDE911071399099114990D91002876
:1022400018BF002588BF4FEA50083FD94FF000065D
:10225000002835D9099A05FB00F102EB410A05FB7C
:102260000069002147F8291038B3331A0D9AAAF1F2
:10227000020C02EB430310F0010F07D003EB400305
:102280003CF9022FB3F9004002FB041100245FEA7D
:1022900008020FD033F910E0BCF902B003EB800361
:1022A0000BFB0E113CF904BFB3F900E0521E0BFB0F
:1022B0000E44EFD1214447F82910761C8642CED334
:1022C0006D1C854202D20028FAD0BFE7DDE911017A
:1022D0000C9AFFF7D2FD019900F0E7FA0190DDE9D1
:1022E000110813990A91DDF850B0002818BF002694
:1022F00088BF4FF000092DD94FF00004002823D9E2
:102300000A9A06FB00F102EB410A06FB004E494621
:1023100048F82E90A8B152460BEB44034FEA000553
:102320001F8832F802CB03EB40030CFB07FCCCF315
:102330008307CCF3461C07FB0C116D1EF0D148F847
:102340002E10641C8442E0D3761C864202D2002800
:10235000FAD0D1E7DDE911010C9AFFF78EFD019962
:1023600000F0A3FA1E9A11995242139B0FFA82FCB5
:1023700000291CBF0B9C002C15D011F0010102D0CC
:102380001A8862441A808C420DD900BF33F811209C
:10239000624423F8112003EB4102891C55888C42CA
:1023A00065445580F2D815B000B2BDE8F08F38B55D
:1023B0001546D0E90123D0F800C0C4680091214639
:1023C0006046FFF78DFE2946BDE8384000F06DBA43
:1023D0002DE9F04F00244FF0010C002A08BF012224
:1023E000002805D9641C04FB04F5ED00A842F9D8C7
:1023F000491E601E21F0030101F1040B00FB00FEE9
:102400000BEB4E0A002818BF002128D900E018B3B2
:1024100001FB00F40AEB44060BEB44054FF000040B
:102420004FEA00070CEB040909FB02F24FEAE278DD
:1024300002EB18486FF30F08A2EB080209EB020841
:1024400026F8028BC84408F0FF0825F8028B04F137
:1024500001047F1EE6D18444491C8142D7D30AEB94
:102460004E01C3E901BA491E21F00301091DD960DB
:102470001860BDE8F08F00000368844600201A78D9
:10248000002A00F0C7802C2A59D0A2F13000092878
:1024900031D80A680420521C0A6013F8012F002A60
:1024A00074D02C2A78D05CE0A2F1300009286ED8D4
:1024B0008A690720521C8A6113F8012F002A65D00F
:1024C0002C2A78D168E02B2A18BF2D2A74D0CA682C
:1024D0000120521CCA605FE0A2F1300009282FD809
:1024E0008A680420521C8A6013F8012F002A4DD0FC
:1024F0002C2A51D035E02B2A18BF2D2A0AD02E2A9B
:1025000013D04A680120521C4A600A68521C5B1CA6
:102510000A607FE00A680220521C0A6013F8012F4B
:10252000002A77D02C2A37D0D6E70A680520521C1B
:102530000A6013F8012F002A6CD02C2A2ED12BE030
:102540002E2A04D08A680120521C8A6024E08A68FE
:102550000520521C8A6013F8012FBAB12C2A1DD114
:102560001AE02E2A08D0303A092A11D813F8012F80
:1025700062B12C2AF5D10FE00A690520521C0A61CC
:1025800013F8012F12B12C2A08D105E041E02DE00B
:102590000A690120521C0A615B1C3BE0452A18BFF6
:1025A000652A0AD0303A092A11D813F8012F82B3CC
:1025B0002C2AF3D1F0E71EE00EE04A690320521CFA
:1025C0004A6113F8012F22B32C2AE5D07BE74A6930
:1025D0000120521C4A61DFE7CA680620521CCA600B
:1025E00013F8012FAAB12C2AD6D05DE78A69012001
:1025F000521C8A61D0E7303A092A05D813F8012F16
:102600003AB12C2AF7D1C7E74A680120521C4A6028
:10261000C2E7FFE7CCF8003070472DE9F04F95B0E6
:1026200082460020DDE91E690A900B900C900F9005
:1026300010900D900E901190009001900C46029019
:102640000390049005900690CDE907042078984601
:1026500093466F4660B10AA908A8FFF70DFF57F827
:102660002010491C47F82010089800780028F2D163
:1026700004EB0A00001B3044A0F1010A9AFBF6F0BB
:10268000254608940028C8BF0BF0FF0207DD297813
:102690002C291CBF514029703544401EF7D10894A5
:1026A000207860B10AA908A8FFF7E6FE57F82010C5
:1026B000491C47F82010089800780028F2D19AFBAE
:1026C000F6F008940028C8BF08F0FF0207DD217863
:1026D0002C291CBF514021703444401EF7D10024E6
:1026E0000DF1280557F82400494600F004F955F883
:1026F00024200146104600F0FEF8641C8146082C98
:10270000F0D315B0BDE8F08F2DE9F84F4FF0000C75
:10271000A0F10108654666466746B8F1010F4DD93C
:10272000DFF8E8A00AF1100B0AF1200E1DE0E5B178
:1027300002EB0C00731E0090401E15F0010F03D039
:1027400013F801CF00F801CF5FEA550C08D05C7890
:10275000447013F8024F00F8024FBCF1010CF6D19F
:10276000009B2C2009F1010C5855481C01B201F0C6
:10277000070008281CD2DFE800F00404040A0A0F4E
:102780000F15C1F3C10004255AF8206010E0C1F311
:10279000C1005BF8206003E0C1F3C1005EF8206077
:1027A000082505E01A48C1F3C103082550F8236045
:1027B0000CEB050909F101004045B8D308F101000F
:1027C000844538BFB0F1004F14D202EB0C01A0EBEE
:1027D0000C00491E10F0010F18BF01F8017F4008DE
:1027E00008BFBDE8F88F4F7001F8027F401EFAD194
:1027F000BDE8F88F604598BFBDE8F88F02F80C700F
:102800000CF1010C8445F9D3BDE8F88F5400002089
:1028100084000020062810D2DFE800F00F0306082D
:102820000B0D3B48006870473A4800E03A480068A2
:1028300070473A48FBE73A48F9E70020704708221A
:102840004AF2010C80EA010313F0010F4FEA500035
:1028500014BF8CEA51014908521EF3D10846704753
:102860000346C0B25FF0080280EA010C1CF0010FC1
:102870004FEA50001ABF4AF2010C8CEA5101490894
:10288000521EF1D108461A0A08214AF2010C00BF73
:1028900082EA000313F0010F4FEA520214BF8CEAE0
:1028A00050004008491EF3D170471FFA80FC0CF01D
:1028B000FF00082280EA010313F0010F4FEA5000E5
:1028C0001ABF4AF2010383EA51014908521EF1D1AD
:1028D00008464FEA1C2208214AF2010C82EA000352
:1028E00013F0010F4FEA520214BF8CEA5000400867
:1028F000491EF3D1704710B5044600B2FFF7D5FF6B
:1029000022140146BDE810401046CEE70020704773
:1029100094000020980000209C000020A0000020CF
:10292000A4000020144900204860FDF7F6BC1248BE
:10293000416801604FF0E020016921F0010101616F
:102940000021816170470C48006870470A4810B543
:10295000006800F092F8BDE810400022074B00F03C
:102960001DB810B5044606A0FDF7A2FC012020709A
:1029700010BD002101707047AC00002000408F4066
:102980000D0A436F72654D61726B2074657374201C
:10299000426567696E210D0A000000002DE9F04DC7
:1029A00081EA030404F0004B21F0004514464FF087
:1029B000000A23F0004150EA050220D054EA010247
:1029C0001DD0C5F30A570246C5F31303C1F3130024
:1029D000C1F30A5640F4801543F48013A7EB0608B0
:1029E000101BD64608F2FD3873EB050002D308F140
:1029F000010801E092185B41B8F1000F03DA0020F2
:102A00000146BDE8F08D00204FF480110646844653
:102A10000EE0171B73EB050705D3121B63EB0503D1
:102A200006434CEA010C49084FEA300092185B411A
:102A300050EA0107EDD152EA030012D082EA040005
:102A400083EA0501084305D0101BAB4106D20122E1
:102A5000002306E000224FF0004302E06FF0010285
:102A600053101AEB06004CEB085110EB0A0041EB37
:102A70000B01BDE8F04D00F0AEB80EB540F23341A9
:102A800002910021CDE900110A460B4600F0B2F890
:102A900003B000BDC1F30A5210B5C1F3130140F2F7
:102AA000FF3341F480119A4201DA002010BD40F258
:102AB00033439A42A2F2334203DC524200F07BF8E5
:102AC00010BD904010BD000030B5041E71F100042F
:102AD00004DB4FF00044404264EB0101141E73F12B
:102AE000000405DB1C464FF00043524263EB040335
:102AF0008B4208BF824230BD30B5041E71F1000424
:102B000004DB4FF00044404264EB0101141E73F1FA
:102B1000000405DB1C464FF00043524263EB040304
:102B2000994208BF904230BD30B50B4601460020A7
:102B30002022012409E021FA02F59D4205D303FA7F
:102B400002F5491B04FA02F52844151EA2F1010200
:102B5000F1DC30BD2DE9F05F0546002092469B4632
:102B600088460646814640241BE0284641464746A3
:102B7000224600F020F853465A46C01A914110D31D
:102B800011461846224600F0C7F92D1A67EB0108D6
:102B90004F4622460120002100F0BEF917EB000944
:102BA0004E41201EA4F10104DFDC484631462A468E
:102BB0004346BDE8F09F202A04DB203A21FA02F0C8
:102BC0000021704721FA02F3D040C2F12002914067
:102BD00008431946704710B5141E73F1000408DA53
:102BE000401C41F1000192185B411A4301D120F0D1
:102BF000010010BD2DE9F04D92469B4611B1B1FA8E
:102C000081F202E0B0FA80F22032904600F084F9BE
:102C100004460F4640EA0A0041EA0B0153465A4671
:102C2000084313D0114653EA010019D0C8F14002FD
:102C30005046FFF7C0FF05460E46504659464246ED
:102C400000F06AF9084305D0012004E02046394627
:102C5000BDE8F08D0020054346EAE0762C4337437B
:102C60000A986305E40AA0EB08000022FD0A44EA82
:102C700047540A3002D500200146E9E70105101942
:102C80006941DDE9084500196941BDE8F04DA2E759
:102C90002DE9FE4F804681EA0300C00F0C460090EC
:102CA00021F0004123F00045B8EB0200A94105D214
:102CB0004046214690461C460B46024623F0004003
:102CC000104347D0270DC7F30A00C3F30A510290FF
:102CD000401A019040286BDAC3F3130040F4801BC4
:102CE0000098924620B10023D2EB030A63EB0B0B52
:102CF00001985946C0F14002504600F00DF90646D1
:102D00000D4650465946019A00F015F910EB08009F
:102D10006141002487EA115284EAE7731A4340D0E4
:102D2000009A62B3019A012A4FEA075215DC001B90
:102D300061EB02014FF0004202EA0752CDE9004286
:102D4000001C41F5801132462B46FFF753FF03B0BC
:102D5000BDE8F08F40462146F9E7001B61EB020118
:102D6000001C41F5801300185B412018A2F50017E4
:102D700047EB030140EAD570B6196D4111E06D08CB
:102D80004FEA360645EAC0754FEA0752001B61EB71
:102D90000201001C41F5801149084FEA300000197A
:102DA000514132462B4603B0BDE8F04FFFF713BF49
:102DB0000098012240000023D0EB020263EBE07395
:102DC000009821464FEAE074B8EB000061EB040183
:102DD000E9E783F000435BE781F0004158E72DE924
:102DE000FE4F81EA030404F0004421F00041009406
:102DF0004FF0000B23F0004350EA01045ED052EA8A
:102E000003045BD0C3F30A54C1F30A552C44A4F263
:102E1000F3340194A0FB0254C1F3130141F4801177
:102E2000C3F3130343F4801301FB024400FB034E7E
:102E3000840A970A44EA815447EA8357A4FB076847
:102E400002958D0A05FB07854FEA932C04FB0C5471
:102E50002705029D4FEA065847EA1637B5EB0805E5
:102E60006EEB070C870E920E47EA811742EA831237
:102E7000A7FB0201B6EB0B0164EB00042B0D43EA48
:102E80000C335E1844EB1C50DA465146E7FB020156
:102E9000C5F313044FEA0B3343EA14534FEA0432E9
:102EA000019C43EA0603A4F10C040294009CCDE9C2
:102EB00000B4FFF79FFE03B0BDE8F08F002001468D
:102EC000F9E7C1F30A52C1F3130140F2FF3341F4B1
:102ED00080119A4202DA00200146704740F23343E3
:102EE0009A42A2F2334202DC5242FFF764BE00F083
:102EF00013B80000064C074D06E0E06840F00103FF
:102F000094E8070098471034AC42F6D3FDF714F963
:102F1000A8390008C8390008202A04DB203A00FA42
:102F200002F1002070479140C2F1200320FA03F320
:102F3000194390407047202A06DBCB17203A41FA0C
:102F400002F043EAE07306E041FA02F3D040C2F136
:102F50002002914008431946704700007CB5491E85
:102F60001C461546CDE90001044B6A462146284619
:102F700000F0C8F8009A002111707CBD33380008B9
:102F800002E008C8121F08C1002AFAD17047704732
:102F9000002001E001C1121F002AFBD17047000090
:102FA0002DE9FF5FDDE90220010DDDF838B00243B5
:102FB00018D044F61050A1F2FF3141430D140F9880
:102FC000012820D0A5EB0B00401C5FEA000A4FF05F
:102FD0000004474EDFF81C91A046504616D5CAF1B2
:102FE000000728E00F98012443A2012808D00021FF
:102FF00000980F9BC0E90021C0E90243BDE8FF9F94
:103000006FEA0B01F4E7CBF10000DEE7074612E0C0
:10301000F80707D02246334640464946FFF7DFFE11
:10302000804689462246334610461946FFF7D7FEAA
:1030300004460E467F10002FEAD1DDE90201BAF105
:10304000000F42464B4602DAFFF7C9FE01E0FFF7E8
:10305000A5FC04460E460022284BFFF74DFD03D881
:103060004FF0FF30014607E00022254B2046314655
:10307000FFF70EFEFFF725FF102409E0002C0ADB06
:103080000A220023FFF766FD019B30321A55641EA9
:1030900050EA0102F2D1641C019AC4F111031444F4
:1030A0000F9A012A03D0012208430DD10AE00843F8
:1030B00004D000204FF0110B0F9080E7A3EB0B051D
:1030C0006D1E0DE05B4504DD4FF0000205F10105CA
:1030D00004E003DA4FF00002A5F10105002AECD06C
:1030E00000980F99C0E90231C0E9004586E7000069
:1030F000000024400000F03F300000000000F043DA
:103100000000E03F2DE9FF4F95B09B4689460646FB
:1031100000250FE2252877D100242746F84A01210F
:10312000059400E0044316F8013F203B01FA03F048
:103130001042F7D130782A2811D06FF02F03307861
:10314000A0F13002092A16D8059A44F0020402EBD5
:10315000820203EB42021044761C0590EFE759F817
:10316000042B0592002A03DA504244F400540590DF
:1031700044F00204761C30782E2816D116F8010F80
:1031800044F004042A280DD06FF02F023078A0F10B
:103190003003092B09D807EB870302EB4303C71859
:1031A000761CF3E759F8047B761C30786C280FD036
:1031B00006DC4C2817D068280DD06A2814D104E00A
:1031C000742810D07A280FD10DE044F400140AE0DE
:1031D00044F4801401E044F440147278824202D135
:1031E00004F58014761C761C307866280BD013DC2E
:1031F000582877D009DC002875D04528F6D0462815
:10320000F4D047281AD19DE118E0632835D064280E
:1032100079D0652812D195E1702873D008DC672831
:10322000F1D069286FD06E280DD06F2806D1B5E097
:1032300073282CD0752875D0782874D05A461799E1
:1032400090476D1C75E1C4F30250022809D0032891
:103250000DD0D9F8001004280DD00D6009F1040933
:1032600067E1D9F80010EA17C1E90052F6E7D9F88A
:1032700000100D80F2E70D70F0E719F8041B8DF8CF
:10328000001000208DF80100EA46012003E059F803
:1032900004AB4FF0FF3061074FF0000102D40DE0A6
:1032A00008F101018846B9420FDA8045F8DB1AF8C7
:1032B00008100029F4D108E008F101018846814294
:1032C000FADB1AF808100029F6D105985B46A0EB46
:1032D000080721463846179A00F094FA284400EB74
:1032E000080507E04DE029E10DE01AF8010B5A4608
:1032F00017999047B8F10108F7D25B462146384646
:10330000179A13E142E00A220092C4F302524FF0EE
:10331000000A022A08D059F804CB032A4FEAEC71BC
:103320000AD00DE029E02AE009F1070121F00702A7
:10333000F2E802C1914609E00FFA8CFC4FEAEC7109
:10334000042A03D14FFA8CFC4FEAEC71002907DA0A
:103350000A460021DCF1000C61EB02012D2202E0A3
:10336000220504D52B228DF80420012203E0E20778
:1033700001D02022F7E7904659E00A2102E010220E
:103380000DE010214FF0000A00910BE010224FF0E9
:10339000000A44F004040827009203E008224FF0DA
:1033A000000A0092C4F30252022A05D059F804CB55
:1033B0000021032A08D009E009F1070121F00702E2
:1033C000F2E802C1914605E01FFA8CFC042A01D103
:1033D0000CF0FF0C4FF00008220728D5702806D00B
:1033E000009B83F0100353EA0A0305D00EE040224D
:1033F0008DF80420012208E05CEA010206D03022A8
:103400008DF804208DF8050002229046009B83F081
:10341000080353EA0A030AD15CEA010201D16207F8
:1034200005D530228DF804204FF001087F1E582862
:1034300004D034A003900EA802900DE036A0F9E766
:1034400053466046009AFFF785FB84460398825CEA
:103450000298401E029002705CEA0100F0D10298CE
:1034600006A9081A00F1200A600702D524F4803466
:1034700000E00127574502DDA7EB0A0000E000202D
:1034800000EB0A01009005984144401A0590E003C2
:1034900006D45B462146179A059800F0B3F9054417
:1034A000002706E001A85A46C05D179990476D1C99
:1034B0007F1C4745F6DBE0030CD55B462146179A97
:1034C000059800F09FF9054404E030205A4617990A
:1034D00090476D1C0099481E00900029F5DC08E01B
:1034E000029802995A460078491C02911799904710
:1034F0006D1CBAF10001AAF1010AF1DC65E10000DE
:1035000009280100303132333435363738396162B9
:10351000636465660000000030313233343536377D
:1035200038394142434445460000000000F058F954
:103530000544761C307800287FF4ECAD19B028469D
:10354000BDE8F08F620700D4062709F1070222F0D8
:10355000070CFCE80223E14603F000485FEA080C90
:1035600002D00FF2702C0DE05FEA045C02D50FF27E
:10357000682C07E05FEAC47C02D00FF2602C01E007
:10358000AFF2700C4FF0FF3823F00043CDF850C07D
:1035900065280CD006DC452809D046281DD04728D0
:1035A0003DD13DE0662818D067287ED138E0002163
:1035B000112F01DB112000E0781CCDE9000106A9E4
:1035C0000EA8FFF7EDFCDDE90F010E9A0391002133
:1035D000009207F1010A04914DE04FF0004000977E
:1035E000CDE9011006A90EA8FFF7DAFCDDE90F020C
:1035F00003920E9B11990022DDF80CA00093049217
:1036000011B9791C00EB010AB7EB0A0004D4C0F130
:10361000FF3007F1010A0490AAEB0700019044E093
:10362000012F00DA01270021112F01DD112000E018
:103630003846CDE9000106A90EA8FFF7B1FCDDE987
:103640000F010E9A0391002104910092BA462107BE
:103650000CD40399514500DA8A46BAF1010F05DD11
:10366000009AAAF10101515C302908D0B84202DA6F
:1036700010F1040F06DA0121CDE9011015E0AAF1DD
:103680000101E9E7002805DC049901440491AAEB53
:10369000000102E0411C514500DD8A460499401AB0
:1036A000401C01904FF000400290200704D4019884
:1036B000504501DBCDF8048000208DF84F000298C2
:1036C0000DF14F07B0F1004F25D02B200E9002983E
:1036D0004FF0020800280CDA404202902D200E9094
:1036E00007E00A210298FFF71FFA3031029007F82D
:1036F000011DB8F10001A8F10108F2DC02980028D0
:10370000EFD1791E0E980870307800F0200040F05C
:10371000450007F8020D12A8C01B00F10708149815
:10372000007800B1012000EB0A01019801EBE07183
:1037300005984144401A401E0590E00306D45B46BC
:103740002146179A059800F05DF805441498007812
:1037500018B15A46179990476D1CE00324D55B4673
:103760002146179A059800F04DF805441CE004988E
:10377000002807DBDDE90301884203DD0098405C97
:10378000179901E0179930205A469047049805F19F
:103790000105401C04900198401E019004D12E2088
:1037A0005A46179990476D1CBAF10001AAF1010A17
:1037B000DDDC05E017F8010B5A46179990476D1CA0
:1037C000B8F10001A8F10108F4DC5B462146179A24
:1037D0000598ABE62D0000002B0000002000000043
:1037E0002DE9F041044600251E461746880404D4FE
:1037F00005E039462020B0476D1C641EF9D52846E7
:10380000BDE8F0812DE9F041044600251E469046B2
:10381000C80301D5302700E02027880404D505E03F
:1038200041463846B0476D1C641EF9D52846BDE8B0
:10383000F0814A68002A06D00A68531C0B60107099
:103840004868401E4860704743616E6E6F74207612
:10385000616C6964617465206F7065726174696F11
:103860006E20666F72207468657365207365656489
:103870002076616C7565732C20706C6561736520B2
:10388000636F6D706172652077697468207265730B
:10389000756C7473206F6E2061206B6E6F776E2075
:1038A000706C6174666F726D2E0D0A00436F7272D8
:1038B000656374206F7065726174696F6E207661E4
:1038C0006C6964617465642E20536565207265615E
:1038D000646D652E74787420666F722072756E2028
:1038E000616E64207265706F7274696E67207275A4
:1038F0006C65732E0D0A000033352E3534343030AC
:10390000000000002B302E36343430300000000030
:103910002E31323334353030000000002D3131305B
:103920002E373030000000002D2E313233652D321D
:10393000000000002B302E36652D313200000000D3
:1039400035303132000000002B31323200000000EF
:103950002D3837652B38333200000000352E3530D6
:1039600030652B330000000031323334000000009A
:103970002D3837340000000054302E33652D314689
:103980000000000033342E30652D545E000000002E
:103990002D542E542B2B5471000000003154332E23
:1039A0003465347A00000000C839000800000020A7
:1039B000B4000000802F00087C3A0008B40000200A
:1039C00004200000902F00080000000048000000C4
:1039D00000000000020406080000000001020304C9
:1039E000010203040607080900A24A0400000000BF
:1039F000000000000102030406070809B0D44033A8
:103A0000796A14E7C1E352BE99110856D71F4707D8
:103A1000475EBF39A4E53A8E848D00004039000826
:103A2000683900087039000848390008F83800087B
:103A3000103900081C390008043900085C390008F6
:103A4000283900085039000834390008783900084E
:103A5000903900089C3900088439000800000000F3
:103A60000000000066000000DC050000000000000F
:0C3A700001000000000000000000000049
:0400000508000131BD
:00000001FF
