:020000040800F2
:1000000040640020490200088B440008353600088F
:1000100089440008711A0008854A000800000000A1
:100020000000000000000000000000000D46000875
:10003000731A000800000000154500082546000856
:1000400063020008630200086302000863020008FC
:1000500063020008630200086302000863020008EC
:1000600063020008630200086302000863020008DC
:1000700063020008630200086302000863020008CC
:1000800063020008630200086302000863020008BC
:1000900063020008630200086302000863020008AC
:1000A000630200086302000863020008630200089C
:1000B0006302000825470008630200086302000885
:1000C000630200086302000863020008630200087C
:1000D00063020008C14800086302000863020008C8
:1000E000630200086302000863020008630200085C
:1000F000630200086302000863020008630200084C
:10010000630200086302000863020008630200083B
:100110006302000863020008C14700086302000888
:10012000630200086302000863020008630200081B
:1001300000F002F800F077F80AA090E8000C824482
:100140008344AAF10107DA4501D100F06CF8AFF25F
:10015000090EBAE80F0013F0010F18BFFB1A43F0A5
:1001600001031847D4D00000F4D000000A444FF037
:10017000000C10F8013B13F0070408BF10F8014B06
:100180001D1108BF10F8015B641E05D010F8016B4B
:10019000641E01F8016BF9D113F0080F1EBF10F8AF
:1001A000014BAD1C0C1B09D16D1E58BF01F801CBD2
:1001B000FAD505E014F8016B01F8016B6D1EF9D555
:1001C0009142D6D37047000000230024002500266A
:1001D000103A28BF78C1FBD8520728BF30C148BFAA
:1001E0000B60704766290AF0BA87642900F0AA807C
:1001F000752900F0A780782900F0E080732900F0CD
:100200005585002070471FB500F0A4FD04000020B4
:1002100000210AF0EDF8E0600FBC00F013F80FB415
:100220001FBD10B510BD00F0ADFE1146FFF7EBFF8E
:1002300009F0A0F900F0CBFE03B4FFF7F2FF03BC16
:1002400008F0A8FB00F01BBF094880470948004799
:10025000FEE7FEE7FEE7FEE7FEE7FEE7FEE7FEE776
:10026000FEE7FEE704480549054A064B70470000D3
:10027000354600083101000840420020406400205B
:100280004044002040440020704700000FB404495F
:1002900010B503AA029800F00DFD10BC5DF814FB28
:1002A0003000002070B5044685690068C10601D59C
:1002B000302600E02026C00707D070BDD4E9012118
:1002C00030469047206A401C20626D1EF6D570BDF6
:1002D00070B5044685690078C00707D170BDD4E9C0
:1002E000012120209047206A401C20626D1EF6D517
:1002F00070BD70B50C460546012A05D028788006E9
:1003000000D5EA69002302E0012305E05B1C93426B
:1003100002D2E05C0028F9D1A869E618C01AA861E9
:10032000286A184428622846FFF7BCFF04E0D5E994
:10033000012114F8010B9047B442F8D32846FFF787
:10034000C7FF70BD2DE9F0410646002410687529ED
:10035000314616A510D0AFF30080002802DA4042E3
:1003600013A507E031688A0701D512A502E0490705
:1003700004D511A5012401E0AFF3008000210A2279
:1003800006F1240709E0B0FBF2FCB0FBF2F302FB3C
:100390001C00303078541846491C0028F3D12346FD
:1003A0002A463046BDE8F04100F008BA00000000DF
:1003B0002D0000002B0000002000000070B5044656
:1003C0000D4621461068AFF300802188090502D54B
:1003D0000F4A7A4402E00E4A7A440E32002104F1B8
:1003E000240305E000F00F060009965D5E54491CE9
:1003F0000028F7D120780023000704D5702D02D003
:1004000009B1022311322046BDE8704000F0D6B990
:1004100032CC00002DE9F05F894604464FF0000A17
:10042000DFF874B1FB44C0F820A02046E16888479B
:10043000002874D0252806D0D4E901219047206AED
:10044000401C2062F1E700265F462046E1688847AD
:100450002028054607DB312D05D2781910F8200C2D
:1004600008B10643F1E7B00701D526F00406C4F849
:100470001CA00027C4F818A02A2D09D0284608F08F
:1004800081FA38B304EB8708303DC8F8185019E0FA
:1004900059F8041B204604EB87029161E168884704
:1004A000012F054618D1E069002820DA26F0200641
:1004B0001DE0D8F8180000EB800005EB4000303854
:1004C000C8F818002046E1688847054608F05AFA3F
:1004D0000028EED1012F0AD02E2D08D12046E16848
:1004E00088477F1C0546022F46F02006C4DBA06922
:1004F000002803DA404246F00106A061F00701D06F
:1005000026F010066C2D0BD0682D09D04C2D39D05B
:100510006A2D35D0742D35D07A2D33D016E038E0E1
:10052000E1682F4620468847B842054609D16C2F1E
:1005300026D04FF48060E168064320468847054690
:1005400004E06C2F1AD04FF4807006430DB3A5F170
:100550004100192802D8203546F400664A4629464B
:10056000204626604E46FFF73DFE80B101280BD0A5
:10057000F61D26F0070000F1080956E74020E4E7E1
:100580008020D8E70020D6E706F104094DE7284689
:1005900052E7206ABDE8F09F08CC000040EA010362
:1005A00010B59B070FD1042A0DD310C808C9121F1C
:1005B0009C42F8D020BA19BA884201D9012010BD56
:1005C0004FF0FF3010BD1AB1D30703D0521C07E023
:1005D000002010BD10F8013B11F8014B1B1B07D187
:1005E00010F8013B11F8014B1B1B01D1921EF1D1F8
:1005F000184610BD032A40F2308010F0030C00F0C2
:10060000158011F8013BBCF1020F624498BF11F84C
:1006100001CB00F8013B38BF11F8013BA2F1040205
:1006200098BF00F801CB38BF00F8013B11F003037D
:1006300000F06780083AC0F0088051F8043B083A9F
:1006400051F804CBA0E80810F5E7121D5CBF51F883
:10065000043B40F8043BAFF30080D20724BF11F8FD
:10066000013B11F801CB48BF11F8012B24BF00F862
:10067000013B00F801CB48BF00F8012B7047431A3B
:1006800028BF9A427FF6B6AF032A1044114440F2C5
:10069000268010F0030F1EBF11F8013D521E00F816
:1006A000013D10F0030F7FF4F6AF11F0030300F0EB
:1006B0002683083AC0F00B8051F8043D083A51F8FF
:1006C00004CD40F8043D40F804CDFFF7F3BF121D00
:1006D0005CBF51F8043D40F8043DAFF30080D20701
:1006E00024BF11F8013D11F801CD48BF11F8012CCC
:1006F00024BF00F8013D00F801CD48BF00F8012CEF
:10070000704710B5203AC0F00B80B1E81850203A7D
:10071000A0E81850B1E81850A0E81850BFF4F5AFA1
:100720005FEA027C24BFB1E81850A0E8185044BF2B
:1007300018C918C0BDE810405FEA827C24BF51F898
:10074000043B40F8043B08BF7047D20728BF31F88C
:10075000023B48BF11F8012B28BF20F8023B48BFDD
:1007600000F8012B70474FF0000200B51346944685
:100770009646203922BFA0E80C50A0E80C50B1F1F9
:100780002001BFF4F7AF090728BFA0E80C5048BF0D
:100790000CC05DF804EB890028BF40F8042B08BFAB
:1007A000704748BF20F8022B11F0804F18BF00F8A7
:1007B000012B704770477047704770472DE9F0472D
:1007C0000D4699469246044600F1240801688806C1
:1007D00004D5E06921F01001216000E00120A84269
:1007E00001DD471B00E00027A1697A1902EB09002F
:1007F000081AA0612078C00602D42046FFF752FDF7
:10080000002608E0D4E901211AF806009047206A82
:10081000401C761C20624E45F4DB2078C0060AD5C9
:100820002046FFF73FFD06E0D4E901213020904744
:10083000206A401C2062381EA7F10107F4DC07E0A3
:10084000D4E9012118F805009047206A401C206275
:10085000281EA5F10105F3DC2046FFF739FD2078BD
:10086000000602D50220BDE8F0870120FBE77047B3
:100870002DE9FF4F0C461E464FF0FF378BB0D2E9F3
:100880000001DDF860800A908A46C1F30A5505B977
:100890003D46002108464FF00000BAF1000F00F479
:1008A000400005DA00EB80004FF4400101EA5000FF
:1008B0004FEA9059B9F1010F00DDB9460A9850EAA4
:1008C0004A000ED044F61050A5F2FF3545432F14D0
:1008D000B8F1000F1ED07542291E1EDDC9F10002BD
:1008E0001CE0B8F1010F4FF0000001D0302103E00F
:1008F000F24305E02154401CB042FBDB30460022AD
:10090000002121540B99C1F80880C1E900200FB0E3
:10091000BDE8F08FBD1B6D1CDEE74A4600DA694278
:1009200006A800F0B9FA06AB93E8070003AB83E82A
:10093000070050460A9900F078FC8DE80700A0F502
:1009400000501F3800900398002D09DD42F21F016E
:100950004A46084403A90390684600F0D7FE08E021
:10096000A0F500504A461F3803A90390684600F0DE
:10097000E1FE8DE807000004000C03D04FF0FF30CB
:10098000410800E01046B8F1000F03D000220092A9
:1009900015461EE0751E05D400F0E0F930326255B0
:1009A0006D1EF9D5B3460122084302D000227F1CF8
:1009B00004E02078302801D100227F1E002A099708
:1009C00086D01DE0112D07DA00F0C8F930326255EB
:1009D0006D1C50EA0102F5D1084302D00098C8B15D
:1009E0000EE00021681E05E0235C625C6354225423
:1009F000401E491C8142F7DBAB46A81B401E0990F4
:100A0000002004F80B000B98099AC0F80880C0E990
:100A1000002B7CE711264FF0000859E72DE9F04F35
:100A200088460446D21D22F0070191B0D1E90001A9
:100A3000CDE90A0107F06AFF02460B98C00F01D00A
:100A40002D2007E02068810701D52B2002E020211E
:100A500001EAC000032A099001D0072A05DB0346FA
:100A60004146204600F0D8F90BE12078800601D5F8
:100A7000E06900E00620B8F1650F814606D0B8F1C4
:100A8000660F18D0B8F1670F70D131E00020B9F1CE
:100A9000110F009001DB112301E009F101030AAA03
:100AA00001A90CA8FFF7E4FEDDE90C70002609F1AE
:100AB0000105834647E001204B4600904FF0004778
:100AC0000AAA01A90CA8FFF7D3FEDDE90DB00C9925
:100AD0005D46002610B909F101000D18B9EB0500BB
:100AE00003D4C0F1FF3609F10105A5EB09002BE0A5
:100AF000B9F1010F01DA4FF001090020B9F1110F2E
:100B00000090484601DD112300E003460AAA01A92E
:100B10000CA8FFF7ADFEDDE90C704D4600268346BC
:100B2000207800070AD4AB4500DA5D4601A8012D04
:100B300004DD411911F8011C302907D04F4502DAB4
:100B400017F1040F04DA012082460FE06D1EEEE774
:100B5000002F02DCED1B3E4403E0781CA84200DDC0
:100B60007D1CB81B00F1010A4FF0004720780007F8
:100B700003D4AA4501DB4FF0FF3A0021B7F1004F43
:100B80000DF143088DF8431024D002202B23002FB1
:100B900001DA7F422D230A21021EA0F1010000DCB0
:100BA0005FB197FBF1FC97FBF1F201FB1C7C174650
:100BB0000CF1300C08F801CDEEE7A8F1010003704C
:100BC0002188090501D5452100E06521A0F1010832
:100BD00000F8011C09980FA9A1EB0807FF1D00B13F
:100BE0000120411901EBEA70A1693844081A401E3E
:100BF000A0612078C00602D42046FFF753FB099875
:100C000028B1D4E901219047206A401C2062207855
:100C1000C00622D52046FFF745FB1EE0002E04DB70
:100C2000B34502DD01A8805D00E03020D4E9012158
:100C30009047206A401C2062761CAAF101005FEAFE
:100C4000000A0AD100F086F8C0680168405CD4E967
:100C500001219047206A401C2062281EA5F1010551
:100C6000DCDC07E0D4E9012118F8010B9047206A89
:100C7000401C2062381EA7F10107F3DC2046FFF775
:100C800027FB032011B043E610B5436913B1AFF35E
:100C9000008001E0FFF72DFB012010BD127800F16C
:100CA00024010A7000224A700122EDE711684FF01A
:100CB000FF32E9E7074B70B50D467B4400F099F829
:100CC0000446284600F056F910B14FF0FF3070BDD1
:100CD000204670BD4F880000431A28BF9A427FF615
:100CE00010AD104410F0030F11441EBF11F8013D68
:100CF000521E00F8013D10F0030F7FF4F6AF103ADA
:100D0000C0F00A8010B531E91850103A20E91850A7
:100D1000BFF4F9AFBDE81040530724BF31E9081014
:100D200020E9081044BF51F8043D40F8043D12F09A
:100D3000030F08BF7047D20728BF31F8023D48BFF4
:100D400011F8012C28BF20F8023D48BF00F8012C03
:100D500070470000004870470042002030B5B0F1F5
:100D60000A024FEA900E71F100034EEA817EB0EB69
:100D70000E0061EB91014FEA101E4EEA017E10EB6E
:100D80000E0041EB11114FEA102E4EEA016E10EBEE
:100D90000E0041EB11214FEA104E4EEA014E10EBCE
:100DA0000E0041EB1141401841F100014FEAD00023
:100DB00040EA41704FEAD10110EB80054FEA81040F
:100DC00044EA907444EB01046D1944EB0404521B93
:100DD000A3414FF0000348BF0A3200D530BD401C8C
:100DE00041F1000130BD000001694A1C0261087830
:100DF000704700B58FB0CDE901310021059105495B
:100E00007944CDE9031011466846FFF703FB0FB0A4
:100E100000BD0000E5FFFFFF2DE9F0411F4604463D
:100E200003260168072A01F4006004DB08B116A557
:100E300005E016A503E008B115A500E015A521F011
:100E400010002060A069C01EA0610FB1401EA0610B
:100E50002046FFF727FA4FB1D4E9012138469047E1
:100E6000206A401C2062C01C206206E0206AFAE76B
:100E7000D4E9012115F8010B9047761EF8D22046DF
:100E8000FFF726FABDE8F0814E414E006E616E001C
:100E9000494E4600696E66002DE9F04781461646C8
:100EA0008AB0334878440DC88DE80D003048784446
:100EB000801C03AC0DC884E80D0041F69B3008444B
:100EC000372190FBF1F290FBF1F5A5F1800501FBD4
:100ED00012041B3C02D56442012000E00020DFF830
:100EE00090A080460027FA44AAF1BE0A0DE0E00770
:100EF00009D03246684607EB47010AEB810100F052
:100F000019FC8DE8070064107F1C002CEFD1184FEE
:100F10007F44AC3F18E0E80714D007EB04100DF154
:100F2000180A90E80E008AE80E00C068F04201D16D
:100F300098190890324606A903A800F0FBFB03AB02
:100F400083E807006D10641C002DE4D13246694629
:100F5000B8F1000F03A802D000F0D8FB01E000F0C8
:100F6000E9FBC9E90001C9F808200AB0BDE8F0872B
:100F700018C20000007B00F08000704700487047F6
:100F8000E04100207546FFF7F9FFAE4605006946CF
:100F9000534620F00700854618B020B5FFF762F9E8
:100FA000BDE820404FF000064FF000074FF000086A
:100FB0004FF0000B21F00701AC46ACE8C009ACE8EB
:100FC000C009ACE8C009ACE8C0098D4670470446CA
:100FD000AFF300802046FFF72FF900004FF0013CEF
:100FE00050F8042B51F8043B9A4221D1A2EB0C0398
:100FF000934313EACC1317D150F8042B51F8043B58
:101000009A4215D1A2EB0C03934313EACC130BD1F4
:1010100050F8042B51F8043B9A4209D1A2EB0C037F
:10102000934313EACC13DBD04FF00000704700BFAE
:10103000D01A01BAB1FA81F101F0180122FA01F0D7
:10104000CB40C1F12001DBB2C0B2C01A2CFA01F3CF
:10105000D11A914311EAC311E6D170470246C91C67
:1010600021F00301D2E900031B1A8B4201D20020B8
:1010700070470144C91D21F00701116070472DE937
:10108000F34F83B000274FF48074BA4603A821467B
:101090008DF80070FFF7E2FF5FEA000801D100F071
:1010A00076F82146404607F074FC060009D04FF060
:1010B000010B4546C14616F8014B8FB15C2C16D08A
:1010C0001CE008F108004146C8F800000020C8F8FC
:1010D0000400D8F800402070012005B0BDE8F08F72
:1010E000222C01D0272C0FD12746BA462CE030788D
:1010F000222807D05C2805D0272803D0BC4203D182
:10110000002721E0761C04464CB12FB9202C06D0D4
:10111000A4F10900042802D905F8014BCBE74D459D
:1011200002D1BAF1000F0FD052464946002005F80F
:10113000010B6846AFF300809DF8000070B14D468A
:101140004FF0000A0BF1010B002CB4D14FEA8B01D8
:1011500003A8FFF783FF040002D004E0A946EFE7ED
:10116000002000F014F800204246C4F8008005E09A
:1011700012F8011B11B9401C44F82020AA42F7D3F1
:10118000002144F820102146A7E77047704710B5AA
:1011900000F00AF8BDE81040AFF30080002801D04D
:1011A00007F0F8BB7047000010B5012805D00021FA
:1011B00003A000F021F8012010BD09A1F8E700000C
:1011C00053494752544D454D3A204F7574206F6630
:1011D0002068656170206D656D6F72790000000098
:1011E0003A2048656170206D656D6F727920636F7C
:1011F000727275707465640070B505460C460A20FD
:1012000000E06D1C07F0C7FB35B128780028F8D145
:1012100002E0641C07F0BFFB14B120780028F8D16D
:10122000BDE870400A2007F0B6BB5FEA400C08BF7B
:1012300091F0000F4FEA8C234FEAC12243EA51514B
:101240004FEA1C5018BF00F5F0404FEA300018BFBD
:1012500041F000415FEA6C5C00F02980BCF1FF3F87
:1012600008BF40F080407047130C06BF12044FF0D7
:10127000100C4FF0000C130E04BF12020CF1080CFE
:10128000130F04BF12010CF1040C930F04BF920062
:101290000CF1020CD30F04BF52000CF1010C1146EB
:1012A0004FF00002A0F11F00A0EB0C00704711F0FE
:1012B000004F08BF704731F000413FF4D5AF0B0C31
:1012C00006BF09044FF0100C4FF0000C0B0E04BFCA
:1012D00009020CF1080C0B0F04BF09010CF1040CFE
:1012E0008B0F04BF89000CF1020CCB0F04BF490027
:1012F0000CF1010CCCF12003A0EB0C0022FA03F35B
:1013000002FA0CF241EA030100F10100704720F0FB
:101310007F4C80EA030023F07F47ACEB070303F523
:101320007C5300F0004003F1FF032DE980494FEAB0
:10133000154B09B44FEA144325EA0B4E24EA03483F
:101340000FF2042606EB132749083E785FEA3202C3
:1013500003FB0667C7F5000707FB06F64FEA54379D
:101360004FEAD64606F1020607FB066CCCF1005C9C
:101370004FEA1C472CEA074C07FB06F40CFB06F56A
:1013800004EB15464FEA961634BF00204FF000409C
:101390004FEAD13706FB07FC4FEA1C4C0CFB0BF75E
:1013A000D21B03FB0CF761EB07010CFB0EF7B0EB54
:1013B000074072EB17420CFB08F734BFA2EB074261
:1013C000B2EB074261EB17414FEA0C444FEA910739
:1013D00006FB07FC4FEA1C4C0CFB0BF7B0EBC740BD
:1013E00072EB573203FB0CF734BFA2EBC742B2EBF0
:1013F000C74261EB57310CFB0EF7B0EBC70072EB45
:1014000057720CFB08F734BFA2EBC702B2EBC7025E
:1014100061EB5771039F4FEA816141EA921104EB3E
:10142000CC044FEAD1374FEA826206FB07FC42EA5E
:1014300090124FEA80604FEA1C4C0CFB0BF7D21B5A
:1014400003FB0CF761EB07010CFB0EF7B0EB074059
:1014500072EB17420CFB08F734BFA2EB0742B2EB6A
:10146000074261EB17414FEA8C554FEA910704EBB5
:101470009C2406FB07FC4FEA1C4C0CFB0BF7B0EB63
:10148000C74072EB573203FB0CF734BFA2EBC742E5
:10149000B2EBC74261EB57310CFB0EF7B0EBC70064
:1014A00072EB57720CFB08F734BFA2EBC702B2EB2A
:1014B000C70261EB577115EB4C254FEA816141EA98
:1014C00092114FEA82624FEAD13742EA901206FB4C
:1014D00007FC44F100044FEA80604FEA1C4C0CFB0F
:1014E0000BF7D21B03FB0CF761EB07010CFB0EF7AC
:1014F000B0EB074072EB17420CFB08F734BFA2EBCE
:101500000742B2EB074261EB174115EB1C154FEA9E
:10151000813141EA92414FEA823242EA90424FEAF7
:1015200080304FEA0C7644F1000448EA03434EEA67
:101530000B484FF0000EB2EB080C71EB030724BF11
:10154000624639464EEB0E0E4FF0000B001852412A
:1015500049414BEB0B0BB2EB080C71EB03077BF132
:10156000000B24BF624639464EEB0E0E4FF0000BC7
:101570000018524149414BEB0B0BB2EB080C71EBDD
:1015800003077BF1000B24BF624639464EEB0E0E7B
:1015900051EA020718BF46F0010616EB0E7655F128
:1015A000000254F1000103D5BDE88901BDE80088BF
:1015B000BDE88901BDE80048B619524141EB01017F
:1015C000A3F10103704780807F7E7D7C7B7A7978F0
:1015D000777676757473727171706F6E6E6D6C6CF8
:1015E0006B6A6A696868676666656464636362619A
:1015F0006160605F5F5E5E5D5D5C5C5B5B5A5A591B
:101600005958585757565655555554545353525286
:101610005251515050504F4F4F4E4E4D4D4D4C4CDE
:101620004C4B4B4B4A4A4A49494948484847474727
:101630004746464645454544444444434343434264
:10164000424242414141002B26D4770021D01CB5B3
:101650004FEA370703B44FF010004FF010014FF07E
:1016600000000FBCBDE810400BF1010BBBF1010FF6
:1016700008BF5FEA170722BF12F1010211F1010151
:101680004FF0004143F1000300F0004043EA000046
:101690007047F9D35708DAE746EA064613F1400FD8
:1016A0004FEA16461FDD13F1200FDFBF16430A462F
:1016B000002120335B42C8D0C3F1200746EA06462A
:1016C00002FA07F74FEA164646EA0706C3F1200773
:1016D00022FA03F201FA07F721FA03F14FF00003AF
:1016E00042EA0702B1E746EA020646EA06464FEA40
:1016F000164646EA0106BCBF46EA0646360C4FF0DF
:1017000000034FF000024FF000019EE72DE9C048B2
:10171000934630B491E8380007C831EA400C48BF1E
:1017200034EA430C03D5FFF7F2FDFFF78CFFF0BC62
:10173000BDE800882DE9C048934630B491E83800F0
:1017400007C810F0804F08BF13F0804F03D100F09E
:1017500005F8FFF778FFF0BCBDE8008820F07F4770
:1017600080EA030023F07F4C07EB0C03A3F57C53C6
:1017700000F00040A3F1FE0392F0000F00F0B380F0
:1017800095F0000F00F077802DE901494FEA1140F4
:101790004FEA144621EA004800FB06FC24EA06470B
:1017A00008FB06F607FB08F800FB07F718EB0648EE
:1017B0004CEB164C4FEA124B18EB07484FEA154614
:1017C0004CEB174022EA0B4E0BFB06FC25EA0647C2
:1017D0000EFB06F607FB0EFE0BFB07F71EEB064E95
:1017E0004CEB164C4FF000061EEB074E4CEB174B24
:1017F00018EB0B0840F1000018EB0E0B58EB00083B
:1018000040F100008F1A4FF000013CBFC943661B36
:1018100014BFB5EB040C00213CBFC943F61B4FEAD3
:1018200017444EEA8E0E27EA04454FEA1C4704FB94
:1018300007622CEA074C05FB07F70CFB05F604FBD7
:101840000CFC16EB074642EB174216EB0C4642EB3C
:101850001C421BEB060658EB0202414146EA9E067B
:1018600001D5BDE80189B619524141EB0101A3F14F
:101870000103BDE801894FEA14454FEA114724EA04
:10188000054621EA074C05FB07F406FB07F70CFBAE
:1018900006F105FB0CFC11EB074144EB17444FEA42
:1018A000124711EB0C4144EB1C4422EA074C05FBA8
:1018B00007F206FB07F70CFB06F605FB0CFC16EB24
:1018C000074642EB174216EB0C4642EB1C456A18E2
:1018D00054F1000148BF7047B619524141EB010174
:1018E000A3F10103704795F0000F37D04FEA114282
:1018F0004FEA144721EA024624EA074C02FB07F1AB
:1019000006FB07F70CFB06F402FB0CFC14EB074488
:1019100041EB17414FEA154714EB0C4441EB1C41D6
:1019200025EA074C02FB07F506FB07F70CFB06F65A
:1019300002FB0CFC16EB074645EB174516EB0C4675
:1019400045EB1C42121951F1000148BF7047B6190E
:10195000524141EB0101A3F1010370474FEA1445E5
:101960004FEA114724EA054621EA074C05FB07F137
:1019700006FB07F70CFB06F24FF0000605FB0CFC1C
:1019800012EB074241EB174112EB0C4251EB1C41A9
:1019900048BF7047921841EB0101A3F10103704762
:1019A00070B44FF0C0444FF02A0CA4F800C0C0F34C
:1019B0000F2C4FEA5C354FEADC362CF4204C4CEA15
:1019C000463C4CEAC535DFF8A4C0ACF80050C0B2C4
:1019D000450BC60B40EA463040EAC530ACF8000083
:1019E000C1F30F20450BC60B20F4204040EA4630DF
:1019F00040EAC530ACF80000C8B2410BC50B40EA64
:101A0000453040EAC130ACF800002B202080C2F302
:101A10000F20410BC50B20F4204040EA453040EA3E
:101A2000C130ACF80000D0B2410BC20B40EA4230EA
:101A300040EAC130ACF80000C3F30F20410BC20BE9
:101A400020F4204040EA423040EAC130ACF80000C7
:101A5000D8B2410BC20B40EA423040EAC130ACF888
:101A600000002C20208070BC704700000000026045
:101A7000FEE7704710B50B4614461A460146FFF7BD
:101A80008FFFA0B2410BC20B20F4204040EA42304D
:101A900040EAC1300149088010BD0000000002602A
:101AA0008000A0F1C0400029016812BF41F001018F
:101AB000014A114001607047FEFF0F00D0E901129A
:101AC0001143D0E903231A43114342691143826948
:101AD0001143C2691143026A1143426A1143826A87
:101AE0001143C26A1143026B0A4301688900A1F1E4
:101AF000C0410A608168082907D101688900A1F105
:101B0000C0410A6842F040020A60416BD1E90023FB
:101B100042EA03128B68B1F80CC01B0243EA0C4383
:101B20001A430B8A42EA03520B7D896942EA036237
:101B3000114302689200A2F1C0425160C16AB1F53E
:101B4000804F08D000686FF070418000A0F1C04065
:101B5000C0F804117047816BD1E9002342EA0312F7
:101B60008B68B1F810C01B0243EA0C531A430B7D7B
:101B7000896942EA0362006811438000A0F1C04015
:101B8000C0F80411704700002DE9F003CB7803F092
:101B90000F0213F0100F1CBF8B781A430B784FF015
:101BA0000F0713F0FF0F4FF001081FD00468002348
:101BB0005FF008050E8808FA03FC3CEA060611D11E
:101BC0009E0007FA06F924EA090402FA06F63443ED
:101BD000CE78282E08BFC0F814C003D0482E08BF06
:101BE000C0F810C05B1C6D1EE4D104600B88FF2B95
:101BF0009CBFBDE8F003704744684FF0000C082517
:101C00000CF108030E8808FA03F333EA060607D03E
:101C10006D1E0CF1010CF3D14460BDE8F003704778
:101C20004FEA8C0607FA06F924EA090402FA06F6D6
:101C30003443CE78282E08BF4361CE78482E08BFA3
:101C40000361E5E741617047016170472DE9F04F9D
:101C5000DFF828B191B04FF0FF35DBF80030B3F971
:101C600022100691DE69B3F924A0F469A1898142AA
:101C700006D8E289824203D3471AD4F8008012E0E2
:101C8000D4E90181002970D00A8882426DD84D883C
:101C900085426AD3801A82B2486800EB8200B0F9AC
:101CA0000070B0F90250781C5FD0307EA27C0146F3
:101CB00000FB02F9207CCDE90710B3F92A60304619
:101CC00002F026F8C0B20E90DBF8001007FB098086
:101CD000A37C8A6B0127CDE90402CDE90273C869B0
:101CE000089AC17E807ECDE90001DDE906035146F8
:101CF00001F0BAFC681C18D046F0020002F008F8A7
:101D0000DBF80000A37C05FB0981826BCDE902733F
:101D1000CDE90412C069089AC17E807ECDE9000138
:101D2000DDE90603514601F09FFCDBF800005D464B
:101D3000C069417E007E814214D9022E12D086F005
:101D4000040001F0E5FF2868C069027EC37E857E3D
:101D500002FB03A1437E089A0698534402FB050246
:101D600001F0E4FD0E9801F0D3FFDBF80000627C87
:101D7000418C1144418411B0BDE8F08FC4000020B3
:101D800004480068C069C06909B1027C0A60407CEF
:101D900070470000C4000020022008807047C0691E
:101DA00082898A4202D8C2898A4210D2806880B170
:101DB00002888A420DD843888B420AD3406800EBE0
:101DC0008100A0EB8200B0F90000002801DB0120B7
:101DD00070470020704700002DE9F0432F4C034668
:101DE00087B020681946B0F92A80C069C06900F040
:101DF00082F800284ED041680088181A01EBC0050F
:101E00004046AE7801F084FF814620686A6801236D
:101E1000816BCDE90236CDE90421C169CB7E8A7E92
:101E2000CDE900230B7EB0F924102A78B0F9220006
:101E300001F01AFC2068C069477E067EB7421DD9B2
:101E4000C07E47434643B8F1020F17D000F0B6FCFE
:101E5000804600F081FC00F024FF21682A78CB69DD
:101E6000B1F92200B1F92410DB7E02FB0302CB1989
:101E7000314401F05BFD404600F013FF484601F09D
:101E800047FF20686A78C369B0F922109B7E02FB85
:101E90000311418407B0BDE8F0830000C4000020B6
:101EA00030B50E4C05460B4620682946C069C0690E
:101EB00000F021F8002810D04168008824682A1A10
:101EC0000120E46900EBC200085CA47E6043002BA3
:101ED00003D011F832106143196030BDC4000020F6
:101EE00001200880704700B5C06900F004F80028A0
:101EF00000D0012000BD06E002888A4202D8428854
:101F00008A4202D280680028F6D170472DE9F0415C
:101F10000025154E154C18E02069C5EB051700EBA0
:101F2000C7007022001D3168FEF7EBFB206900211D
:101F300040F8371000EBC70000F10C018161011D72
:101F40000A1DC0E90F126D1C4164A0688542E3DBE5
:101F500005F056FA2169C0EB001001EBC000001D2E
:101F60003060BDE8F0810000C4000020480100207E
:101F700070B50F490D480860084601F0B5FA0C4CE1
:101F8000143CA068C0EB0010C500284600F06AF8B9
:101F90002A460021206101F0AFFA4FF0FF302060A7
:101FA00001F05EF8BDE8704005F02ABAE976000855
:101FB0005C01002010B5040009D000F0A7FC204609
:101FC00003F046FD044601F02FF8204610BD002026
:101FD00010BD38B5054600F099FC2846FFF7EAFF2A
:101FE000040009D000F0B6F82A460021009001F064
:101FF00083FA684600F0CAF801F016F8204638BDAA
:10200000024A106021F0030050607047F43F002046
:1020100010B5040016D000F079FC0B48406B10F8A6
:10202000341059B1022909D2042101EBC4014158ED
:10203000486803F0C5FC204605F0D6FBBDE810401B
:1020400000F0F2BF10BD0000343F0020002805D092
:10205000034AD16B016001B14860D0637047000052
:10206000343F00202DE9F041044605F091FA28485C
:10207000E41C24F00305016C2D1DA94200D90D4676
:10208000C46B13E054F8042CAA420ED184B1216829
:1020900009B162684A60616809B122680A60C26B6E
:1020A000A24231D12168C1632EE02468002CE9D11D
:1020B0008046816BC0680F1857F8040C3E1A3068D0
:1020C00038B1002005F0CCFB57F8040C3E1A3068FC
:1020D000D0B97068A84217DB3044441B3046241D39
:1020E00005F0A4FBD8F80C10491BC8F80C10D8F860
:1020F00014102944C8F814107068401B02D03146EF
:1021000003F05EFC44F8045C2046BDE8F08100006A
:10211000343F002010B5002405F03AFA0C490F2096
:1021200001EBC002526C1AB101EBC000406C08E038
:10213000401EF5D508E04168A14200D90C468068F0
:1021400010B180680028F6D1A4F10C0010BD000089
:10215000343F00200549CA69521CCA61496B01EB32
:10216000C0010A78521C0A7000F028B8343F0020E1
:102170000549102805D94A68B0EB520F02D3500820
:1021800000E0102088607047F43F00200A49026890
:102190004B6B52F8082C03EBC2021378022B03D3CB
:1021A000CB690BB15B1ECB611178491E1170002108
:1021B0000160084670470000343F0020002806D028
:1021C0000349042202EBC000496B085808307047ED
:1021D000343F0020F0B52D271C68B0F1004F08D027
:1021E000002600280DDA651C1D602770404201247E
:1021F00008E0651C01261D606FF000402770491E35
:1022000001E00024091BC9B22AB3491EC9B222E069
:102210000C46491EC9B2944205D1124C27781C685D
:10222000651C1D602770104C54F8215090FBF5F48C
:10223000E4B20A2C11D804FB150011B90EB1641CCC
:10224000E4B20A2C02D10124491CC9B21D686F1CDA
:1022500030341F602C700029DAD119680020087012
:10226000F0BD0000B80000208CC7000810B50028A1
:1022700007DD0A682B24531C0B60147009680022C8
:102280000A7010BD70B514460D46064600F03EFBC0
:10229000204600F09FFA0300174804EB840109D0A0
:1022A00050F8210041688068711A2A1A184600F017
:1022B00013FD1CE000EB8104A268B24201D00122B0
:1022C00000E00022E368AB4201D0012300E00023DC
:1022D0001A430CD0236943B150F82100816840684B
:1022E0006A1A311A184600F097FCC4E90265BDE885
:1022F000704000F099BE0000A041002010B5C2B2AD
:10230000CBB2D21A00D5524293B25B43C0F307223C
:10231000C1F30724121B00D55242000C92B2A0EB6D
:10232000114002FB023200B2002801DA404200B242
:1023300080B200FB002010BD10B50021084600F05F
:10234000A3FA43F6FF725042BDE81040134601461F
:10235000AFF300802DE9FC411C4615460E460746AA
:1023600000F0D4FA042001F0D3FC80461248C06883
:10237000C16C006D0F4406440D440444ADF8007078
:10238000ADF80450ADF80260ADF80640684603F0C1
:1023900099F807E023462A463146384601F0C6FA46
:1023A00003F052F80028F5D1404601F0B1FC00F0EE
:1023B0003BFEBDE8FC810000B80000202DE9F041A3
:1023C0001C4616460D460746022B02DB0020BDE8E0
:1023D000F0811C20FFF746FE0028F8D00DB1056102
:1023E0000AE0094A52F8241009B905E011460A68C2
:1023F000002AFBD1096901618461868200210160A4
:102400004160C0E90217E2E7E400002070B51D4614
:10241000FFF7D4FF040009D000F00EF8E068006870
:1024200020B90348006800EB85008465204670BD34
:10243000C4000020FFF70ABE70B590B38269022A7B
:1024400030DA1E4C54F8221019B944F8220032E058
:1024500019464B68002BFBD106E0CB68C5681B68AA
:102460002D68AB4203DD09680029F6D11AE0C1B13D
:10247000CB68C6681B683668B3420CD1838A012BCF
:1024800005D008E01946DB681B68AB4203DB0B682C
:10249000002BF7D129B14B6833B118604A6842600C
:1024A00004E0FFE7012070BD44F822004860884244
:1024B00000D100210160002070BD0000E400002078
:1024C00010B503E00468FFF7B7FF20460028F9D1F4
:1024D00010BD000010B50B4B8169002253F821405C
:1024E000844204D1046843F8214001684A6041688D
:1024F00009B103680B60016809B143684B60026071
:10250000426010BDE400002000207047022801DB7B
:1025100000207047054951F8200004E0C1680968AF
:102520000029F6D000680028F8D17047E4000020A8
:102530001FB503ABCDF80CD0FFF74CFE684600F09A
:1025400019F81FBD002203F011BC7FB50C461546DB
:10255000CDF80CD003A9FFF789FE002801DD641E29
:10256000E4B203AB2A462146FFF734FE684600F08A
:1025700001F87FBD2DE9FC4706005FD000F0C6F9E9
:1025800000F032F93C4C81462068B0F9228000F01E
:102590004DF9216807468A8CD01B888441E000BF32
:1025A00047F6FF71304600F08FFE82460146304606
:1025B00000F060FE2168054691F82C0000F0030051
:1025C000012841D002283BD000204A8C101A4884B0
:1025D000ADF800006A1E1044ADF80400888CADF818
:1025E0000200A9F101010844ADF806006A4651460F
:1025F000304600F0E7FD2168BDF8020088845146AE
:10260000304600F0D3FC064430780A281ED00D284E
:102610001CD0BDF80000216828444884307818B1E7
:10262000761C30780028BBD12068818C39448184A5
:10263000818D21F00301818500F0F6FCBDE8FC8767
:1026400005EBD5704010C0E72846BEE7206890F83B
:102650002C1001F0030101290BD0022909D0018CB3
:10266000418431780A29D9D1828C02EB0901818415
:10267000D4E7A0F82280F4E7C400002070B5144627
:102680000D46064600F042F90548006845848484FA
:102690003046FFF76FFFBDE8704000F0C5BC00009A
:1026A000C400002008B50B46002805D000928188A0
:1026B0008268C08800F001F808BD10B50828029CA7
:1026C00030D008DC04FB01F401280AD0022813D022
:1026D000042804D11CE0102828D020282CD0002069
:1026E00010BD04EBD30003F00701105CC1F107013A
:1026F000C84000F0010010BD04EB93000621105CFF
:1027000001EA4301C1F10601C84000F0030010BD19
:1027100004EB5300D907105C02D000F00F0010BD8D
:10272000000910BD04FB0130105C10BD481004FB13
:10273000003032F8100010BD881004FB003052F851
:10274000200010BD034951F82000C1688A6A0821A1
:1027500010470000E400002010B500F0D7F801F0A9
:1027600015F901F0A3F9044600F05EFC204610BD07
:1027700010B5044600F0CAF8054800210068C06999
:10278000426820469047044600F04EFC204610BDAB
:10279000C400002070B50C46054600F0B7F80648A6
:1027A00021460068C069426828469047044600F008
:1027B0003BFC204670BD0000C400002010B500F0B6
:1027C000A5F801F0EBF801F071F9044600F02CFCDB
:1027D000204610BD0021022802D2024951F82010E3
:1027E000084670474002002010B500F08FF80448FA
:1027F0000068C069447E00F017FC204610BD000050
:10280000C400002070B515460E46044600F07EF860
:102810002A463146204601F0F5F8040002D0002097
:102820003060286000F000FC204670BD10B5002428
:1028300000F06CF80B48006890F82C1001F00C01C7
:10284000042904D0082906D00C2907D103E0C06967
:10285000047E641E02E0C069007E440800F0E4FBD0
:10286000204610BDC4000020024951F82000006934
:1028700000687047E4000020024951F82000006918
:1028800040687047E400002070B50D46044600F033
:102890003DF8204604F0D2FD0446284604F0D6FD5B
:1028A000044300F0C1FB204670BD000070B500F08D
:1028B0006DFC144D2E20287000F0D1FB124804F05E
:1028C0002FFE01F017F9064601F0B2F810B101F041
:1028D000BBF838B901F0C1F8044601F0B2F821465E
:1028E00001F010FA0021084600F006FA02F0EAFBB7
:1028F000FFF70CFB286900B1804701206870304663
:1029000070BD0000B80000200040002070B5184CD9
:10291000E06820B100F0A1FB6168884204D000F0BB
:10292000A0FB00F09AFB6060E068401CE0600128BA
:102930001CD104F065FD05462068854216D00028AC
:1029400013DBFFF7E1FD01462068C0EB00122069B0
:1029500000EBC2025167C5EB0511064A00EBC1004E
:10296000011D1160406FFFF7ABFD256070BD0000D9
:1029700048010020C400002010B5011E01DD024600
:1029800000E04A42064B012053F82040944202D80E
:10299000401C0A28F8DB002900DA401C10BD0000AA
:1029A0008CC7000838B504001CD0FFF7AFFF0E48F5
:1029B0000068006EA04201D100F03FF92046FFF709
:1029C000C9FB0090406908B100F018FB009800684E
:1029D000FFF730FD6846FFF7D9FB2046FFF718FBED
:1029E00000F022FB38BD0000C400002038B505000F
:1029F0004FF0000411D0FFF789FF2846FFF7AAFB2C
:102A00000090006800698068804701F021FB04465F
:102A10006846FFF7BBFB00F007FB204638BD38B522
:102A200004000ED0FFF772FF2046FFF793FB00F182
:102A3000180400906846FFF7A9FB00F0F5FA20465D
:102A400038BD002038BD0000F8B50546FFF75EFF31
:102A5000104E3068046ECDB10CB100F0EEF802F00B
:102A600007F92846FFF776FB009031680D6600688D
:102A7000FFF7E2FC6846FFF789FB01F0A7F901F0D8
:102A800021F900BF00F0D0FA2046F8BD00F0D5F8DB
:102A9000F8E70000C4000020F8B516460F46050010
:102AA00012D0FFF757FB009044696846FFF76EFBB2
:102AB0002846FFF79BFF0346082800DD2CB132466D
:102AC0003946284605F082FBF8BD3246394628468D
:102AD00005F01CFDF8BD10B5002821D009B30AB3DC
:102AE000B1F90040B2F900309C4200DA234603807D
:102AF000B1F90240B2F902309C4200DA2346438029
:102B0000B1F90440B2F904309C4200DD23468380D1
:102B1000B1F90610B2F90620914200DC1146C180DD
:102B200010BD11460A6802604968416010BD002866
:102B30000BD003880B44038083881944818041882B
:102B400011444180C1881144C180704770B50E4D59
:102B50000446D5E90001884209D10C49884201D1D7
:102B60003C3000E00C3807C884E8070006E090E835
:102B70000E0084E80E0004F071FC2860207A002822
:102B800000D0012070BD00002C0200201041002068
:102B90000448D0E90010814201D101207047002093
:102BA000704700002C02002010B50949044608684F
:102BB00020B908480860084600F096FC0749064816
:102BC0000860204605F052FABDE8104000F0B4B8A5
:102BD0003802002095770008394D0008EC000020ED
:102BE000B0F90220B1F906309A4213DCB1F90220A3
:102BF000B0F906309A420DDCB0F90020B1F904308A
:102C00009A4207DCB1F90010B0F90400814201DCFE
:102C1000012070470020704770B515460E4604002D
:102C20000AD0FFF773FE2A463146204604F08AFF99
:102C3000BDE8704000F0F8B970BD10B5FFF766FE52
:102C400000F0F6FF01F0C2F801F01EFFBDE81040F1
:102C500000F0EAB970B50B4D04462868467CFFF7D2
:102C600055FE022C09D22046FFF750FC28B12868F7
:102C70004474FFF7E2FF0448046000F0D5F93046E1
:102C800070BD0000C4000020A401002010B504465F
:102C9000FFF73CFE204600F0EBFFBDE8104000F0DF
:102CA000C3B910B50446FFF731FE204601F018F80D
:102CB000BDE8104000F0B8B970B50446FFF726FE35
:102CC00004480068C56904B1C46100F0ADF9284644
:102CD00070BD0000C400002070B514460D460646C5
:102CE000FFF714FE22462946304601F02DF804462F
:102CF00000F09AF9204670BD70B50C460546FFF706
:102D000005FE0948224605800848048008480068F6
:102D1000417C084850F82100C1680B6A2946984751
:102D2000BDE8704000F080B9FC000020FE000020EB
:102D3000C4000020E400002002480068002800D001
:102D4000004770474802002002498A6802B988603B
:102D5000FFF7F2BF1C02002070B5174C06460D4667
:102D60003268E16801208A421EDB296823699942A2
:102D70001ADB63699A4217DCA269914214DC294686
:102D8000304600F099F800280ED133680022002B5D
:102D900001DA326004E061688B4201DB491E316078
:102DA0002B68002B01DA2A6070BDA1688B42FBDB27
:102DB000491E296070BD00006801002070B5254CD7
:102DC00086B06078F8B100F0C7F8E06000F0C2F8B3
:102DD000E06803902069049000F03EF88DF8090047
:102DE00004A903A8FFF7B8FF0025B0B1A07870B31D
:102DF00060680090A06801908DF80850684600F067
:102E000031F8A57023E000F0B1F8206100F0A3F8DC
:102E10006078401C607006B070BD039A6068111A3B
:102E200000D54942049BA068181A00D54042A678F4
:102E300016B1084402280ADD62600092A3600126F0
:102E400001938DF80860684600F00CF8A670657074
:102E5000E1E70000000100200148407A70470000CF
:102E6000944000203EB504460C221149FDF796FB24
:102E7000002813D00F480E4D026882B194E80B0071
:102E80008DE80B00684601A990479DE80E0085E893
:102E90000E00002802D16846FFF786FE3EBD2046A0
:102EA000FFF782FE94E8070085E807003EBD0000BA
:102EB00070400020640100202DE9F04705462248BB
:102EC0000E460068E0B3D5F80080306807F0DAFFFE
:102ED0001E4C8146616808F001F80746404607F03D
:102EE000D1FF8046216807F0F9FF394607F02CFF33
:102EF000A16807F029FF07F0FBFE154F00223B46B3
:102F000007F0BEFA07F0C8FC28604846216907F0C0
:102F1000E5FF05464046E16807F0E0FF294607F077
:102F200013FF616907F010FF07F0E2FE00223B4645
:102F300007F0A6FA07F0B0FC30600020BDE8F0878B
:102F4000FFE70120FAE70000680100207C40002034
:102F50000000E03F704770470348D0F804010028A4
:102F600018BF002070470000008021420348D0F8BD
:102F70000401002818BF0020704700000080214293
:102F80002DE9F041084E044605683068016828467E
:102F900088470746306841682846884728442060AB
:102FA0003846BDE8F0810000CC0000202DE9F0415A
:102FB0000C4606460025064F05E038684168304655
:102FC000884706440544641EF7D22846BDE8F081D0
:102FD000CC0000202DE9F0411E46069C174688468D
:102FE00005463A46A8687F1C3346D0F804C04146DF
:102FF0002846E047641EF4D1BDE8F08138B50546A7
:10300000FFF784FC2846FFF7A5F800908189491E48
:103010000CB284816846FFF7B9F814B92846FEF768
:10302000F7FF00F001F838BD0348C168491EC160D0
:1030300001D100F017B870474801002010B54FF4D7
:1030400070510448FEF7DCFFBDE810408020FFF718
:103050008FB800003403002070470020704770478D
:10306000704770477047000010B5082A0EDC034611
:10307000012A18D0022A56D0042A76D010F8042B40
:1030800003F8012B491EF9D1012010BD102A08DCDC
:103090004FEA000230F8043B22F8023B491EF9D106
:1030A000F2E7002010BD10F8042BD207120E491EC3
:1030B00034D010F8044B491E04F0010442EA841293
:1030C0002CD010F8044B491E04F0010442EA4412CB
:1030D00024D010F8044B491E04F0010442EA041203
:1030E0001CD010F8044B491E04F0010442EAC4024B
:1030F00014D010F8044B491E04F0010442EA840283
:103100000CD010F8044B491E04F0010442EA4402BA
:1031100004D010F8044B04F00104224303F8012BFF
:103120000029C0D1B0E710F8042B9207120E491EF7
:1031300015D010F8044B491E04F0030442EA0412AF
:103140000DD010F8044B491E04F0030442EA840237
:1031500005D010F8044B04F003042243491E03F881
:10316000012B0029DFD18FE7FFE710F8042B1207AE
:10317000120E491E05D010F8044B04F00F04224330
:10318000491E03F8012B0029EFD17DE70B4810B54C
:10319000016A002910D101210162FFF74FFFFEF7FC
:1031A000E7FE00F025FE0549054824310860BDE82A
:1031B0001040084600F098B910BD0000B80000208B
:1031C000BD7600087CB5064628480D46006868B103
:1031D000002002F077F906E06A462946304602F000
:1031E00031FE02F031F90028F6D17CBD1068009064
:1031F0001F4C506801902268BDF8000032F84C1F47
:103200000844ADF80000BDF8020091880844ADF80C
:103210000200BDF8040011880844ADF80400BDF8B0
:10322000060091880844ADF80600684602F04AF9A5
:103230000EE000BF2068BDF800106A464184BDF86A
:10324000021081842946304602F0FCFD02F0FCF8B1
:103250000028EFD1206830F8221F428D891A0180A2
:103260004188C28D891A41807CBD0000F800002091
:10327000C400002073B5124A01A900981268904753
:1032800000240090C8B10F4900250968C96949693F
:1032900059B10A684AB1019990477CBD6846FFF769
:1032A0006FFE0546FFF764FA04440198401E019042
:1032B000F4D5284600F024F8044420467CBD0000E4
:1032C00018020020C400002073B50D4600980024A9
:1032D00090B10A490968C969496959B14A684AB14E
:1032E000294690477CBD6846FFF74AFE20B10A2870
:1032F00002D0641CAC42F6DB20467CBDC40000203A
:1033000038B5002469460094FFF744FA00998142D9
:1033100000DD0C1A204638BDB0F90030B1F90020AC
:10332000934200DA0280B0F90230B1F902209342F0
:1033300000DA4280B0F90430B1F90420934200DD94
:103340008280B0F90620B1F906108A4200DDC18002
:10335000704770B5B1F90040B2F900309C4200DD11
:1033600023460380B1F90250B2F90240A54200DDC4
:103370002C464480B1F90460B2F90450AE4200DA40
:1033800035468580B1F90610B2F90620914200DB7E
:103390001146C1809D4201DBA14201DA002070BDCF
:1033A000012070BD014602480068407C00F002B870
:1033B000C40000202DE9F84301268946044602286E
:1033C0005DDA304F7A6802B190472E4D5FEA09000E
:1033D00005F1100532D0012803D0B9F1020F4ED10A
:1033E00018E055F8240088B92046FFF78FF80090C0
:1033F00018B3C0680D21426A6846904702003ED06B
:1034000049460098904755F824000026401C45F88E
:10341000240034E02046FFF779F8009068B1C068D6
:103420000D21426A68469047040028D0386800B1F0
:10343000804749460098A047002620E055F8240020
:10344000A846012812D12046FFF760F8009068B125
:10345000C0680D21426A68469047050006D038686A
:1034600000B1804749460098A847002658F8241024
:1034700009B1012200E00022891A48F824103046E0
:10348000BDE8F8830002002070B5FF23B3EB116F95
:1034900029D0C3B200F47F4500F47F04060E5343E5
:1034A000554354435643C2F1FF00CAB202FB0032F7
:1034B00001F47F4303FB005301F47F0505FB004447
:1034C000090E01FB0065C2F307204FF47F4101EABA
:1034D0001322090201EA14214FF07F43104303EA4B
:1034E00005430843184370BD0249CA694260C86178
:1034F00070470000B800002010B502E000F8011B82
:10350000521E0AB18307F9D1930818D001EB014488
:1035100002F0030204EB042406E010C01B1F10C0DD
:1035200040F8084B40F8044C042BF6DA01E010C0D8
:103530005B1E002BFBD102E000F8011B521E002A8B
:10354000FAD110BD10B5830702D520F8021B521E18
:10355000530811D001EB0144042B09DB10C01B1FE1
:1035600010C0042B40F8084B40F8044CF6DA01E098
:1035700010C05B1E002BFBD1D20700D0018010BD14
:1035800070B44FF0C0432A221A80020AD40B4FEACB
:10359000523C42EA4434264A44EACC351580C0B253
:1035A000450BC60B40EA463040EAC536168044EA71
:1035B000CC3CA2F800C040EAC53010802B20188017
:1035C000080A4FEA503CC40B40EA443040EACC348D
:1035D0001480C9B24C0BCD0B41EA453141EAC435E8
:1035E000158040EACC30108041EAC43010802E2093
:1035F000188010881088410BC30B20F4204040EA4B
:10360000433040EAC131108870BCC0F34032C30B74
:1036100020F4204040EA433040EAC23001F47842CE
:1036200001F0FC0142EAC10141EAD02070470000EC
:1036300000000260FEE700000449054A0968497C71
:1036400052F821100969096808470000C4000020E9
:10365000E4000020C0F34031C20B20F4204040EAD7
:10366000423040EAC13070472DE9F04F05468DB039
:103670007B48DDF860901A9C00681E4617464FF0A4
:10368000000A78B11B9B199ACDF808900593CDE9F3
:103690000324DDE91623CDE90023046833463A46C6
:1036A000284680E0DDE9160201EB060805EB070C71
:1036B0001043A8F10108ACF1010C012806D0C9F1B2
:1036C00008000590002002910990C6E06548026854
:1036D000B2F90A30581A002806DD361A002E63DDCA
:1036E0001946199B00FB0344B2F90E00A8EB000039
:1036F000002802DD361A002E56DDB2F90C00ACEBC4
:103700000000002800DD3F1AB2F908300020AB426B
:1037100035DD581B3F1A4B46B9F1080F26D006DCA1
:10372000012B0BD0022B11D0042B28D116E0102B2B
:103730001ED0182B1FD0202B21D11CE020F0070316
:1037400004EBE0041D4400F0070018E020F0030340
:1037500004EBA0041D4400F0030010E020F001037E
:1037600004EB60041D4400F0010008E0044404E0A0
:1037700004EB400401E004EB800405440020002F2A
:1037800012DD1B9BDDF864C0CDE90403CDE90069BF
:10379000CDE902C4527C34483B4650F82200C2684E
:1037A00054680A462946A0470DB0BDE8F08F179926
:1037B000029808440C902B49401E00900A68B2F908
:1037C0000A30834241DCB2F90E10029881423CDBA0
:1037D0004FF0000BD84603950A9434E0BBF1000F7C
:1037E00005D10A984FF0080B10F801AB0A90059923
:1037F000ABEB090B3AFA01F00AFA09F101F0FF0A02
:1038000004D118490968097C890716D41549096843
:10381000C96B0A680B921B9A0AB152F82000086023
:1038200016990398009B4218521E029900F07EF8E8
:103830000C490B980968C96B08600399169808F140
:10384000010808440390B845C8DB0998401C09905A
:103850000C980290199804440998B042A7DBA3E79A
:10386000F8000020C4000020E4000020F0B40C4662
:1038700012490968B1F90A30A3421CDCB1F90E30D3
:10388000A34218DBB1F90830834200DD1846B1F9D4
:103890000C30934200DA1A4682420CDB4B7C08491A
:1038A00051F8235013462246E9688E68014628469F
:1038B000B446F0BC6047F0BC70470000C400002074
:1038C000E40000200A46174930B40968B1F90A300B
:1038D000934225DCB1F90E30934221DBB1F9083077
:1038E00083421DDCB1F90C30834219DB0B7C0E4C9A
:1038F000DB0709D0497C54F82130D968CC690146EE
:10390000A44630BC18466047CB6B497C1B6854F812
:103910002140E1688D6901462046AC4630BC6047D5
:1039200030BC7047C4000020E400002038B5134CC0
:103930002468B4F90850854200DD2846B4F90C50DB
:10394000954200DA2A46824217DBB4F90A508D42CA
:1039500000DD2946B4F90E509D4200DA2B468B4219
:103960000BDB0093647C064B53F82440E3681D692D
:1039700013460A4601462046A84738BDC400002029
:10398000E4000020082103F087BC00000248006822
:10399000806B006870470000C40000200248006887
:1039A000C06B006870470000C40000200248092175
:1039B0000068407C03F070BCC4000020092103F0C3
:1039C0006BBC70B500252C462046FEF79FFD00B16C
:1039D0006D1C641C022CF7DB284670BD0248006891
:1039E000407C00F003B80000C400002010B5FEF7D2
:1039F0008DFD002805D0C168CA6ABDE810400221CB
:103A0000104710BDF8B515460E460124FEF77EFDA1
:103A1000009058B1C0680421426A6846904703008C
:103A200004D02A4631460098984700242046F8BD25
:103A3000014800687047000040010020012103F0A8
:103A40002BBC012003F08CBC01484068704700008B
:103A500040010020022103F01FBC022003F080BCC3
:103A6000AFF300802DE9F041002809D0876837B115
:103A70000D4E716819B10468B4F5807F02DD002035
:103A8000BDE8F0813068844200DD0446002507E08F
:103A900057F82500FFF7D0FD716841F825006D1C2F
:103AA000A542F5DB7068EBE7880100200449054A70
:103AB0000968497C52F821100969496808470000E3
:103AC000C4000020E400002010B500F01F01074AE8
:103AD000074BC0F34514C0F3C4201B5D105C515C60
:103AE00000EB032000EB014010BD00002CC70008D4
:103AF0004CC70008F8B500F0E5F800F041F8040004
:103B00003BD100252846FEF701FD009048B1C06872
:103B10000C21426A68469047010007D00098884708
:103B200004436D1C022DEDDB14B126E00120F8BD2D
:103B300000F040F8012543F6FF762846FEF7E6FC44
:103B40000090C0B12846FFF785F8042000F0E0F8A7
:103B50000021324633460846FFF7E8FE002000F019
:103B6000D7F800980E21C068426A68469047010065
:103B700001D0009888476D1EDFD52046F8BD0000B3
:103B800010B50A4C606860B920688000FEF76AFAD8
:103B9000606040B104F10801054808600846FFF77D
:103BA000A3FC002010BD012010BD000088010020F2
:103BB000FD7600082DE9F047FFF703FF07460024D4
:103BC000DFF860802AE02046FEF7A0FC28B3D8F892
:103BD000000090F8119044742046FFF7D3FE0828A7
:103BE00017DC1148114950F824000069884210D0B0
:103BF0002046FFF7E3FE0646002508E0E8B2FFF79F
:103C000055FF0246E9B2204600F088F86D1CB54227
:103C1000F4DBD8F8001081F81190641CBC42D2DBB0
:103C2000BDE8F087C4000020E4000020F0CF0008C9
:103C300010B50D4C0D492068407C51F8200048B16A
:103C4000C16811B10968042901D00068F7E708B11B
:103C5000FEF740FC20680021016600F10801416187
:103C6000BDE8104000F02EB8C4000020E4000020A1
:103C70000149096849680847840100200449096826
:103C80000A7C520701D5C96B00E0896B0860704758
:103C9000C40000207CB5094C05462068417C0848DA
:103CA00050F82100C1680A6B6946904720686A464F
:103CB00029460830FFF74DFB7CBD0000C400002002
:103CC000E40000200448016804484A7C083150F8A8
:103CD0002200C268126B1047C4000020E4000020DC
:103CE00001490968096808478401002004490968F6
:103CF0000A7C520701D5896B00E0C96B08607047E8
:103D0000C4000020014AC2E90001704740010020C0
:103D1000014909688968084784010020F8B51546FB
:103D20000E460124FEF7F2FB009058B1C068102146
:103D3000426A68469047030004D02A4631460098FC
:103D4000984700242046F8BDF8B515460E460124D4
:103D5000FEF7DCFB009058B1C0680321426A684658
:103D60009047030004D02A46314600989847002423
:103D70002046F8BDF8B515460E460124FEF7C6FBF1
:103D8000009058B1C0680B21426A68469047030012
:103D900004D02A4631460098984700242046F8BDB2
:103DA000F8B515460E460124FEF7B0FB009058B159
:103DB000C0680A21426A68469047030004D02A4638
:103DC00031460098984700242046F8BD10B5074CAE
:103DD0002068006BFFF730FCFFF788FF2068406B1E
:103DE000FFF72AFCBDE81040FFF748BFC4000020E1
:103DF00000B59BB068216846FCF7B5FC00231A4665
:103E000008490948FEF702FBF0224FF4C871002070
:103E1000FFF7B0FFF0224FF4C8710020FFF7C0FF9A
:103E20001BB000BDA0B1000864B1000810B50129A5
:103E30001CBF4FF0FF3010BD00F024F9002010BD72
:103E40002DE9FF4F8DB01746674ADDF870901E9E32
:103E5000209812681D4600248AB11D9B1F98CDE949
:103E60000293CDE90460DDE91A03CDE9000314688B
:103E70002B463A460D98A04711B0BDE8F08F0D9A39
:103E800001EB050802EB070CDDE91A231A43A8F140
:103E90000108ACF1010C012A06D0C9F108004FF06D
:103EA000000B029105909CE0504A1268B2F90A405A
:103EB000631A002B06DDED1A002DDDDD21461D9C69
:103EC00003FB0466B2F90E30A8EB0303002B02DDFE
:103ED000ED1A002DD0DDB2F90C30ACEB0303002B52
:103EE00000DDFF1A0D9B1C1AB2F90830A3420DDD4C
:103EF000A3EB040C0CEB0003181A20F00700044499
:103F0000A7EB0C0706EBE30603F00700002FB3DD79
:103F1000DDF874C01F9BCDE902C6CDE90403CDE9ED
:103F20000059527C32483B4650F82200C26855681E
:103F30000A462146A8479FE71B99029808440C901F
:103F40002A49401E00900A68B2F90A30834242DCD6
:103F5000B2F90E10029881423DDB4FF0000A0D9835
:103F60000A96D046039034E0BAF1000F05D10A98C2
:103F70004FF0080A10F8014B0A900599AAEB090ABC
:103F800034FA01F004FA09F4E4B204D117490968DB
:103F9000097C890717D415490968C96B0A680B920F
:103FA0001F9A0AB152F82000086003991A98009BE2
:103FB0000A18DDE90210521EFFF7B8FC0B490B98F6
:103FC0000968C96B086003991A9808F10108084448
:103FD0000390B845C8DB0C9802901D980BF1010BBB
:103FE0000644AB45A8DB47E7F8000020C4000020EA
:103FF000E4000020002818D0410817D0810817D00D
:10400000C10817D0010917D0410917D0010A17D0EC
:10401000410A17D0010B15D0C10B13D0010C11D0E0
:10402000810C11D0000E11D0202070470120704764
:104030000220704703207047042070470520704716
:1040400008207047102070471220704718207047D2
:1040500000B50022FFF7CEFF012804D0811E0629FB
:1040600003D808220BE0012209E0A0F10901072989
:1040700001D8102203E011380F2800D82022104662
:1040800000BD00002DE9F04F01219DB0080200F0B5
:1040900043FA01217C2000F057FA4FF010088DF808
:1040A000038003248DF802404FF40050ADF8000067
:1040B0006946F048FDF768FD0225ADF800506946F5
:1040C000ED48FDF761FD0221EB48FDF7BDFD4FF422
:1040D0008059ADF800906946E648FDF755FD8DF82A
:1040E000024018208DF803004CF20370ADF8000078
:1040F0006946E048FDF748FD4FF68070ADF80000D6
:104100006946DE48FDF740FDADF800806946D948B4
:10411000FDF73AFD2020ADF800006946D548FDF7CF
:1041200033FD8020ADF800006946D248FDF72CFD34
:10413000A802ADF800006946CE48FDF725FDE9026A
:10414000CC48FDF781FD1021CA48FDF77DFD2021F7
:10415000C848FDF779FDA902C648FDF775FD802125
:10416000C448FDF771FD0121080200F0D5F90027D0
:104170001F20CDE910701297139714971597169773
:10418000CDE917741B971C9719971A97CDE90278F8
:10419000009701970697059768030497CDE90A7081
:1041A000CDE9087907970FA8CDE90C70012616A86C
:1041B000CDE90E066846FDF781FC01210020FDF7E0
:1041C0006FFC322005F00CF9E902AA48FDF73AFD30
:1041D000642005F005F9E902A648FDF735FD6420E5
:1041E00005F0FEF82903A348FDF72CFD642005F037
:1041F000F7F829039F48FDF727FD642005F0F0F844
:104200002A20640720809E48078007800780EF21CE
:1042100001802B23238007800780012101808F21CB
:104220000180352121800780B12121801122028067
:104230000E210180B42121800580B62121801E211C
:1042400001800580C021218010210180C1212180B1
:1042500006800B210180C5212180172101804FF0AC
:10426000270CA0F800C04FF0FA0CA4F800C006809C
:104270004FF0E00CA4F800C007804FF0080CA0F845
:1042800000C002804FF00D0CA0F800C0132505807F
:1042900001801C2101807B2101802D2101801021C2
:1042A00001802F21018029250580122101804FF0F6
:1042B0001C09A0F8009082464FF02F09AAF8009040
:1042C0004FF0E109A4F80090AAF800304FF02E0951
:1042D000AAF80090AAF80050AAF800C003464FF0D0
:1042E000160AA3F800A083461523ABF80030ABF8FC
:1042F000005003464FF0570BA3F800B086462F231B
:10430000AEF80030092303801A230380232303809F
:1043100031230380372303803C230380E22323805F
:104320000780082303800280A0F800C013220280C7
:10433000172303801C23AEF800307B23AEF8003037
:104340002D23AEF800301023AEF800304FF02F08C8
:10435000AEF80080AEF80050AEF800101C23AEF8A6
:104360000030AEF80080E32323802B23AEF800302A
:10437000A0F800900580A0F800C04FF0160CA0F83F
:1043800000C04FF0150CA0F800C00580DC46A0F876
:1043900000C04FF02F0CA0F800C04FF0090CA0F89F
:1043A00000C04FF01A0EA0F800E04FF0230AA0F86A
:1043B00000A04FF0310BA0F800B04FF0370CA0F880
:1043C00000C0DFF8BCC03C20ACF80000E420208036
:1043D000ACF800700820ACF8000029484FF0110C30
:1043E000A0F800C00D2707800280254A1720108002
:1043F0004FF01C08A2F800807B2010802D20108038
:104400001F48102202802F22028005800180A0F820
:1044100000800280E52121800380A0F800900580C3
:104420000780162101801521018005805721018018
:10443000028009210180A0F800E0A0F800A0A0F807
:1044400000B0372101803C2101803A212180552193
:1044500001803621218060210180A4F800C07820ED
:1044600004F0BEFF25800748C0F8B4611DB0BDE868
:10447000F08F0000001401400008014000180140C6
:104480000000026000802242FEE7704710B4C2784C
:1044900001784FF00F0C012322B3184A126801F182
:1044A000E02102F4E062C2F5E062120AC2F1040403
:1044B0002CFA02F290F801C00CFA04FC8478224035
:1044C00042EA0C02120181F80024007800F01F017A
:1044D00003FA01F14009800000F1E020C0F800116A
:1044E00010BC704701F01F0003FA00F04909890071
:1044F00001F1E021C1F8800110BC70470CED00E033
:10450000034940F0FD7040F0806008607047000093
:104510000CED00E070470000044A0029516914BF07
:10452000084321EA0000506170470000001002407B
:10453000044A0029D16914BF084321EA0000D06170
:104540007047000000100240044A0029916914BF1E
:10455000084321EA0000906170470000001002400B
:10456000254910B44A6812F00C03244A18BF042BE2
:1045700001D0082B01D0026015E04A684B6802F4B4
:1045800070124FF0020C13F4803F0CEB924203D0F8
:104590004B6813F4003F03D0194B5A43026002E00A
:1045A000164B5A4302604A680F2303EA1212154B56
:1045B0009A5CD0F800C02CFA02F24260D1F804C034
:1045C000072404EA1C2C13F80CC022FA0CFCC0F8D7
:1045D00008C0D1F804C004EADC2C13F80C30DA402F
:1045E000C2604968032303EA9131074B595CB2FB6F
:1045F000F1F1016110BC70470010024000127A0016
:1046000000093D00180000201400002070474FF002
:10461000E021042808690CBF40F0040020F00400E9
:104620000861704702480168491C0160704700003A
:1046300074000020374882B0016841F00101016038
:104640004168354A11404160016821F4102121F090
:1046500080710160016821F480210160416821F4CA
:10466000FE0141604FF41F0181600023019300931C
:10467000016841F4803101604FF6FF72016801F476
:10468000003100910199491C0191009911B90199DA
:104690009142F3D1016811F4003F08BF009333D079
:1046A000012100911D490A6842F010020A600A685F
:1046B00022F003020A600A6842F002020A604168BE
:1046C000416041684160416841F4806141604168F6
:1046D00021F47C114160416841F4E81141600168B6
:1046E00041F080710160016811F0007FFBD04168EA
:1046F00021F003014160416841F0020141604168DD
:1047000001F00C010829FAD105494FF0006008605A
:1047100002B07047001002400000FFF80020024085
:1047200008ED00E010B50A4C0121204600F066F8C3
:1047300038B108490868401C086007490868401CEF
:1047400008602046BDE81040012100F04BB8000091
:1047500000040040340000207400002030B50C46F6
:10476000054685B001210220FFF7E2FEADF80040CA
:10477000ADF804500024114DADF80240ADF80640EC
:104780006946284600F04EF801221146284600F0FE
:1047900040F81D208DF80C008DF80D4003208DF899
:1047A0000E0001208DF80F0003A8FFF76FFE012116
:1047B000284600F01AF805B030BD000000040040A3
:1047C00010B5074C0121204600F018F8002818BF4A
:1047D000FEF7F4FA01212046BDE8104000F002B8CF
:1047E00000100040C943018270470029018814BFAE
:1047F00041F0010121F0010101807047038A00228C
:1048000080890B4200EA01001CBF002801221046EB
:104810007047002A828914BF114322EA0101818175
:104820007047000010B40288234BDFF890C0984214
:1048300018BF604511D0B0F1804F1CBFA0F180447B
:10484000B4F5806409D0A0F18044B4F500641CBFC5
:10485000A0F18044B4F5406403D14C8822F070028A
:104860002243A0F18044B4F580541CBFA0F18044E1
:10487000B4F5A05403D0CC8822F4407222430280C5
:104880008A8882850A880285984218BF60450DD0C3
:10489000A0F18042B2F5A0321FBFA0F18042B2F574
:1048A000A232A0F18042B2F5A43201D1097A018688
:1048B0000121818210BC7047002C0140003401406E
:1048C00010B51A4C40F22551204600F03EF8002861
:1048D000204627D000F0D2F8C2B21548018811F462
:1048E000004F18BF10BD11F4804F4FF0000306D0E9
:1048F0000A2A08BF41F4004112D0038010BD0D2ADE
:1049000008BF41F480410BD0C1F30D0C094C491C88
:1049100089B204F80C200180C72998BF10BDECE7CC
:10492000018010BDBDE8104000F0A8B8003801407B
:104930002C0000206C0200200029818914BF41F462
:10494000005121F400518181704710B401F01F0221
:1049500001240023C1F3421C04FA02F2BCF1010F4E
:1049600004BFB0F80CC00CEA020208D0BCF1020F80
:104970000CBFB0F810C0B0F814C00CEA0202090A6B
:10498000008804FA01F10840002A1CBF0028012316
:10499000184610BC7047C1F3421301F01F014FF0DD
:1049A000010C0CFA01F1012B08BF0C3003D0022BD3
:1049B0000CBF10301430002A026814BF114322EAE1
:1049C000010101607047000030B50446008A85B0DF
:1049D0000D464CF6FF710840E98808432082A08903
:1049E0004EF6F3110840A9882A8911436A891043B9
:1049F0000843A081A08A4FF6FF410840A9890843D7
:104A0000A0826846FFF7ACFDA4F18040B0F59C3071
:104A10000CBF03980298A18911F4004F00EBC0016C
:104A200001EB0010296814BF49008900B0FBF1F0C8
:104A3000114A6FF0180CA2FB0031490909010B095A
:104A400003FB0CF300EB8300A38913F4004F4FF03A
:104A5000320314BF03EBC00003EB0010A2FB0020E5
:104A60004FEA501014BF00F0070000F00F00084399
:104A7000208105B030BD00001F85EB518088C0F358
:104A800008007047FEE7000002490120096881F82C
:104A900054007047C40000202DE9F0418AB004465C
:104AA000FDF734FFBCB32046FDF754FB0190D0E97D
:104AB0000012CDE90412876A056A01A8FDF766FBBA
:104AC000204600F0E1FC060025D0204600F027F942
:104AD0008046B80704D52A46414604A800F025FEC2
:104AE0002046FDF737FB01904046FDF733FB06906B
:104AF0003046FDF72FFB039005620698019AC169C5
:104B00001162C46101A8FDF741FB06A8FDF73EFB59
:104B100003A8FDF73BFBFEF787FA0AB0BDE8F0817A
:104B20002DE9FC5F9846DDE90C5491460E46074698
:104B3000DDF83CB0FDF7EAFEDFF828A1DAF818004E
:104B400004434DB9BAF8020048B347480AF144019A
:104B50000068407C51F82050681C0ED0FDB12846FA
:104B6000FDF7F8FA0190B0F90010B0F902200F44F7
:104B70001644B9F1000F02D006E000250FE0B0F9AD
:104B80000430591A01F10109B8F1000F04D1B0F94C
:104B90000600801A00F1010801A8FDF7F7FA0BF1F1
:104BA0002C00FDF716FA5FEA000B56D0BAF80200A7
:104BB000401CAAF802005846FDF7CCFA0090078086
:104BC00007EB09014680491E818006EB0801491E5A
:104BD000C1800E990161254A816A22401143816298
:104BE0006846FDF7D3FADAF810005E4650B1FDF7DB
:104BF000E5FA07463046FDF7E1FA01467869486173
:104C00007E6101E0CAF810B02946584600F0D2FC97
:104C1000A00602D5584600F061FBE00704D0DAF8A0
:104C20002410491CCAF82410600602D55846FFF724
:104C300033FFA0070DD55846FDF78CFA0090816A26
:104C400041F0020181626846FDF7A0FA584600F083
:104C5000E3FA0121584600F057FEFEF7E5F9584601
:104C6000BDE8FC9F98010020C40000209F3F3F004A
:104C7000064910B50968002081F85400FDF746FE8A
:104C8000FFF720F8BDE81040FEF7CEB9C4000020C1
:104C900010B50446C168D4E90020172A0DD004DC01
:104CA0000E2A0CD0142A07D104E0222A0CD0282A7C
:104CB00002D10CE000F0A3FB0020E06010BD214613
:104CC000BDE8104000F02CBB6FF07040F5E7BDE888
:104CD000104000F0A1BA0000034804490068407C7D
:104CE00051F8200070470000C4000020DC010020C3
:104CF0000021022802D2024951F8201008467047CC
:104D0000DC01002010B5040007D0FDF7FFFD2046B0
:104D1000FDF754FAC469FEF787F9204610BD10B5B7
:104D2000040007D0FDF7F2FD2046FDF747FA84693D
:104D3000FEF77AF9204610BD2DE9F04F9BB04FF0F9
:104D4000000B5E46CDF820B0CDF824B0CDF828B0E9
:104D5000FDF71EFF18B100201BB0BDE8F08F6846BC
:104D6000FDF7F4FE0098D04DD04C401C0ED10198B8
:104D7000401C0BD120689DF8081000EB400005EBAB
:104D80008000007A884201D15846E5E7FDF7BEFD74
:104D9000009800280EDB019800280BDBC44900981E
:104DA000B1F900100844C34900900198B1F900100E
:104DB00008440EE00098401C0CD10198401C09D119
:104DC000206800EB400055F8201005EB80000091B2
:104DD000406801909DF80900022801D3206800E096
:104DE0002060FDF793FBA0B307AA12A92068FDF786
:104DF00009FD05A800F0CCFA12990098401A00901D
:104E000007990198009A401A0190206800EB400031
:104E100055F8201091420AD105EB8000019A4168B3
:104E2000914204D1007A9DF8081088427DD0DDE9D6
:104E300000019DF80920FDF725FA9F4F7A6812B10D
:104E40000021684690479D48216850F8210020B114
:104E500007E0FFE7FEF7E8F87DE7DDE9000100F095
:104E60002EFA0690BA6812B10699684690478E4F9E
:104E70002068383707EBC0014868069A824201D0A3
:104E8000012200E000220DF12009F8B1F2B14868DA
:104E900000F06AFCD0B1206807EBC000406800F069
:104EA00058FC98B19DE8070008AB83E80700122082
:104EB000CDF844900E90206807EBC00040680EA922
:104EC00000F048FD206807EBC0004660069800F03F
:104ED0004BFC00287DD00699206807EBC00251608A
:104EE00000EB400005EB80009DF80810007ADFF829
:104EF000B8A188420AF1280A5ED00698C0B3069885
:104F0000FDF728F99DF8081013908DF834102168EA
:104F100001EB410105EB8101097A8DF83510B0F9FB
:104F200000200099891A0B9100E0B6E0B0F9020068
:104F30000199081A0C9013A8FDF728F90BA81190F5
:104F400011200E90206800EB400105EB810191E8F3
:104F50008C000492CDE914379DF808200A729DF860
:104F6000281031B10AEBC0014F68069A4A6001E08F
:104F700022E000270AEBC000D0F8048006980EA9B2
:104F800000F0B4FC21680AEBC1004368434501D03E
:104F90004068069001EB410005EB8003DDE9141247
:104FA000049883E807003FB1384600F067F918B16C
:104FB00021680AEBC100476020689DF8081000EBEB
:104FC000400805EB8802137A0B434CD04FF4107362
:104FD00000E056E00AEBC0000E9343684FF0010B6F
:104FE0005746DDF818C09C4515D043689BB109B100
:104FF000119608E055F828100891516809918DF82C
:105000002860CDF8449040680EA900F0A3FC206809
:1050100007EBC000466020689DF8081000EB4002D6
:1050200005EB82021172069959B39DE80E000DF14D
:10503000200888E80E009DF8281021B1069907EB9A
:10504000C000416008E01E48007808B100F02EF969
:10505000206807EBC00046600698CDF844900EA982
:1050600000F078FC0DE0069858B1069800F071FB4E
:1050700038B19DE8070008AB83E8070010200E90C8
:10508000EAE721689DE81C0001EB410005EB800088
:1050900080E81C00684600F0FDF805A800F0E8FB79
:1050A000FDF7C2FF70E6000058410020A401002077
:1050B000FC000020FE00002058020020EC0100202F
:1050C000FC0100202DE9FF5F2C4D6878002853D1AA
:1050D00000272B482F616F630068DFF8A8903C46DB
:1050E0004764AF806F804FF0020A4FF0FF3B43F6FA
:1050F000FF7805F144062046FDF708FA98B1CDE99E
:105100000297CDE900BA0021424643460846FFF720
:1051100007FD1A4A46F824004C326FF0704142F8FD
:10512000241000F079F8641C022CE4DB164FDFF841
:105130005C80DFF85C90002407EBC40000F028F9E5
:1051400008EBC40000F024F909EBC40000F020F9DA
:10515000641C022CF0DB306800F0C0F8FFF794FC10
:105160000120064968703C310A48086004B00846CE
:10517000BDE8F05FFEF7B8B9BDE8FF9F98010020D9
:10518000C4000020358900087041002080410020C3
:10519000904100201177000870B586B00D460600DA
:1051A00031D0FDF7B3FB3046FCF7D4FF0090846AA2
:1051B000A10723D5D0E90010CDE90110E00302D505
:1051C000304600F04DFA5DB128680390686804909D
:1051D00003A9009800F0E4F803A901A8FEF79CF8E1
:1051E000314601A800F0E4F840B140F60100044067
:1051F000012C0AD001A9304600F02EFA6846FCF7CF
:10520000C5FFFDF711FF06B070BD0098026A816905
:1052100001A800F08AFAF1E70021FFF7BDBFFEB553
:1052200015460E4604001CD0FCF794FF0246009081
:1052300090F82800800711D5314601A8FEF789F8BB
:1052400060B16846FCF7A2FF2A4601A9204602F099
:10525000E9F92046FFF756FD04460CE06846FCF7E6
:1052600095FFFEBD2A4601A92046FFF7D8FF20463C
:10527000FCF7A4FF046A002CF4D1FEBD10B504466F
:10528000FDF744FB204600F0BBFA0446FDF7CCFED8
:10529000204610BD044A01EB410102EB81010DC81B
:1052A00081E80D0070470000C841002010B5FDF7EF
:1052B0002DFB00F0C7FABDE81040FDF7B5BE70B594
:1052C0000C460546FDF722FB22462946002002F047
:1052D0005BFB0446FDF7A8FE204670BD70B5044692
:1052E000FDF714FB0C4D2868866C0CB90B490C6952
:1052F0008464204600F0D2FAFEF7E4FC2046FCF776
:105300005DFF2968B0F90020CA64B0F902000865A1
:10531000FDF78AFE304670BDC400002098010020D1
:1053200070B50C0005460DD0FDF7F0FA2846FFF7E2
:10533000F6FC18B12146A56000F0BAFABDE870404D
:10534000FDF772BE70BD00000EB50E48006890F803
:10535000541009B10C4811E0806CFCF7FBFE009082
:10536000D0E90010CDE901106846FCF70FFF0748AF
:10537000816A11B101A800F01BF801A802F04CFBF2
:105380000EBD0000C4000020A840002098010020AD
:1053900002490A680260086070470000AC01002002
:1053A0000B46B0F90220B0F900101846FDF7BFBB5C
:1053B00038B50C4605462046FCF7CCFE0146009069
:1053C00090F82800800703D46846FCF7DFFE12E05F
:1053D0002846FDF7A1FF0098806920B10446684681
:1053E000FCF7D4FEE7E76846FCF7D0FE204600F065
:1053F00089FC002801DA002038BD012038BD38B50D
:105400000C4600280AD0002C08D0FCF7A3FE214649
:10541000009000F004F86846FCF7B8FE38BD0022A2
:105420004A800A8082880388D21A8A80C28840888B
:10543000101AC880704710B5FFF771FC002802D021
:10544000FCF7BCFEC06910BD0D4810B5006890F8AF
:105450005400002806D00B4C6069012803DD401E73
:105460006061002010BD2069401C206101F070FCCB
:1054700018B1FFF769FF012010BD6069EFE7000078
:10548000C4000020A040002070B50546FFF7D3FF00
:1054900008E0AC4201D1002406E0FCF78FFE006A70
:1054A000A84201D00400F4D1204670BD10B50446D6
:1054B000FCF784FE80690028F9D12046BDE8104041
:1054C00000F020BCF0B5384E074687B0306890F841
:1054D000541041B1354C6169491C6161012905DDF8
:1054E000012007B0F0BDFFF72FFFF9E7806CFCF754
:1054F00031FE2F4D4FF0FF3100902161297821B10D
:1055000081680291C068039007E090F8281089072D
:105510003CD5D0E90010CDE902101FB1394602A8F0
:10552000FDF7FAFE3068406C78B30098049030685C
:10553000406C0168059140680690A86A30B104A8E3
:10554000FCF724FEA86AFCF705FE049005A9049860
:10555000FFF726FF05A902A8FDF7DEFE0DF11000FA
:10556000FCF714FEA96A19B102A8FFF721FFB0B138
:105570003068816C02A8FFF71BFF80B1DDE90201F2
:10558000C4E90001FFF760FFABE706E06069401E79
:1055900060616846FCF7FAFD04E06846E0E7606990
:1055A000401E606100209CE7C4000020A040002055
:1055B00098010020FEB50D00044647D0FCF7CAFD57
:1055C00000900021856101622846FCF7C3FD009927
:1055D0000290C56991F8281001F008062DB12846FF
:1055E000FCF7B8FD019036B115E0C4616846FCF7E0
:1055F000CDFD02A828E090F8280000070BD5009800
:1056000005620298C4616846FCF7C0FD02A8FCF779
:10561000BDFD01A818E002A8FCF7B8FD01A8FCF741
:10562000B5FD2846FCF7CAFD11E004620BE02846F0
:10563000FCF7C4FD5EB990F82810090707D501985A
:105640000462009805626846FCF7A0FDFEBD01906B
:10565000056A002DEBD1E8E7202201F0E3BF00004E
:1056600038B5040022D0FCF775FD009090F82810A2
:10567000890718D5406A40B10D49C96AA14204D0D2
:10568000FDF790F90099002048622046FFF73AFBA9
:10569000044606E02046FFF7E3FF2046FCF78EFDB8
:1056A000046A002CF6D16846FCF770FD38BD000096
:1056B000980100202DE9FF419846164607460D0047
:1056C00031D00846FCF746FD0090846A0246A007E8
:1056D00026D5394601A8FDF73CFE08B340F6010087
:1056E0000440012C07D0424601A9284601F09AFF48
:1056F0000098C46912E000984346026A816901A8D3
:10570000FFF7D8FFF4E7B4420AD0424601A9204689
:10571000FFF785FD2046FCF751FD046A002CF2D10D
:105720006846FCF733FDBDE8FF812023FFF7C2BFC9
:1057300070B50C46002550B14CB100BFFCF73EFDE2
:105740008069A04201D1012501E00028F6D1284658
:1057500070BD10B50124FCF731FD90F82800C0069B
:1057600000D50024204610BD70B5064614480068D8
:10577000002807DB134951F820103046FFF7D8FF07
:1057800000281AD0114D104C286804EBC000416865
:105790003046FFF7CDFF296804EBC102516829B1FB
:1057A00000215268B24203D1012202E00121F8E750
:1057B00000220143114301D0012070BD002070BDC3
:1057C00058020020DC01002070410020A4010020CC
:1057D00090F828309B0711D5B0F900308B420DDCD2
:1057E000B0F904308B4209DBB0F90210914205DCBC
:1057F000B0F90600904201DB01207047002070479D
:1058000010B504460648006906E0A04201D1012017
:1058100010BDFCF7D3FC40690028F6D110BD000094
:1058200098010020B0F90010B0F90420914205DC85
:10583000B0F90210B0F90600814201DD0020704786
:10584000012070477FB5094D074C286854F82000A7
:10585000002808D018210091694600F029F829682D
:10586000002044F821007FBDEC010020A4010020AD
:10587000094B1968002905D00022814206D1086829
:105880000AB1106070470028186070470A4609681E
:105890000029F2D170470000AC01002010B5FFF7DD
:1058A00005FE002803DBBDE81040FDF7D3B910BDAD
:1058B00070B50D4C06460D46206814280DDA3046AA
:1058C000FCF77CFC01696E6041B12068401C2060DF
:1058D000284688472068401E206070BD2846BDE8E5
:1058E0007040FFF7D5B900005402002070B50C4697
:1058F0000546FFF72EFF002805D021462846BDE8C3
:105900007040FFF7D5BF70BD1FB5CDE900106946E7
:10591000FFF7CEFF1FBD7FB505460E464868C96834
:105920000391CDE901050D202C46009008E02046AA
:10593000FFF7F5F9040003D069460396FFF7D6FF99
:105940002046FFF79BFC0028F1D131462846FFF79F
:10595000CDFF7FBDF8B5CC680D46064684B1FCF797
:10596000F9FB0090B0F900002168081A2060009946
:105970006068B1F90210401A60606846FCF706FCE6
:1059800029463046FFF7C7FFF8BD410BC20B20F494
:10599000204040EA423040EAC1304FF0C041088028
:1059A00070470000410BC20B20F4204040EA423017
:1059B00040EAC130014908807047000000000260E1
:1059C0002DE9F041214D0C460646E968A86B0844D4
:1059D000A119401E814206D80846096819B94168D4
:1059E0000E4401F023FFA86BA0420AD254F8040C25
:1059F000271A386828B978680644384601F016FF37
:105A00003C46304601F0BCFC10281CD205EBC00718
:105A10003246002120467B6C02F0D1FB57F8440F40
:105A2000083400B144602060002060603C60286859
:105A30003044286095F8291029B9E968081AA9683E
:105A4000814200D2A8603046BDE8F081343F00209A
:105A50002DE9F041054601F09BFD2A48046CAC425B
:105A600002D8ED1C25F00304804600680C34A042E7
:105A700002D20020BDE8F08101F096FE071EF9D0A9
:105A8000204601F07DFC414630E000BF01EBC00242
:105A9000526C52B3956845B36B68A34206D2AA68AC
:105AA0001AB395680DB36B68A342F8D3D8F84000D9
:105AB000191B0C301E46814200D23446284601F0A4
:105AC000B5FE0421D8F8340001EBC701002345508E
:105AD00022463946284602F072FBA64203DD291908
