:020000040800F2
:10000000B021002065020008730200087502000894
:1000100077020008790200087B0200080000000057
:100020000000000000000000000000007D02000849
:100030007F0200080000000081020008C9180008C3
:100040008502000885020008850200088502000874
:100050008502000885020008850200088502000864
:100060008502000885020008850200088502000854
:100070008502000885020008850200088502000844
:100080008502000885020008850200088502000834
:100090008502000885020008850200088502000824
:1000A0008502000885020008850200088502000814
:1000B0008502000885020008850200088502000804
:1000C00085020008850200088502000885020008F4
:1000D00085020008C9190008850200088502000889
:1000E00085020008850200088502000885020008D4
:1000F00085020008850200088502000885020008C4
:1001000085020008850200088502000885020008B3
:1001100085020008850200088502000885020008A3
:100120008502000885020008850200088502000893
:100130008502000885020008850200088502000883
:100140008502000885020008850200088502000873
:100150008502000885020008850200088502000863
:100160008502000885020008850200088502000853
:100170008502000885020008850200088502000843
:10018000850200088502000800F002F800F059F826
:100190000AA090E8000C82448344AAF10107DA45E2
:1001A00001D100F04EF8AFF2090EBAE80F0013F0DB
:1001B000010F18BFFB1A43F0010318470038000075
:1001C00020380000103A24BF78C878C1FAD8520706
:1001D00024BF30C830C144BF04680C6070470000C1
:1001E0000023002400250026103A28BF78C1FBD840
:1001F000520728BF30C148BF0B607047662903F023
:10020000C482642900F0AE80752900F0AB807829A3
:1002100000F0E480732900F04D84002070471FB582
:1002200003F0AEFA00F05CFC04000020002103F0B3
:1002300027F8E0600FBC00F013F80FB41FBD10B535
:1002400010BD00F065FD1146FFF7E9FF02F0DCF894
:1002500000F083FD03B4FFF7F2FF03BC01F008FCDC
:1002600000F0D3BD0B48016841F4700101600A48F9
:100270000047FEE7FEE7FEE7FEE7FEE7FEE7FEE7F4
:10028000FEE7FEE7FEE7000004480549034A054B88
:100290007047000088ED00E089010008B0010020EF
:1002A000B0210020B0010020704700000FB40449C5
:1002B00010B503AA029800F001FC10BC5DF814FB15
:1002C0000400002070B5044685690068C10601D5A8
:1002D000302600E02026C00707D070BDD4E90121F8
:1002E00030469047206A401C20626D1EF6D570BDD6
:1002F00070B5044685690078C00707D170BDD4E9A0
:10030000012120209047206A401C20626D1EF6D5F6
:1003100070BD70B50C460546012A05D028788006C8
:1003200000D5EA69002302E0012305E05B1C93424B
:1003300002D2E05C0028F9D1A869E618C01AA861C9
:10034000286A184428622846FFF7BCFF04E0D5E974
:10035000012114F8010B9047B442F8D32846FFF767
:10036000C7FF70BD2DE9F0410646002410687529CD
:10037000314616A510D0AFF30080002802DA4042C3
:1003800013A507E031688A0701D512A502E04907E5
:1003900004D511A5012401E0AFF3008000210A2259
:1003A00006F1240709E0B0FBF2FCB0FBF2F302FB1C
:1003B0001C00303078541846491C0028F3D12346DD
:1003C0002A463046BDE8F04100F0FCB800000000CD
:1003D0002D0000002B0000002000000070B5044636
:1003E0000D4621461068AFF300802188090502D52B
:1003F0000F4A7A4402E00E4A7A440E32002104F198
:10040000240305E000F00F060009965D5E54491CC8
:100410000028F7D120780023000704D5702D02D0E2
:1004200009B1022311322046BDE8704000F0CAB87D
:10043000983300002DE9F05F894604464FF0000A2A
:10044000DFF874B1FB44C0F820A02046E16888477B
:10045000002874D0252806D0D4E901219047206ACD
:10046000401C2062F1E700265F462046E16888478D
:100470002028054607DB312D05D2781910F8200C0D
:1004800008B10643F1E7B00701D526F00406C4F829
:100490001CA00027C4F818A02A2D09D0284601F076
:1004A000DFFA38B304EB8708303DC8F8185019E07C
:1004B00059F8041B204604EB87029161E1688847E4
:1004C000012F054618D1E069002820DA26F0200621
:1004D0001DE0D8F8180000EB800005EB4000303834
:1004E000C8F818002046E1688847054601F0B8FAC8
:1004F0000028EED1012F0AD02E2D08D12046E16828
:1005000088477F1C0546022F46F02006C4DBA06901
:10051000002803DA404246F00106A061F00701D04E
:1005200026F010066C2D0BD0682D09D04C2D39D03B
:100530006A2D35D0742D35D07A2D33D016E038E0C1
:10054000E1682F4620468847B842054609D16C2FFE
:1005500026D04FF48060E168064320468847054670
:1005600004E06C2F1AD04FF4807006430DB3A5F150
:100570004100192802D8203546F400664A4629462B
:10058000204626604E46FFF739FE80B101280BD089
:10059000F61D26F0070000F1080956E74020E4E7C1
:1005A0008020D8E70020D6E706F104094DE7284669
:1005B00052E7206ABDE8F09F6E3300007047704735
:1005C000704770472DE9F0470D469946924604461C
:1005D00000F124080168880604D5E06921F01001C3
:1005E000216000E00120A84201DD471B00E0002758
:1005F000A1697A1902EB0900081AA0612078C006E7
:1006000002D42046FFF75EFE002608E0D4E901216F
:100610001AF806009047206A401C761C20624E455E
:10062000F4DB2078C0060AD52046FFF74BFE06E033
:10063000D4E9012130209047206A401C2062381EF6
:10064000A7F10107F4DC07E0D4E9012118F805005F
:100650009047206A401C2062281EA5F10105F3DCAA
:100660002046FFF745FE2078000602D50220BDE8AF
:10067000F0870120FBE770472DE9FF4F0C461E462F
:100680004FF0FF378BB0D2E90001DDF860800A90AF
:100690008A46C1F30A5505B93D46002108464FF088
:1006A0000000BAF1000F00F4400005DA00EB800012
:1006B0004FF4400101EA50004FEA9059B9F1010F9F
:1006C00000DDB9460A9850EA4A000ED044F61050B0
:1006D000A5F2FF3545432F14B8F1000F1ED0754227
:1006E000291E1EDDC9F100021CE0B8F1010F4FF018
:1006F000000001D0302103E0F24305E02154401C0A
:10070000B042FBDB30460022002121540B99C1F896
:100710000880C1E900200FB0BDE8F08FBD1B6D1C43
:10072000DEE74A4600DA694206A800F07BFA06AB2B
:1007300093E8070003AB83E8070050460A9900F0EE
:100740003AFC8DE80700A0F500501F380090039890
:10075000002D09DD42F21F014A46084403A9039017
:10076000684600F099FE08E0A0F500504A461F38A0
:1007700003A90390684600F0A3FE8DE8070000047B
:10078000000C03D04FF0FF30410800E01046B8F1F4
:10079000000F03D00022009215461EE0751E05D4FE
:1007A00000F0A2F9303262556D1EF9D5B346012230
:1007B000084302D000227F1C04E02078302801D1B9
:1007C00000227F1E002A099786D01DE0112D07DA2E
:1007D00000F08AF9303262556D1C50EA0102F5D101
:1007E000084302D00098C8B10EE00021681E05E061
:1007F000235C625C63542254401E491C8142F7DB37
:10080000AB46A81B401E0990002004F80B000B9873
:10081000099AC0F80880C0E9002B7CE711264FF048
:10082000000859E72DE9F04F88460446D21D22F012
:10083000070191B0D1E90001CDE90A0101F0F8F812
:1008400002460B98C00F01D02D2007E020688107D9
:1008500001D52B2002E0202101EAC000032A0990E3
:1008600001D0072A05DB03464146204600F09AF9ED
:100870000BE12078800601D5E06900E00620B8F1A0
:10088000650F814606D0B8F1660F18D0B8F1670F32
:1008900070D131E00020B9F1110F009001DB11237C
:1008A00001E009F101030AAA01A90CA8FFF7E4FE7F
:1008B000DDE90C70002609F10105834647E00120BF
:1008C0004B4600904FF000470AAA01A90CA8FFF779
:1008D000D3FEDDE90DB00C995D46002610B909F193
:1008E00001000D18B9EB050003D4C0F1FF3609F182
:1008F0000105A5EB09002BE0B9F1010F01DA4FF07A
:1009000001090020B9F1110F0090484601DD1123C3
:1009100000E003460AAA01A90CA8FFF7ADFEDDE935
:100920000C704D4600268346207800070AD4AB455C
:1009300000DA5D4601A8012D04DD411911F8011C02
:10094000302907D04F4502DA17F1040F04DA0120ED
:1009500082460FE06D1EEEE7002F02DCED1B3E44E9
:1009600003E0781CA84200DD7D1CB81B00F1010AE1
:100970004FF000472078000703D4AA4501DB4FF071
:10098000FF3A0021B7F1004F0DF143088DF84310F5
:1009900024D002202B23002F01DA7F422D230A21AD
:1009A000021EA0F1010000DC5FB197FBF1FC97FB98
:1009B000F1F201FB1C7C17460CF1300C08F801CD5C
:1009C000EEE7A8F1010003702188090501D5452152
:1009D00000E06521A0F1010800F8011C09980FA9A9
:1009E000A1EB0807FF1D00B10120411901EBEA70DE
:1009F000A1693844081A401EA0612078C00602D4BC
:100A00002046FFF75FFC099828B1D4E901219047FF
:100A1000206A401C20622078C00622D52046FFF7BD
:100A200051FC1EE0002E04DBB34502DD01A8805D11
:100A300000E03020D4E901219047206A401C206268
:100A4000761CAAF101005FEA000A0AD100F048F81A
:100A5000C0680168405CD4E901219047206A401CCD
:100A60002062281EA5F10105DCDC07E0D4E90121A4
:100A700018F8010B9047206A401C2062381EA7F12D
:100A80000107F3DC2046FFF733FC032011B043E6F7
:100A900010B5436913B1AFF3008001E0FFF739FCF3
:100AA000012010BD127800F124010A7000224A7062
:100AB0000122EDE711684FF0FF32E9E7074B70B50F
:100AC0000D467B4400F05BF80446284600F018F918
:100AD00010B14FF0FF3070BD204670BDDF18000030
:100AE000004870476C01002030B5B0F10A024FEAAF
:100AF000900E71F100034EEA817EB0EB0E0061EBC7
:100B000091014FEA101E4EEA017E10EB0E0041EB00
:100B100011114FEA102E4EEA016E10EB0E0041EB60
:100B200011214FEA104E4EEA014E10EB0E0041EB40
:100B30001141401841F100014FEAD00040EA4170F4
:100B40004FEAD10110EB80054FEA810444EA90742A
:100B500044EB01046D1944EB0404521BA3414FF014
:100B6000000348BF0A3200D530BD401C41F10001EE
:100B700030BD000001694A1C02610878704700B569
:100B80008FB0CDE901310021059105497944CDE9C6
:100B9000031011466846FFF74DFC0FB000BD000082
:100BA000E5FFFFFF2DE9F0411F46044603260168DB
:100BB000072A01F4006004DB08B116A505E016A5BC
:100BC00003E008B115A500E015A521F01000206094
:100BD000A069C01EA0610FB1401EA0612046FFF7B2
:100BE00071FB4FB1D4E9012138469047206A401C7F
:100BF0002062C01C206206E0206AFAE7D4E90121E5
:100C000015F8010B9047761EF8D22046FFF770FBCF
:100C1000BDE8F0814E414E006E616E00494E4600C7
:100C2000696E66002DE9F047814616468AB0334862
:100C300078440DC88DE80D0030487844801C03AC22
:100C40000DC884E80D0041F69B300844372190FB25
:100C5000F1F290FBF1F5A5F1800501FB12041B3CBC
:100C600002D56442012000E00020DFF890A0804619
:100C70000027FA44AAF1BE0A0DE0E00709D0324687
:100C8000684607EB47010AEB810100F019FC8DE88B
:100C9000070064107F1C002CEFD1184F7F44AC3F3D
:100CA00018E0E80714D007EB04100DF1180A90E8DB
:100CB0000E008AE80E00C068F04201D19819089031
:100CC000324606A903A800F0FBFB03AB83E807004C
:100CD0006D10641C002DE4D132466946B8F1000F56
:100CE00003A802D000F0D8FB01E000F0E9FBC9E95D
:100CF0000001C9F808200AB0BDE8F087102C0000F8
:100D0000007B00F080007047004870474C010020D5
:100D10007546FFF7F9FFAE4605006946534620F0D9
:100D20000700854618B020B5FFF7AEFABDE82040B1
:100D30004FF000064FF000074FF000084FF0000B97
:100D400021F00701AC46ACE8C009ACE8C009ACE84A
:100D5000C009ACE8C0098D4670470446AFF3008077
:100D60002046FFF777FA00004FF0013C50F8042BC3
:100D700051F8043B9A4221D1A2EB0C03934313EAAE
:100D8000CC1317D150F8042B51F8043B9A4215D1DB
:100D9000A2EB0C03934313EACC130BD150F8042BB2
:100DA00051F8043B9A4209D1A2EB0C03934313EA96
:100DB000CC13DBD04FF00000704700BFD01A01BA4F
:100DC000B1FA81F101F0180122FA01F0CB40C1F132
:100DD0002001DBB2C0B2C01A2CFA01F3D11A914340
:100DE00011EAC311E6D170470246C91C21F0030184
:100DF000D2E900031B1A8B4201D200207047014444
:100E0000C91D21F00701116070472DE9F34F83B030
:100E100000274FF48074BA4603A821468DF800706D
:100E2000FFF7E2FF5FEA000801D100F076F8214603
:100E3000404600F01CFE060009D04FF0010B45466D
:100E4000C14616F8014B8FB15C2C16D01CE008F19E
:100E500008004146C8F800000020C8F80400D8F88F
:100E600000402070012005B0BDE8F08F222C01D099
:100E7000272C0FD12746BA462CE03078222807D0FD
:100E80005C2805D0272803D0BC4203D1002721E0ED
:100E9000761C04464CB12FB9202C06D0A4F10900D1
:100EA000042802D905F8014BCBE74D4502D1BAF130
:100EB000000F0FD052464946002005F8010B684646
:100EC000AFF300809DF8000070B14D464FF0000A6E
:100ED0000BF1010B002CB4D14FEA8B0103A8FFF7F3
:100EE00083FF040002D004E0A946EFE7002000F0F1
:100EF00014F800204246C4F8008005E012F8011BF7
:100F000011B9401C44F82020AA42F7D3002144F82C
:100F100020102146A7E77047704710B500F00AF887
:100F2000BDE81040AFF30080002801D000F0A0BD64
:100F30007047000010B5012805D0002103A000F083
:100F400021F8012010BD09A1F8E7000053494752DC
:100F5000544D454D3A204F7574206F662068656189
:100F600070206D656D6F7279000000003A20486551
:100F70006170206D656D6F727920636F727275702C
:100F80007465640070B505460C460A2000E06D1CCF
:100F900000F06FFD35B128780028F8D102E0641C1C
:100FA00000F067FD14B120780028F8D1BDE870404A
:100FB0000A2000F05EBD5FEA400C08BF91F0000F10
:100FC0004FEA8C234FEAC12243EA51514FEA1C50A9
:100FD00018BF00F5F0404FEA300018BF41F0004163
:100FE0005FEA6C5C00F02980BCF1FF3F08BF40F075
:100FF00080407047130C06BF12044FF0100C4FF0E6
:10100000000C130E04BF12020CF1080C130F04BFE6
:1010100012010CF1040C930F04BF92000CF1020CAE
:10102000D30F04BF52000CF1010C11464FF0000227
:10103000A0F11F00A0EB0C00704711F0004F08BF9B
:10104000704731F000413FF4D5AF0B0C06BF0904E7
:101050004FF0100C4FF0000C0B0E04BF09020CF106
:10106000080C0B0F04BF09010CF1040C8B0F04BF1B
:1010700089000CF1020CCB0F04BF49000CF1010CEC
:10108000CCF12003A0EB0C0022FA03F302FA0CF2DD
:1010900041EA030100F10100704720F07F4C80EA33
:1010A000030023F07F47ACEB070303F57C5300F00C
:1010B000004003F1FF032DE980494FEA154B09B4C5
:1010C0004FEA144325EA0B4E24EA03480FF20426A4
:1010D00006EB132749083E785FEA320203FB0667F6
:1010E000C7F5000707FB06F64FEA54374FEAD64626
:1010F00006F1020607FB066CCCF1005C4FEA1C47C8
:101100002CEA074C07FB06F40CFB06F504EB15462E
:101110004FEA961634BF00204FF000404FEAD13717
:1011200006FB07FC4FEA1C4C0CFB0BF7D21B03FB26
:101130000CF761EB07010CFB0EF7B0EB074072EB0D
:1011400017420CFB08F734BFA2EB0742B2EB074291
:1011500061EB17414FEA0C444FEA910706FB07FC8D
:101160004FEA1C4C0CFB0BF7B0EBC74072EB57324D
:1011700003FB0CF734BFA2EBC742B2EBC74261EBF3
:1011800057310CFB0EF7B0EBC70072EB57720CFB3C
:1011900008F734BFA2EBC702B2EBC70261EB57718D
:1011A000039F4FEA816141EA921104EBCC044FEABC
:1011B000D1374FEA826206FB07FC42EA90124FEAFF
:1011C00080604FEA1C4C0CFB0BF7D21B03FB0CF7A7
:1011D00061EB07010CFB0EF7B0EB074072EB174217
:1011E0000CFB08F734BFA2EB0742B2EB074261EBFE
:1011F00017414FEA8C554FEA910704EB9C2406FBFC
:1012000007FC4FEA1C4C0CFB0BF7B0EBC74072EB32
:10121000573203FB0CF734BFA2EBC742B2EBC74215
:1012200061EB57310CFB0EF7B0EBC70072EB577256
:101230000CFB08F734BFA2EBC702B2EBC70261EBAD
:10124000577115EB4C254FEA816141EA92114FEA43
:1012500082624FEAD13742EA901206FB07FC44F162
:1012600000044FEA80604FEA1C4C0CFB0BF7D21BCA
:1012700003FB0CF761EB07010CFB0EF7B0EB07402B
:1012800072EB17420CFB08F734BFA2EB0742B2EB3C
:10129000074261EB174115EB1C154FEA813141EA1A
:1012A00092414FEA823242EA90424FEA80304FEA5E
:1012B0000C7644F1000448EA03434EEA0B484FF031
:1012C000000EB2EB080C71EB030724BF62463946EF
:1012D0004EEB0E0E4FF0000B0018524149414BEB04
:1012E0000B0BB2EB080C71EB03077BF1000B24BF77
:1012F000624639464EEB0E0E4FF0000B001852417D
:1013000049414BEB0B0BB2EB080C71EB03077BF184
:10131000000B24BF624639464EEB0E0E51EA02071F
:1013200018BF46F0010616EB0E7655F1000254F197
:10133000000103D5BDE88901BDE80088BDE8890149
:10134000BDE80048B619524141EB0101A3F1010388
:10135000704780807F7E7D7C7B7A79787776767522
:101360007473727171706F6E6E6D6C6C6B6A6A699A
:101370006868676666656464636362616160605F34
:101380005F5E5E5D5D5C5C5B5B5A5A5959585857AD
:101390005756565555555454535352525251515015
:1013A00050504F4F4F4E4E4D4D4D4C4C4C4B4B4B68
:1013B0004A4A4A49494948484847474747464646AE
:1013C00045454544444444434343434242424241E9
:1013D0004141002B26D4770021D01CB54FEA3707B6
:1013E00003B44FF010004FF010014FF000000FBC9D
:1013F000BDE810400BF1010BBBF1010F08BF5FEA24
:10140000170722BF12F1010211F101014FF0004153
:1014100043F1000300F0004043EA00007047F9D3B5
:101420005708DAE746EA064613F1400F4FEA164638
:101430001FDD13F1200FDFBF16430A4600212033C2
:101440005B42C8D0C3F1200746EA064602FA07F716
:101450004FEA164646EA0706C3F1200722FA03F2CE
:1014600001FA07F721FA03F14FF0000342EA0702FD
:10147000B1E746EA020646EA06464FEA164646EA5B
:101480000106BCBF46EA0646360C4FF000034FF09B
:1014900000024FF000019EE72DE9C048934630B4AA
:1014A00091E8380007C831EA400C48BF34EA430CE1
:1014B00003D5FFF7F2FDFFF78CFFF0BCBDE8008815
:1014C0002DE9C048934630B491E8380007C810F0C1
:1014D000804F08BF13F0804F03D100F005F8FFF7ED
:1014E00078FFF0BCBDE8008820F07F4780EA030069
:1014F00023F07F4C07EB0C03A3F57C5300F0004076
:10150000A3F1FE0392F0000F00F0B38095F0000FFE
:1015100000F077802DE901494FEA11404FEA144667
:1015200021EA004800FB06FC24EA064708FB06F611
:1015300007FB08F800FB07F718EB06484CEB164CC6
:101540004FEA124B18EB07484FEA15464CEB174091
:1015500022EA0B4E0BFB06FC25EA06470EFB06F6BD
:1015600007FB0EFE0BFB07F71EEB064E4CEB164C73
:101570004FF000061EEB074E4CEB174B18EB0B0819
:1015800040F1000018EB0E0B58EB000840F1000092
:101590008F1A4FF000013CBFC943661B14BFB5EB67
:1015A000040C00213CBFC943F61B4FEA17444EEA26
:1015B0008E0E27EA04454FEA1C4704FB07622CEA1B
:1015C000074C05FB07F70CFB05F604FB0CFC16EBC0
:1015D000074642EB174216EB0C4642EB1C421BEB54
:1015E000060658EB0202414146EA9E0601D5BDE8D7
:1015F0000189B619524141EB0101A3F10103BDE894
:1016000001894FEA14454FEA114724EA054621EAC9
:10161000074C05FB07F406FB07F70CFB06F105FB7F
:101620000CFC11EB074144EB17444FEA124711EB56
:101630000C4144EB1C4422EA074C05FB07F206FB75
:1016400007F70CFB06F605FB0CFC16EB074642EB16
:10165000174216EB0C4642EB1C456A1854F1000188
:1016600048BF7047B619524141EB0101A3F1010394
:10167000704795F0000F37D04FEA11424FEA1447F8
:1016800021EA024624EA074C02FB07F106FB07F7B2
:101690000CFB06F402FB0CFC14EB074441EB174176
:1016A0004FEA154714EB0C4441EB1C4125EA074C6B
:1016B00002FB07F506FB07F70CFB06F602FB0CFC2A
:1016C00016EB074645EB174516EB0C4645EB1C425F
:1016D000121951F1000148BF7047B619524141EB50
:1016E0000101A3F1010370474FEA14454FEA114786
:1016F00024EA054621EA074C05FB07F106FB07F73C
:101700000CFB06F24FF0000605FB0CFC12EB074247
:1017100041EB174112EB0C4251EB1C4148BF7047A3
:10172000921841EB0101A3F101037047CB0800EBD4
:101730008300036A4907C90E4FF00F0C0CFA01FC35
:1017400023EA0C030362036A02FA01F119430162FE
:10175000704700002DE9F04F4FF0000CDDE909A9BA
:1017600001274FF0030800BF07FA0CF501EA050452
:10177000AC4236D1D0F800B04FEA4C0408FA04F677
:101780002BEA060BC0F800B0D0F800B002FA04FE55
:101790004BEA0E0BC0F800B0012A18BF022A18D17C
:1017A000D0F808B02BEA060BC0F808B0D0F808B0A3
:1017B0000AFA04FE4BEA0E0BC0F808B0D0F804B0E9
:1017C0002BEA05054560456803FA0CFB45EA0B0565
:1017D0004560C568B543C560C56809FA04F42C4383
:1017E000C4600CF1010CBCF1100FBDD3BDE8F08F4B
:1017F00070B41A4C4FF0070C2CEA030C25684FF616
:10180000FF06354045F0FD7545F0806545EA0C2C36
:10181000C4F800C0C3F1040C00FA0CF04FF00F0C38
:101820002CFA03F3194008435109890001F1E02122
:10183000D1F8003102F01F0C012404FA0CFC43EA39
:101840000C03C1F8003102F1E02191F8002442EAD2
:10185000001081F8000470BC704700000CED00E03F
:1018600070B5DFF850C0DCF8004044F00104CCF85B
:101870000040114D00242C60DCF8005025F41025A8
:1018800025F08075CCF800500CF104060B4D356046
:10189000DCF8005025F48025CCF80050DFF820C09B
:1018A000CCF8004000F018F806486FF30804046014
:1018B00070BD00000038024008380240103000249B
:1018C0000C38024008ED00E002480168491C016044
:1018D0007047000040000020F0B4DFF8D4C0064696
:1018E0000025DCF80040284644F48034CCF8004061
:1018F00041F6FF77DCF8004014F4003F04D1BD420C
:101900003CBF6C1CA5B2F5D3BD4202BF0120F0BCA8
:101910007047284C256845F080552560264C256881
:1019200045F440452560254C256845F4144525605F
:10193000DCF8005025F08075CCF80050204D52089E
:1019400041EA861105EB0242114341EA0361221F7D
:1019500041F480011160DCF8001041F08071CCF896
:10196000001000BFDCF8001011F0007FFAD015491C
:101970000A6842F480720A600A6842F400720A60DF
:101980000A6842F480620A600A6842F005020A604E
:10199000216821F003012160216841F002012160EA
:1019A000216801F00C010829FAD1F0BC7047000051
:1019B00000380240403802400070004008380240C1
:1019C0000000FFFF003C02401648018811F0200F84
:1019D00008BF70478088C2B21348018811F4004FD5
:1019E00018BF704711F4804F4FF0000307D00A2A48
:1019F0000EBF41F4004103807047018070470D2AFB
:101A000008BF41F48041F8D010B4C1F30D0C074C6D
:101A1000491C89B204F80C200180C72988BF0380C3
:101A200010BC70470010014000000020840000201E
:101A300003B401984100009850EAC12018BF042067
:101A40004A0D18BF40F0010040F2FF72B2EB515F47
:101A500008BF40F00200012808BF052002B070470F
:101A600030380A2801D201207047002070477047A3
:101A700070477047F0B5B0F900600746C6F3C01074
:101A800083B00C4600281EBF06F07F0003B0F0BDF7
:101A900016F00700C6F3C30141EA011112D0012874
:101AA00018BF354622D0218FA8B200F049FC20870C
:101AB00005F07F0006F47F41014341F08001398049
:101AC00003B0F0BD2229B8BF2221208FCDE900103C
:101AD000D4E90510B4F90230B4F9002000F00BF994
:101AE00005B2E08F002808BFE587DCE7228F04F10C
:101AF000280000F0EFF805B2A08F002808BFA587E6
:101B0000D1E70020704770B50E4615461146FFF725
:101B1000B1FF044629463046FFF7ACFF201A70BDDE
:101B20006AB9028802F47F43C2F307221A43028093
:101B30000A8802F47F43C2F307221A430A80B0F9ED
:101B40000200B1F90210401A704700002DE9F05F61
:101B50000023B0F904A08946456A024698461F460C
:101B600069F31F469C46BAF1000F47DD0CF0FF00F9
:101B700060F30F062C46311408D484B16068B0F9C4
:101B80000200884218BF2468F7D108E03CB1D4F8BD
:101B900004B09BF800B0834518BF2468F6D100203C
:101BA0003DB100BFD5F800B0286028465FEA0B05BC
:101BB000F8D10546002C49D008F101001FFA80F841
:101BC0006068B0F9000010F0010F03D0C0F34020AE
:101BD000184483B2206830B1D0F800B0C4F800B027
:101BE0002C68046028600029A4BF481C60F31F46CD
:101BF0000CF101000FFA80FCD445B7DBC7EB88007D
:101C0000184487B2B9F1000F04DD3049284600F0CE
:101C10004BFA05462868D0E90081D8F804204260D4
:101C2000C8F804100168096801600020C8F80000C5
:101C30002846311448BF31B212D4D0B14268B2F94B
:101C400002208A4218BF0068F7D110E0781C87B2E2
:101C5000286840680088C0F30020184483B2C2E7B7
:101C600038B1426812788A4218BF0068F8D1044639
:101C700001E02C684CB168683946B0F9000000F00A
:101C800037FB24680746002CF5D12868D8F80410E3
:101C90004268C8F8042041600168C8F80010C0F824
:101CA000008000220A49284600F0FEF90468054633
:101CB0004CB168683946B0F9000000F019FB24689F
:101CC0000746002CF5D13846BDE8F09F071B0008F9
:101CD000211B000838B51546D0E90123D0F800C013
:101CE000C46800912146604601F08CF82946BDE8A1
:101CF000384000F0FDBA2DE9F04F95B08046002045
:101D0000DDE91E6A0A900B900C900F9010900D90D8
:101D10000E901190009001900D4602900390049057
:101D200005900690CDE907052878994693466F46B9
:101D300060B10AA908A800F00AFA57F82010491C57
:101D400047F82010089800780028F2D105EB080029
:101D5000401B3044A0F1010898FBF6F02C46089592
:101D60000028C8BF0BF0FF0207DD21782C291CBF1B
:101D7000514021703444401EF7D10895287860B155
:101D80000AA908A800F0E3F957F82010491C47F801
:101D90002010089800780028F2D198FBF6F00895FA
:101DA0000028C8BF09F0FF0207DD29782C291CBFD5
:101DB000514029703544401EF7D100240AAD57F830
:101DC0002400514600F0E1FA55F82420014610465F
:101DD00000F0DBFA641C8246082CF0D315B0BDE895
:101DE000F08F00002DE9F04F00244FF0010C002A85
:101DF00008BF0122002805D9641C04FB04F5ED008E
:101E0000A842F9D8491E601E21F0030101F1040B1C
:101E100000FB00FE0BEB4E0A002818BF002128D95A
:101E200000E018B301FB00F40AEB44060BEB440599
:101E30004FF000044FEA00070CEB040909FB02F223
:101E40004FEAE27802EB18486FF30F08A2EB0802A2
:101E500009EB020826F8028BC84408F0FF0825F8B1
:101E6000028B04F101047F1EE6D18444491C8142A7
:101E7000D7D30AEB4E01C3E901BA491E21F0030191
:101E8000091DD9601860BDE8F08F00002DE9F84FFA
:101E90004FF0000CA0F10108654666466746B8F1B0
:101EA000010F4DD9DFF8E8A00AF1100B0AF1200E5E
:101EB0001DE0E5B102EB0C00731E0090401E15F012
:101EC000010F03D013F801CF00F801CF5FEA550CE2
:101ED00008D05C78447013F8024F00F8024FBCF150
:101EE000010CF6D1009B2C2009F1010C5855481C1F
:101EF00001B201F0070008281CD2DFE800F004045A
:101F0000040A0A0F0F15C1F3C10004255AF8206016
:101F100010E0C1F3C1005BF8206003E0C1F3C10031
:101F20005EF82060082505E01A48C1F3C1030825C2
:101F300050F823600CEB050909F101004045B8D3C6
:101F400008F10100844538BFB0F1004F14D202EB14
:101F50000C01A0EB0C00491E10F0010F18BF01F896
:101F6000017F400808BFBDE8F88F4F7001F8027F7D
:101F7000401EFAD1BDE8F88F604598BFBDE8F88FE4
:101F800002F80C700CF1010C8445F9D3BDE8F88F10
:101F900044000020740000202DE9F00F1423B0FB52
:101FA000F3F0871E01EBC70400234C600B606380D5
:101FB000D1F804C048F280030846ACF8003001F1C3
:101FC000080C231D103104EB870547F6FF794FF00D
:101FD000FF36A1423CBF03F10408A8450DD261467B
:101FE000D0F80080C1F8008001604B6019460CF108
:101FF000080C0E801B1DA1F802900021002F22D991
:1020000082EA010606F00F080E4668F3DF0646EA8C
:10201000062A0CF10806A6423CBF03F10408A845B5
:102020000ED2E0460668C8F80060C0F80080C8F824
:102030000430A3F800A0A3F802900CF1080C1B1DBB
:10204000491CB942DCD303680121D3F800C0BCF1BC
:10205000000F1FD0DFF848C0ACFB074C4FEA9C04D0
:102060008C4205D9D3F804C0ACF80210491C0BE02F
:1020700081EA020C491C01F007054CEA052C5D6859
:10208000CCF30D0CA5F802C01B68D3F800C0BCF15E
:10209000000FE5D1BDE8F00F0022024900F004B8BE
:1020A000CDCCCCCC211B00082DE9F74F82464FF058
:1020B000010900BF5FEA0A054FF0000A5746D34600
:1020C0003FD000262C4630460BF1010BB9F1000F32
:1020D000D8BFC84624DD2468761C002C1CBF401CD9
:1020E0004845F8DBC846002E1ADD7EB1B8F1000F76
:1020F00018BF002C06D0DDE9013261686868984796
:10210000002803DC28462D68761E03E0204624685C
:10211000A8F10108002F14BF386082460746E2E7A5
:10212000B8F1000F02DD002CDFD101E02500C8D19D
:1021300000203860BBF1010FC8BF4FEA4909B9DC84
:1021400001E00020006003B05046BDE8F08F036856
:10215000844600201A78002A00F0C7802C2A59D023
:10216000A2F13000092831D80A680420521C0A6004
:1021700013F8012F002A74D02C2A78D05CE0A2F149
:10218000300009286ED88A690720521C8A6113F82A
:10219000012F002A65D02C2A78D168E02B2A18BF9D
:1021A0002D2A74D0CA680120521CCA605FE0A2F1D7
:1021B000300009282FD88A680420521C8A6013F83E
:1021C000012F002A4DD02C2A51D035E02B2A18BFE0
:1021D0002D2A0AD02E2A13D04A680120521C4A60A8
:1021E0000A68521C5B1C0A607FE00A680220521CCD
:1021F0000A6013F8012F002A77D02C2A37D0D6E7AF
:102200000A680520521C0A6013F8012F002A6CD0BE
:102210002C2A2ED12BE02E2A04D08A680120521CB1
:102220008A6024E08A680520521C8A6013F8012F16
:10223000BAB12C2A1DD11AE02E2A08D0303A092A28
:1022400011D813F8012F62B12C2AF5D10FE00A69D9
:102250000520521C0A6113F8012F12B12C2A08D153
:1022600005E041E02DE00A690120521C0A615B1C77
:102270003BE0452A18BF652A0AD0303A092A11D80E
:1022800013F8012F82B32C2AF3D1F0E71EE00EE001
:102290004A690320521C4A6113F8012F22B32C2AE9
:1022A000E5D07BE74A690120521C4A61DFE7CA6832
:1022B0000620521CCA6013F8012FAAB12C2AD6D0CE
:1022C0005DE78A690120521C8A61D0E7303A092A09
:1022D00005D813F8012F3AB12C2AF7D1C7E74A687D
:1022E0000120521C4A60C2E7FFE7CCF8003070477B
:1022F0001FFA80FC0CF0FF005FF0080280EA010387
:1023000013F0010F4FEA50001ABF4AF2010383EAAB
:1023100051014908521EF1D108464FEA1C220821FA
:102320004AF2010C82EA000313F0010F4FEA520255
:1023300014BF8CEA50004008491EF3D170470000DA
:102340000346C0B25FF0080280EA010C1CF0010FE6
:102350004FEA50001ABF4AF2010C8CEA51014908B9
:10236000521EF1D108461A0A08214AF2010C00BF98
:1023700082EA000313F0010F4FEA520214BF8CEA05
:1023800050004008491EF3D1704710B5044600B212
:10239000FFF7AEFF22140146BDE810401046FFF7DC
:1023A000A7BF000003490A8812F0400FFBD0C2B259
:1023B0008A80704700100140062810D2DFE800F044
:1023C0000F0306080B0D074800687047064800E039
:1023D0000648006870470648FBE70648F9E7002012
:1023E00070470000280000202C0000203000002052
:1023F00034000020380000200148006870470000C9
:1024000040000020000000002DE9F34F2DED068B69
:10241000ADF6240D00250A462C464FF0FF38A9469C
:102420000DF63C0102AF0DF14A0000F053FE012011
:10243000FFF7C2FFADF808000220FFF7BDFFADF8BF
:102440000A000320FFF7B8FFADF80C000420FFF7E7
:10245000B3FF09900520FFF7AFFF0A90002804BFE3
:1024600007200A90BDF9080066214FF0000A0028F5
:1024700004BFBDF80A20002A05D1BDF80C20002AAF
:1024800008BFADF80C10012801BFBDF80A000028F4
:10249000BDF80C00002807D143F21540ADF8080044
:1024A000ADF80A00ADF80C1014A804904FF4FA60CF
:1024B00008900A98ADF848A010F0010F4FF0010BFA
:1024C00018BF01240A9810F0020F18BF641C0A9864
:1024D00010F0040F18BF641C0898B0FBF4F00890CB
:1024E0000A9810F0010F05D00899049801FB050027
:1024F000012505900A9810F0020F05D0089904985C
:1025000001FB05006D1C06900A9810F0040F04D022
:102510000899049801FB05000790002505EB0516B6
:1025200007EB860494F8200010F0010F06D037F96D
:102530002620E1680898FFF72FFD606294F82000DC
:1025400010F0020F0AD037F92610608804F1280332
:1025500041EA004221690898FFF744FC94F8200002
:1025600010F0040F05D037F9261062690898FFF7BC
:102570008DFC681C05042D0CD0D09FEDF19B0998B3
:10258000002852D1B0EE498AF0EE698A9FEDEEAB99
:10259000CDF824B034E0099800EB800040000990A9
:1025A00000F0CEFD099EADF840A0ADF844A0002596
:1025B00002ACADF842A0ADF846A0002E16D901211C
:1025C0002046FFF7C3FA218FFFF7BAFE20874FF0AE
:1025D000FF312046FFF7BAFA218FFFF7B1FE2087BF
:1025E000002D08BF60876D1CB542E8D300F0BEFD2A
:1025F000FFF702FF00F0C4FDB0EE408AF0EE608A03
:1026000053EC1A2B51EC180B00F0F4FFC3D351EC30
:10261000180B00F0AFFF002808BF01200A21B1FB12
:10262000F0F00999401C4843099000F089FD099D8C
:10263000ADF840A0ADF844A0002602ACADF842A031
:10264000ADF846A0002D16D901212046FFF77EFAED
:10265000218FFFF775FE20874FF0FF312046FFF7EF
:1026600075FA218FFFF76CFE2087002E08BF608768
:10267000761CAE42E8D300F079FDFFF7BDFE009076
:10268000BDF908000021FFF733FEBDF90A2001461D
:102690001046FFF72DFE0146BDF90C00FFF728FE9E
:1026A000089A014612B21046FFF722FE47F605329D
:1026B000811AA74D0190904204BF4FF00108A5A0D8
:1026C00028D012DC00F20E70B0F5005004BF4FF0BD
:1026D0000408ACA01ED000F64320B0F5804F04BF24
:1026E0004FF00208B3A015D00BE0A1F56060FD38F3
:1026F0000AD00D30B0F5C04F04BF4FF00308BAA0A8
:1027000008D04FF0FF395AE04FF00008C2A0FDF7A3
:10271000CDFD01E0FDF7CAFD2868002818BF0024A0
:1027200088BFDFF824B34AD904EB041007EB800616
:10273000A6F840A096F8200010F0010F0DD0728F7F
:102740003BF818309A4208D02146C0A0FDF7AEFDF4
:10275000B6F84000401CA6F8400096F8200010F0A3
:10276000020F0ED0C548B28F30F818309A4208D008
:102770002146C3A0FDF79AFDB6F84000401CA6F81C
:10278000400096F8200010F0040F0ED0C948F28FD8
:1027900030F818309A4208D02146C7A0FDF786FDD0
:1027A000B6F84000401CA6F84000B6F84000484487
:1027B0000FFA80F9601C84B228688442B4D3FFF712
:1027C000A0F9484406B2C9A00899FDF76FFDCEA054
:1027D0000099FDF76BFD009800F0D2FC53EC102B34
:1027E000D0A0FDF763FD009800F0CAFC53EC192B54
:1027F00051EC100B00F08EFF16D2009800F0C0FCD8
:1028000009982968B0EE408AF0EE608A484300F0EB
:10281000DEFE53EC182B00F055FD41EC100BC7A069
:1028200053EC102BFDF742FD009800F0A9FC9FED42
:10283000CA1B51EC100B53EC112B00F0DBFE04D241
:10284000C7A0FDF733FD701C06B209982968414303
:10285000D3A0FDF72BFDD9A1E4A0FDF727FDE9A149
:10286000EFA0FDF723FDF4A1F5A0FDF71FFDFAA0F1
:102870000199FDF71BFD0A9810F0010F1EBF286893
:10288000002800240ED900BF04EB041007EB8000E1
:102890002146428FF7A0FDF709FD601C84B228682D
:1028A000A042F1D80A9810F0020F1EBF2868002835
:1028B00000240DD904EB041007EB80002146828F21
:1028C000F4A0FDF7F3FC601C84B22868A042F1D8A4
:1028D0000A9810F0040F13D02868002818BF0024AD
:1028E00022D00FD904EB041007EB80002146C28FE1
:1028F000F0A0FDF7DBFC601C84B22868A042F1D890
:10290000286888B1002400280ED900BF04EB041009
:1029100007EB80002146028FEEA0FDF7C7FC601C8C
:1029200084B22868A042F1D8002EC8BFF1A004D01C
:1029300004DD00BFFDF7BAFC14E2E5E10FE20000A0
:102940000000000000000000000000000000F03F58
:102950003C000020366B2076616C69646174696F9D
:102960006E2072756E20706172616D657465727330
:1029700020666F7220636F72656D61726B2E0D0A37
:1029800000000000324B2076616C69646174696FED
:102990006E2072756E20706172616D657465727300
:1029A00020666F7220636F72656D61726B2E0D0A07
:1029B0000000000050726F66696C652067656E6587
:1029C000726174696F6E2072756E20706172616DD4
:1029D000657465727320666F7220636F72656D61D6
:1029E000726B2E0D0A000000324B20706572666F0C
:1029F000726D616E63652072756E20706172616DBB
:102A0000657465727320666F7220636F72656D61A5
:102A1000726B2E0D0A000000366B20706572666FB7
:102A2000726D616E63652072756E20706172616D8A
:102A3000657465727320666F7220636F72656D6175
:102A4000726B2E0D0A000000080000205B25755DEA
:102A50004552524F5221206C697374206372632077
:102A6000307825303478202D2073686F756C6420A1
:102A70006265203078253034780D0A00120000207D
:102A80005B25755D4552524F5221206D617472690C
:102A9000782063726320307825303478202D2073BD
:102AA000686F756C64206265203078253034780D4D
:102AB0000A0000001C0000205B25755D4552524F46
:102AC000522120737461746520637263203078250D
:102AD000303478202D2073686F756C642062652017
:102AE0003078253034780D0A00000000436F72659D
:102AF0004D61726B2053697A65202020203A202591
:102B00006C750D0A00000000546F74616C207469CC
:102B1000636B732020202020203A20256C750D0A3D
:102B200000000000546F74616C2074696D6520288A
:102B300073656373293A2025660D0A00497465722E
:102B40006174696F6E732F5365632020203A2025CE
:102B5000660D0A0000000000000000000000244094
:102B60004552524F5221204D75737420657865632C
:102B700075746520666F72206174206C6561737472
:102B8000203130207365637320666F722061207678
:102B9000616C696420726573756C74210D0A0000A4
:102BA000497465726174696F6E7320202020202043
:102BB000203A20256C750D0A00000000506C6561FC
:102BC00073652070757420636F6D70696C65722019
:102BD00076657273696F6E20686572652028652E50
:102BE000672E2067636320342E312900436F6D7098
:102BF000696C65722076657273696F6E203A202564
:102C0000730D0A002D4F6873202D6E6F5F73697A04
:102C1000655F636F6E73747261696E747300000038
:102C2000436F6D70696C657220666C6167732020FC
:102C3000203A2025730D0A00535441434B000000F5
:102C40004D656D6F7279206C6F636174696F6E2072
:102C5000203A2025730D0A00736565646372632052
:102C60002020202020202020203A203078253034B9
:102C7000780D0A005B25645D6372636C6973742070
:102C80002020202020203A203078253034780D0A6A
:102C9000000000005B25645D6372636D617472699E
:102CA0007820202020203A203078253034780D0AF2
:102CB000000000005B25645D63726373746174657A
:102CC0002020202020203A203078253034780D0A2A
:102CD000000000005B25645D63726366696E616C71
:102CE0002020202020203A203078253034780D0A0A
:102CF000000000004572726F727320646574656332
:102D00007465640D0A0000001C48FDF7CFFAB8F1A5
:102D1000030F27D1009800F033FA09982968B0EE24
:102D2000408AF0EE608A484300F051FC53EC182BC7
:102D300000F0C8FA41EC100BAFF23811AFF284107A
:102D4000CDE9000153EC102B0DA0FDF7AFFAAFF267
:102D5000181112A0FDF7AAFAAFF2C010EAE5114867
:102D6000FDF7A4FA07F1420000F0B1F90DF6240DC9
:102D70000020BDEC068B02B0BDE8F08FC038000823
:102D8000436F72654D61726B20312E30203A2025E1
:102D900066202F202573202573000000202F20257A
:102DA000730000005C3800082DE9F0010024A04603
:102DB000A446002818BF002516D900E088B105FBFD
:102DC00000F301EB8306074633681C4494420FDD91
:102DD0000CF10A0C0FFA8CFC0024361D98467F1E5D
:102DE000F2D16D1C8542E9D3BDE8F0016046704721
:102DF0004345CCBF4FF001084FF00008C4440FFA20
:102E00008CFCEAE72DE9FF4F91B000261E98139A3B
:102E100040F4704000B20C9011981E9900FB00F332
:102E20000B93002818BF5FEA030C14D010F00100C8
:102E300002D013880B44138084450CD932F810302B
:102E40000B4422F8103002EB4003801C5C88844560
:102E50000C445C80F2D8DDE91109DDF84C801E9D40
:102E6000002818BF002488BF470826D904FB00F1BA
:102E700008EB410209EB8101A2F1020CA1F104036C
:102E800010F0010F05D03CF9021F01FB05F143F8DA
:102E9000041F3A000BD000BFBCF90210694359600F
:102EA0003CF9041F694343F8081F521EF4D1641C07
:102EB000844202D20028D9D1F9E7DDE911010C9A48
:102EC000FFF772FF3146FFF713FA0190DDE911C8F1
:102ED000DDE913BABCF1000F18BF002484BF4FEA2C
:102EE0005C0900272CD9384648F82470BCF1000F43
:102EF00023D004FB0CF10BEB41018A1EAAF1020363
:102F00001CF0010F05D032F8021F33F8025F11FBED
:102F1000050000255FEA09010CD05688B3F802E0ED
:102F200016FB0E0032F8046F33F804EF16FB0E5553
:102F3000491EF2D1284448F82400641C6445D2D3C9
:102F4000DDE911010C9AFFF72FFF0199FFF7D0F986
:102F50000190DDE911071399099114990D91002849
:102F600018BF002588BF4FEA50083FD94FF0000630
:102F7000002835D9099A05FB00F102EB410A05FB4F
:102F80000069002147F8291038B3331A0D9AAAF1C5
:102F9000020C02EB430310F0010F06D003EB4003D9
:102FA0003CF8022F1C8812FB041100245FEA08027F
:102FB00010D000BFBCF802B033F810E01BFB0E11BC
:102FC00003EB80033CF804BFB3F800E01BFB0E44A6
:102FD000521EEFD1214447F82910761C8642CED3E9
:102FE0006D1C854202D20028FAD0BFE7DDE911014D
:102FF0000C9AFFF7D9FE0199FFF77AF90190DDE904
:10300000110813990A91DDF850B0002818BF002666
:1030100088BF4FF000092DD94FF00004002823D9B4
:103020000A9A06FB00F102EB410A06FB004E4946F4
:1030300048F82E90A8B152460BEB44034FEA000526
:1030400032F802CB1F881CFB07FCCCF38307CCF3C0
:10305000461C17FB0C1103EB40036D1EF0D148F822
:103060002E10641C8442E0D3761C864202D20028D3
:10307000FAD0D1E7DDE911010C9AFFF795FE01992D
:10308000FFF736F91E9A11995242139B0FFA82FCF0
:1030900000291CBF0B9C002C15D011F0010102D09F
:1030A0001A8862441A808C420DD900BF33F811206F
:1030B000624423F8112003EB4102891C55888C429D
:1030C00065445580F2D815B000B2BDE8F08F0021FC
:1030D0000170704710B50446042207231146902062
:1030E000FEF7BEFB4FF4E131242000F059F805490A
:1030F00005A0FDF7DBF808A0FDF7D8F80120207047
:1031000010BD000000A24A04436869705F4D487A10
:103110003A25640D0A00000054686520436F72650B
:103120004D61726B2069732072756E696E672C50E9
:103130006C6561736520576169742E2E2E0D0A002F
:103140000748002101604FF0E020064A4261064B2B
:10315000F02283F8142D816107210161704700007E
:10316000400000203F1901000FE000E04FF0E02098
:10317000016921F0010101610021816170470000B6
:1031800010B500F024FA9FED041B53EC112B00F056
:1031900099F841EC100B10BD0000000000408F407A
:1031A000324A30B5504300EE100A08014FF6FF7264
:1031B000B8EE401A00EE100A83B0B8EE400AC1EE35
:1031C000000ABCEEE00A10EE100A80B200EE100A0F
:1031D00002EA0010B8EE400A30EEC00AF3EE000A30
:1031E00020EE200ABCEEC00A10EE101A4518204846
:1031F000016841F0010101601E48016841F01001C1
:10320000016002200121CDE900011B4C0246002390
:103210004FF4C0612046FEF79DFA0722092120469F
:10322000FEF784FA07220A212046FEF77FFA134CA4
:103230002581A08920F40040A081A08940F00800E9
:10324000A081A08940F00400A081A08940F0200066
:10325000A0810321022325220846FEF7C9FAA0898E
:1032600040F40050A08103B030BD000040420F0088
:103270003038024044380240000002400010014053
:1032800010B500290AD00878002807D005487844EE
:10329000FDF76AFD002801D0002010BD02487844E7
:1032A00010BD00004E07000046070000491058BF3F
:1032B000C1F140415B1058BFC3F140438B42EFF373
:1032C000008070472DE9C04130B4DFF8A0C23CEA6D
:1032D000111418BF3CEA131400F0EC8081EA0305D6
:1032E0001CEA111444EAD57418BF1CEA131500F047
:1032F000C780A4EB05044FF0004545EAC12145EA2B
:10330000C32341EA505143EA525304F17F74994276
:1033100004F500344FEAC0204FEAC22208BF9042B1
:1033200000F09C804FEA13650FF24016765D4FEA7D
:10333000134506FB05F7C7F1807706FB07F74FEA51
:10334000D737A7FB03687642C8F58038A7FB06CEBF
:1033500038BFA8F1010807FB08E64FF0000EA6FBF6
:10336000028CE6FB03CEDCF1000CCEF1004E38BF40
:10337000AEF1010EA6FB0C584FF000074FF0000510
:10338000E6FB0E87A1FB08C6A0FB07CE16EB0E06D8
:1033900045F10005E1FB076515F1E04E7EBFA4F5A0
:1033A00080345FEA46066D4116F1800745F100055D
:1033B0004FEA17274FEA066647EA0567A6F1DE4699
:1033C000B6F1805F4FEA15251FD9384624F0010C6D
:1033D00005EBC471BCF1FE6F01EB0C1102D8F0BC1F
:1033E000BDE8008124425CBF01F5801E9EEAC47FD7
:1033F00002D4F0BCBDE80081244238D4F0BCA1F175
:10340000C041BDE8004100F07FB94FEAD22242EA54
:1034100043524FEAD323A7FB02864FEAD02040EA6B
:10342000415007FB03661EEA0E0F4FEAD12105FB50
:10343000026658BFA6EB0056B6EB00564FEA520E96
:103440004EEAC37E18EB0E0E56EB530EBDD518EBAD
:1034500002085E417F1C55F10005B6E74FF4801568
:103460004FF000074FF000064FF00008ADE7F0BC4A
:103470004FF0000001F1C04101F00041BDE80081C2
:1034800011EA0C1F0CEA131500D00CE013EA0C1F14
:1034900000F025804FF00000F0BC81EA030101F04C
:1034A0000041BDE80081F0BCBDE8004181EA0301B4
:1034B00000F02AB9F0BCBDE8004170B500F0D6F8C4
:1034C000097EFC3E00F007B881EA03014FF00000DE
:1034D00001F00041704781EA030100F015B9F0BC2A
:1034E000BDE800414FF0000021497047FFFDFBF9A6
:1034F000F7F5F4F2F0EEEDEBE9E8E6E4E3E1E0DE27
:10350000DDDBDAD8D7D5D4D3D1D0CFCDCCCBCAC898
:10351000C7C6C5C4C2C1C0BFBEBDBCBBBAB9B8B7BF
:10352000B6B5B4B3B2B1B0AFAEADACABAAA9A8A8B2
:10353000A7A6A5A4A3A3A2A1A09F9F9E9D9C9C9B80
:103540009A9999989797969595949393929191902B
:103550008F8F8E8E8D8C8C8B8B8A898988888787BC
:103560008685858484838382828181800000FF0731
:103570000000F87F4FEA1153A3F58063D3F11E03D7
:10358000A8BFD3F1200C08DB4FF0004242EAC12271
:1035900052EA505232FA03F0704709420BD4102B12
:1035A000C4BF0020704703F5787CBCF1FF3F05D015
:1035B0004FF0FF3070474FF00000704770B500F0DB
:1035C00055F800BF4992248000207047F0E7B0FA18
:1035D00080F310FA03F10AD0C3F11D0303F58063F1
:1035E0004FEA41504FEA035202EBD12170474FF0AE
:1035F0000000704751EA030C17D41CF5801F58BF18
:10360000BCF5801F00F10680994218BF704708BFC3
:103610009042704707D711F5801F58BF13F5801FE0
:1036200019D499427047894270471CF5801F08D50C
:10363000BCF5801FF7D58B4218BF704708BF824288
:1036400070474FF4001C1CEB410F38BF1CEB430FBD
:1036500001D28B42704770B500F008F892244900FF
:103660004FF000514FF08053FFF720BE0EF1020ED5
:103670002EF0030E5EF8046B364205D4012A43EBAC
:10368000030515F5001F12D8012841EB010C1CF5AC
:10369000001F0CD80ED14FEAD17C15F5001F0CEBA2
:1036A0004C0C0CF1020C08BF4CEBD37C04E04FF047
:1036B000080C01E04FEAD37C0CEB4C0526FA05F62A
:1036C00006F00706B6F1040C06D20EEB860CBDE838
:1036D00070404CF0010C6047DFE80CF0090B02026F
:1036E0004FF000414FF00000A1F5002170BD1946D8
:1036F0001046012851EB010418BFD4F5001484BF13
:10370000002001F0004170BD0808A0F500114FEA4B
:103710003101704753EA010C17D41CF5801F58BFC4
:10372000BCF5801F00F106808B4218BF704708BFB0
:103730008242704707D713F5801F58BF11F5801FCD
:1037400019D48B4270479B4270471CF5801F08D5E7
:10375000BCF5801FF7D5994218BF704708BF90424B
:1037600070474FF4001C1CEB430F38BF1CEB410F9C
:1037700001D2994270470FB40CBC03BCFFF76BBF7A
:103780004FF04070E1EE100A7047FDF74BB8303152
:103790003233343536373839414243444546403078
:1037A000580030313233343536373839616263642A
:1037B000656640307800040000080000000000004A
:1037C000000200010000100002400000000000A004
:1037D0000000000005400000000000C800000000DC
:1037E0000C4000000000409C000000001940000058
:1037F0000020BCBE0000000034400000BFC91B8E8A
:1038000000000004B5400000504BCFD06607E2CF67
:10381000010000006C4100003E8251AADFEEA73497
:1038200001000000D9420000DCB5A0E23A301F9749
:10383000FFFFFFFFB4450000FD25A0C8E9A3C14F6D
:10384000FFFFFFFFFF3F00000000008000000000BE
:10385000FF3F0000000000800000000043616E6E2A
:103860006F742076616C6964617465206F70657235
:103870006174696F6E20666F72207468657365206D
:10388000736565642076616C7565732C20706C655A
:1038900061736520636F6D7061726520776974680C
:1038A00020726573756C7473206F6E2061206B6E6F
:1038B0006F776E20706C6174666F726D2E0D0A00EA
:1038C000436F7272656374206F7065726174696FA3
:1038D0006E2076616C6964617465642E2053656541
:1038E00020726561646D652E74787420666F722035
:1038F00072756E20616E64207265706F7274696E8D
:10390000672072756C65732E0D0A000033352E35F5
:1039100034343030000000002B302E363434303058
:10392000000000002E31323334353030000000000A
:103930002D3131302E373030000000002D2E313245
:1039400033652D32000000002B302E36652D3132CC
:103950000000000035303132000000002B313232DF
:10396000000000002D3837652B383332000000008E
:10397000352E353030652B330000000031323334C2
:10398000000000002D3837340000000054302E3382
:10399000652D31460000000033342E30652D545E15
:1039A000000000002D542E542B2B547100000000F9
:1039B0003154332E3465347A00000000F8390008A1
:1039C0000000002084000000C40100087C3A0008C8
:1039D000840000202C210000E00100081C000000F1
:1039E00043000000F8FFFFFF0C0000000E00000085
:1039F0000F0000002E00000000000000000000008A
:103A0000B0D44033796A14E7C1E352BE9911085625
:103A1000D71F4707475EBF39A4E53A8E848D000063
:103A2000000000000000000066000000D007000059
:103A300000000000010000000000000054390008F0
:103A40007C390008843900085C3900080C3900080A
:103A50002439000830390008183900087039000886
:103A60003C39000864390008483900088C390008DE
:0C3A7000A4390008B0390008983900089B
:040000050800018965
:00000001FF
