:020000040800F2
:10000000E023002009020008F1170008E9170008A2
:10001000ED170008CD160008EF1C000800000000D6
:10002000000000000000000000000000711900083E
:10003000D116000800000000791800085D1A0008B9
:1000400023020008230200082302000823020008FC
:1000500023020008230200082302000823020008EC
:1000600023020008230200082302000823020008DC
:1000700023020008230200082302000823020008CC
:1000800023020008230200082302000823020008BC
:1000900023020008230200082302000823020008AC
:1000A000230200082302000823020008230200089C
:1000B000230200082302000823020008230200088C
:1000C000230200082302000823020008230200087C
:1000D00023020008CD1A00082302000823020008AA
:1000E000230200082302000823020008230200085C
:1000F000230200082302000823020008230200084C
:10010000230200082302000823020008230200083B
:10011000230200082302000823020008230200082B
:10012000230200082302000823020008230200081B
:1001300000F002F800F057F80AA090E8000C8244A2
:100140008344AAF10107DA4501D100F04CF8AFF27F
:10015000090EBAE80F0013F0010F18BFFB1A43F0A5
:1001600001031847B03C0000D03C0000103A24BF07
:1001700078C878C1FAD8520724BF30C830C144BF0C
:1001800004680C607047000000230024002500264E
:10019000103A28BF78C1FBD8520728BF30C148BFEA
:1001A0000B607047662903F00F85642900F0AA8070
:1001B000752900F0A780782900F0E080732900F00D
:1001C0004984002070471FB500F05AFC040000204D
:1001D000002103F079FAE0600FBC00F013F80FB4CF
:1001E0001FBD10B510BD00F063FD1146FFF7EBFF1A
:1001F00002F0BCFA00F081FD03B4FFF7F2FF03BC8C
:1002000001F095FD00F0D1BD09488047094800473D
:10021000FEE7FEE7FEE7FEE7FEE7FEE7FEE7FEE7B6
:10022000FEE7FEE704480549054A064B7047000013
:100230006D1A000831010008E0010020E0230020D1
:10024000E0030020E0030020704700000FB40449E1
:1002500010B503AA029800F001FC10BC5DF814FB75
:100260001400002070B5044685690068C10601D5F8
:10027000302600E02026C00707D070BDD4E9012158
:1002800030469047206A401C20626D1EF6D570BD36
:1002900070B5044685690078C00707D170BDD4E900
:1002A000012120209047206A401C20626D1EF6D557
:1002B00070BD70B50C460546012A05D02878800629
:1002C00000D5EA69002302E0012305E05B1C9342AC
:1002D00002D2E05C0028F9D1A869E618C01AA8612A
:1002E000286A184428622846FFF7BCFF04E0D5E9D5
:1002F000012114F8010B9047B442F8D32846FFF7C8
:10030000C7FF70BD2DE9F04106460024106875292D
:10031000314616A510D0AFF30080002802DA404223
:1003200013A507E031688A0701D512A502E0490745
:1003300004D511A5012401E0AFF3008000210A22B9
:1003400006F1240709E0B0FBF2FCB0FBF2F302FB7C
:100350001C00303078541846491C0028F3D123463D
:100360002A463046BDE8F04100F0FCB8000000002D
:100370002D0000002B0000002000000070B5044696
:100380000D4621461068AFF300802188090502D58B
:100390000F4A7A4402E00E4A7A440E32002104F1F8
:1003A000240305E000F00F060009965D5E54491C29
:1003B0000028F7D120780023000704D5702D02D043
:1003C00009B1022311322046BDE8704000F0CAB8DE
:1003D000363800002DE9F05F894604464FF0000AE8
:1003E000DFF874B1FB44C0F820A02046E1688847DC
:1003F000002874D0252806D0D4E901219047206A2E
:10040000401C2062F1E700265F462046E1688847ED
:100410002028054607DB312D05D2781910F8200C6D
:1004200008B10643F1E7B00701D526F00406C4F889
:100430001CA00027C4F818A02A2D09D0284601F0D6
:100440006CFC38B304EB8708303DC8F8185019E04D
:1004500059F8041B204604EB87029161E168884744
:10046000012F054618D1E069002820DA26F0200681
:100470001DE0D8F8180000EB800005EB4000303894
:10048000C8F818002046E1688847054601F045FC99
:100490000028EED1012F0AD02E2D08D12046E16888
:1004A00088477F1C0546022F46F02006C4DBA06962
:1004B000002803DA404246F00106A061F00701D0AF
:1004C00026F010066C2D0BD0682D09D04C2D39D09C
:1004D0006A2D35D0742D35D07A2D33D016E038E022
:1004E000E1682F4620468847B842054609D16C2F5F
:1004F00026D04FF48060E1680643204688470546D1
:1005000004E06C2F1AD04FF4807006430DB3A5F1B0
:100510004100192802D8203546F400664A4629468B
:10052000204626604E46FFF73DFE80B101280BD0E5
:10053000F61D26F0070000F1080956E74020E4E721
:100540008020D8E70020D6E706F104094DE72846C9
:1005500052E7206ABDE8F09F0C38000070477047F2
:10056000704770472DE9F0470D469946924604467C
:1005700000F124080168880604D5E06921F0100123
:10058000216000E00120A84201DD471B00E00027B8
:10059000A1697A1902EB0900081AA0612078C00647
:1005A00002D42046FFF75EFE002608E0D4E90121D0
:1005B0001AF806009047206A401C761C20624E45BF
:1005C000F4DB2078C0060AD52046FFF74BFE06E094
:1005D000D4E9012130209047206A401C2062381E57
:1005E000A7F10107F4DC07E0D4E9012118F80500C0
:1005F0009047206A401C2062281EA5F10105F3DC0B
:100600002046FFF745FE2078000602D50220BDE80F
:10061000F0870120FBE770472DE9FF4F0C461E468F
:100620004FF0FF378BB0D2E90001DDF860800A900F
:100630008A46C1F30A5505B93D46002108464FF0E8
:100640000000BAF1000F00F4400005DA00EB800072
:100650004FF4400101EA50004FEA9059B9F1010FFF
:1006600000DDB9460A9850EA4A000ED044F6105010
:10067000A5F2FF3545432F14B8F1000F1ED0754287
:10068000291E1EDDC9F100021CE0B8F1010F4FF078
:10069000000001D0302103E0F24305E02154401C6A
:1006A000B042FBDB30460022002121540B99C1F8F7
:1006B0000880C1E900200FB0BDE8F08FBD1B6D1CA4
:1006C000DEE74A4600DA694206A800F07BFA06AB8C
:1006D00093E8070003AB83E8070050460A9900F04F
:1006E0003AFC8DE80700A0F500501F3800900398F1
:1006F000002D09DD42F21F014A46084403A9039078
:10070000684600F099FE08E0A0F500504A461F3800
:1007100003A90390684600F0A3FE8DE807000004DB
:10072000000C03D04FF0FF30410800E01046B8F154
:10073000000F03D00022009215461EE0751E05D45E
:1007400000F0A2F9303262556D1EF9D5B346012290
:10075000084302D000227F1C04E02078302801D119
:1007600000227F1E002A099786D01DE0112D07DA8E
:1007700000F08AF9303262556D1C50EA0102F5D161
:10078000084302D00098C8B10EE00021681E05E0C1
:10079000235C625C63542254401E491C8142F7DB97
:1007A000AB46A81B401E0990002004F80B000B98D4
:1007B000099AC0F80880C0E9002B7CE711264FF0A9
:1007C000000859E72DE9F04F88460446D21D22F073
:1007D000070191B0D1E90001CDE90A0101F089FAE0
:1007E00002460B98C00F01D02D2007E0206881073A
:1007F00001D52B2002E0202101EAC000032A099044
:1008000001D0072A05DB03464146204600F09AF94D
:100810000BE12078800601D5E06900E00620B8F100
:10082000650F814606D0B8F1660F18D0B8F1670F92
:1008300070D131E00020B9F1110F009001DB1123DC
:1008400001E009F101030AAA01A90CA8FFF7E4FEDF
:10085000DDE90C70002609F10105834647E001201F
:100860004B4600904FF000470AAA01A90CA8FFF7D9
:10087000D3FEDDE90DB00C995D46002610B909F1F3
:1008800001000D18B9EB050003D4C0F1FF3609F1E2
:100890000105A5EB09002BE0B9F1010F01DA4FF0DA
:1008A00001090020B9F1110F0090484601DD112324
:1008B00000E003460AAA01A90CA8FFF7ADFEDDE996
:1008C0000C704D4600268346207800070AD4AB45BD
:1008D00000DA5D4601A8012D04DD411911F8011C63
:1008E000302907D04F4502DA17F1040F04DA01204E
:1008F00082460FE06D1EEEE7002F02DCED1B3E444A
:1009000003E0781CA84200DD7D1CB81B00F1010A41
:100910004FF000472078000703D4AA4501DB4FF0D1
:10092000FF3A0021B7F1004F0DF143088DF8431055
:1009300024D002202B23002F01DA7F422D230A210D
:10094000021EA0F1010000DC5FB197FBF1FC97FBF8
:10095000F1F201FB1C7C17460CF1300C08F801CDBC
:10096000EEE7A8F1010003702188090501D54521B2
:1009700000E06521A0F1010800F8011C09980FA909
:10098000A1EB0807FF1D00B10120411901EBEA703E
:10099000A1693844081A401EA0612078C00602D41C
:1009A0002046FFF75FFC099828B1D4E90121904760
:1009B000206A401C20622078C00622D52046FFF71E
:1009C00051FC1EE0002E04DBB34502DD01A8805D72
:1009D00000E03020D4E901219047206A401C2062C9
:1009E000761CAAF101005FEA000A0AD100F048F87B
:1009F000C0680168405CD4E901219047206A401C2E
:100A00002062281EA5F10105DCDC07E0D4E9012104
:100A100018F8010B9047206A401C2062381EA7F18D
:100A20000107F3DC2046FFF733FC032011B043E657
:100A300010B5436913B1AFF3008001E0FFF739FC53
:100A4000012010BD127800F124010A7000224A70C2
:100A50000122EDE711684FF0FF32E9E7074B70B56F
:100A60000D467B4400F05BF80446284600F018F978
:100A700010B14FF0FF3070BD204670BD3F1C00002C
:100A800000487047A001002030B5B0F10A024FEADB
:100A9000900E71F100034EEA817EB0EB0E0061EB27
:100AA00091014FEA101E4EEA017E10EB0E0041EB61
:100AB00011114FEA102E4EEA016E10EB0E0041EBC1
:100AC00011214FEA104E4EEA014E10EB0E0041EBA1
:100AD0001141401841F100014FEAD00040EA417055
:100AE0004FEAD10110EB80054FEA810444EA90748B
:100AF00044EB01046D1944EB0404521BA3414FF075
:100B0000000348BF0A3200D530BD401C41F100014E
:100B100030BD000001694A1C02610878704700B5C9
:100B20008FB0CDE901310021059105497944CDE926
:100B3000031011466846FFF74DFC0FB000BD0000E2
:100B4000E5FFFFFF2DE9F0411F460446032601683B
:100B5000072A01F4006004DB08B116A505E016A51C
:100B600003E008B115A500E015A521F010002060F4
:100B7000A069C01EA0610FB1401EA0612046FFF712
:100B800071FB4FB1D4E9012138469047206A401CDF
:100B90002062C01C206206E0206AFAE7D4E9012145
:100BA00015F8010B9047761EF8D22046FFF770FB30
:100BB000BDE8F0814E414E006E616E00494E460028
:100BC000696E66002DE9F047814616468AB03348C3
:100BD00078440DC88DE80D0030487844801C03AC83
:100BE0000DC884E80D0041F69B300844372190FB86
:100BF000F1F290FBF1F5A5F1800501FB12041B3C1D
:100C000002D56442012000E00020DFF890A0804679
:100C10000027FA44AAF1BE0A0DE0E00709D03246E7
:100C2000684607EB47010AEB810100F019FC8DE8EB
:100C3000070064107F1C002CEFD1184F7F44AC3F9D
:100C400018E0E80714D007EB04100DF1180A90E83B
:100C50000E008AE80E00C068F04201D19819089091
:100C6000324606A903A800F0FBFB03AB83E80700AC
:100C70006D10641C002DE4D132466946B8F1000FB6
:100C800003A802D000F0D8FB01E000F0E9FBC9E9BD
:100C90000001C9F808200AB0BDE8F087B0300000B4
:100CA000007B00F080007047004870478001002002
:100CB0007546FFF7F9FFAE4605006946534620F03A
:100CC0000700854618B020B5FFF7ACFABDE8204014
:100CD0004FF000064FF000074FF000084FF0000BF8
:100CE00021F00701AC46ACE8C009ACE8C009ACE8AB
:100CF000C009ACE8C0098D4670470446AFF30080D8
:100D00002046FFF779FA00004FF0013C50F8042B21
:100D100051F8043B9A4221D1A2EB0C03934313EA0E
:100D2000CC1317D150F8042B51F8043B9A4215D13B
:100D3000A2EB0C03934313EACC130BD150F8042B12
:100D400051F8043B9A4209D1A2EB0C03934313EAF6
:100D5000CC13DBD04FF00000704700BFD01A01BAAF
:100D6000B1FA81F101F0180122FA01F0CB40C1F192
:100D70002001DBB2C0B2C01A2CFA01F3D11A9143A0
:100D800011EAC311E6D170470246C91C21F00301E4
:100D9000D2E900031B1A8B4201D2002070470144A4
:100DA000C91D21F00701116070472DE9F34F83B091
:100DB00000274FF48074BA4603A821468DF80070CE
:100DC000FFF7E2FF5FEA000801D100F076F8214664
:100DD000404600F0A9FF060009D04FF0010B454640
:100DE000C14616F8014B8FB15C2C16D01CE008F1FF
:100DF00008004146C8F800000020C8F80400D8F8F0
:100E000000402070012005B0BDE8F08F222C01D0F9
:100E1000272C0FD12746BA462CE03078222807D05D
:100E20005C2805D0272803D0BC4203D1002721E04D
:100E3000761C04464CB12FB9202C06D0A4F1090031
:100E4000042802D905F8014BCBE74D4502D1BAF190
:100E5000000F0FD052464946002005F8010B6846A6
:100E6000AFF300809DF8000070B14D464FF0000ACE
:100E70000BF1010B002CB4D14FEA8B0103A8FFF753
:100E800083FF040002D004E0A946EFE7002000F051
:100E900014F800204246C4F8008005E012F8011B57
:100EA00011B9401C44F82020AA42F7D3002144F88D
:100EB00020102146A7E77047704710B500F00AF8E8
:100EC000BDE81040AFF30080002801D000F02FBF34
:100ED0007047000010B5012805D0002103A000F0E4
:100EE00021F8012010BD09A1F8E70000534947523D
:100EF000544D454D3A204F7574206F6620686561EA
:100F000070206D656D6F7279000000003A204865B1
:100F10006170206D656D6F727920636F727275708C
:100F20007465640070B505460C460A2000E06D1C2F
:100F300000F000FF35B128780028F8D102E0641CE9
:100F400000F0F8FE14B120780028F8D1BDE8704018
:100F50000A2000F0EFBE5FEA400C08BF91F0000FDE
:100F60004FEA8C234FEAC12243EA51514FEA1C5009
:100F700018BF00F5F0404FEA300018BF41F00041C3
:100F80005FEA6C5C00F02980BCF1FF3F08BF40F0D5
:100F900080407047130C06BF12044FF0100C4FF046
:100FA000000C130E04BF12020CF1080C130F04BF47
:100FB00012010CF1040C930F04BF92000CF1020C0F
:100FC000D30F04BF52000CF1010C11464FF0000288
:100FD000A0F11F00A0EB0C00704711F0004F08BFFC
:100FE000704731F000413FF4D5AF0B0C06BF090448
:100FF0004FF0100C4FF0000C0B0E04BF09020CF167
:10100000080C0B0F04BF09010CF1040C8B0F04BF7B
:1010100089000CF1020CCB0F04BF49000CF1010C4C
:10102000CCF12003A0EB0C0022FA03F302FA0CF23D
:1010300041EA030100F10100704720F07F4C80EA93
:10104000030023F07F47ACEB070303F57C5300F06C
:10105000004003F1FF032DE980494FEA154B09B425
:101060004FEA144325EA0B4E24EA03480FF2042604
:1010700006EB132749083E785FEA320203FB066756
:10108000C7F5000707FB06F64FEA54374FEAD64686
:1010900006F1020607FB066CCCF1005C4FEA1C4728
:1010A0002CEA074C07FB06F40CFB06F504EB15468F
:1010B0004FEA961634BF00204FF000404FEAD13778
:1010C00006FB07FC4FEA1C4C0CFB0BF7D21B03FB87
:1010D0000CF761EB07010CFB0EF7B0EB074072EB6E
:1010E00017420CFB08F734BFA2EB0742B2EB0742F2
:1010F00061EB17414FEA0C444FEA910706FB07FCEE
:101100004FEA1C4C0CFB0BF7B0EBC74072EB5732AD
:1011100003FB0CF734BFA2EBC742B2EBC74261EB53
:1011200057310CFB0EF7B0EBC70072EB57720CFB9C
:1011300008F734BFA2EBC702B2EBC70261EB5771ED
:10114000039F4FEA816141EA921104EBCC044FEA1C
:10115000D1374FEA826206FB07FC42EA90124FEA5F
:1011600080604FEA1C4C0CFB0BF7D21B03FB0CF707
:1011700061EB07010CFB0EF7B0EB074072EB174277
:101180000CFB08F734BFA2EB0742B2EB074261EB5E
:1011900017414FEA8C554FEA910704EB9C2406FB5C
:1011A00007FC4FEA1C4C0CFB0BF7B0EBC74072EB93
:1011B000573203FB0CF734BFA2EBC742B2EBC74276
:1011C00061EB57310CFB0EF7B0EBC70072EB5772B7
:1011D0000CFB08F734BFA2EBC702B2EBC70261EB0E
:1011E000577115EB4C254FEA816141EA92114FEAA4
:1011F00082624FEAD13742EA901206FB07FC44F1C3
:1012000000044FEA80604FEA1C4C0CFB0BF7D21B2A
:1012100003FB0CF761EB07010CFB0EF7B0EB07408B
:1012200072EB17420CFB08F734BFA2EB0742B2EB9C
:10123000074261EB174115EB1C154FEA813141EA7A
:1012400092414FEA823242EA90424FEA80304FEABE
:101250000C7644F1000448EA03434EEA0B484FF091
:10126000000EB2EB080C71EB030724BF624639464F
:101270004EEB0E0E4FF0000B0018524149414BEB64
:101280000B0BB2EB080C71EB03077BF1000B24BFD7
:10129000624639464EEB0E0E4FF0000B00185241DD
:1012A00049414BEB0B0BB2EB080C71EB03077BF1E5
:1012B000000B24BF624639464EEB0E0E51EA020780
:1012C00018BF46F0010616EB0E7655F1000254F1F8
:1012D000000103D5BDE88901BDE80088BDE88901AA
:1012E000BDE80048B619524141EB0101A3F10103E9
:1012F000704780807F7E7D7C7B7A79787776767583
:101300007473727171706F6E6E6D6C6C6B6A6A69FA
:101310006868676666656464636362616160605F94
:101320005F5E5E5D5D5C5C5B5B5A5A59595858570D
:101330005756565555555454535352525251515075
:1013400050504F4F4F4E4E4D4D4D4C4C4C4B4B4BC8
:101350004A4A4A494949484848474747474646460E
:101360004545454444444443434343424242424149
:101370004141002B26D4770021D01CB54FEA370716
:1013800003B44FF010004FF010014FF000000FBCFD
:10139000BDE810400BF1010BBBF1010F08BF5FEA84
:1013A000170722BF12F1010211F101014FF00041B4
:1013B00043F1000300F0004043EA00007047F9D316
:1013C0005708DAE746EA064613F1400F4FEA164699
:1013D0001FDD13F1200FDFBF16430A460021203323
:1013E0005B42C8D0C3F1200746EA064602FA07F777
:1013F0004FEA164646EA0706C3F1200722FA03F22F
:1014000001FA07F721FA03F14FF0000342EA07025D
:10141000B1E746EA020646EA06464FEA164646EABB
:101420000106BCBF46EA0646360C4FF000034FF0FB
:1014300000024FF000019EE72DE9C048934630B40A
:1014400091E8380007C831EA400C48BF34EA430C41
:1014500003D5FFF7F2FDFFF78CFFF0BCBDE8008875
:101460002DE9C048934630B491E8380007C810F021
:10147000804F08BF13F0804F03D100F005F8FFF74D
:1014800078FFF0BCBDE8008820F07F4780EA0300C9
:1014900023F07F4C07EB0C03A3F57C5300F00040D6
:1014A000A3F1FE0392F0000F00F0B38095F0000F5F
:1014B00000F077802DE901494FEA11404FEA1446C8
:1014C00021EA004800FB06FC24EA064708FB06F672
:1014D00007FB08F800FB07F718EB06484CEB164C27
:1014E0004FEA124B18EB07484FEA15464CEB1740F2
:1014F00022EA0B4E0BFB06FC25EA06470EFB06F61E
:1015000007FB0EFE0BFB07F71EEB064E4CEB164CD3
:101510004FF000061EEB074E4CEB174B18EB0B0879
:1015200040F1000018EB0E0B58EB000840F10000F2
:101530008F1A4FF000013CBFC943661B14BFB5EBC7
:10154000040C00213CBFC943F61B4FEA17444EEA86
:101550008E0E27EA04454FEA1C4704FB07622CEA7B
:10156000074C05FB07F70CFB05F604FB0CFC16EB20
:10157000074642EB174216EB0C4642EB1C421BEBB4
:10158000060658EB0202414146EA9E0601D5BDE837
:101590000189B619524141EB0101A3F10103BDE8F4
:1015A00001894FEA14454FEA114724EA054621EA2A
:1015B000074C05FB07F406FB07F70CFB06F105FBE0
:1015C0000CFC11EB074144EB17444FEA124711EBB7
:1015D0000C4144EB1C4422EA074C05FB07F206FBD6
:1015E00007F70CFB06F605FB0CFC16EB074642EB77
:1015F000174216EB0C4642EB1C456A1854F10001E9
:1016000048BF7047B619524141EB0101A3F10103F4
:10161000704795F0000F37D04FEA11424FEA144758
:1016200021EA024624EA074C02FB07F106FB07F712
:101630000CFB06F402FB0CFC14EB074441EB1741D6
:101640004FEA154714EB0C4441EB1C4125EA074CCB
:1016500002FB07F506FB07F70CFB06F602FB0CFC8A
:1016600016EB074645EB174516EB0C4645EB1C42BF
:10167000121951F1000148BF7047B619524141EBB0
:101680000101A3F1010370474FEA14454FEA1147E6
:1016900024EA054621EA074C05FB07F106FB07F79C
:1016A0000CFB06F24FF0000605FB0CFC12EB0742A8
:1016B00041EB174112EB0C4251EB1C4148BF704704
:1016C000921841EB0101A3F10103704700BFFEE74F
:1016D00070472DE9F0410246002500260020002336
:1016E0000024002791F803C00CF00F0591F803C007
:1016F0000CF0100CBCF1000F03D091F802C04CEAC2
:10170000050591F800C0BCF1000F31D0146800202D
:101710002BE04FF0010C0CFA00F3B1F800C00CEA1A
:1017200003069E4220D183004FF00F0C0CFA03F702
:10173000BC4305FA03FC4CEA040491F803C0BCF175
:10174000280F06D14FF0010C0CFA00FCC2F814C0AF
:101750000AE091F803C0BCF1480F05D14FF0010C2D
:101760000CFA00FCC2F810C0401C0828D1D3146049
:10177000B1F800C0BCF1FF0F34DD546800202EE04A
:1017800000F1080C4FF0010808FA0CF3B1F800C0A2
:101790000CEA03069E4221D183004FF00F0C0CFA95
:1017A00003F7BC4305FA03FC4CEA040491F803C0B8
:1017B000BCF1280F05D100F1080C08FA0CF8C2F8AA
:1017C000148091F803C0BCF1480F07D100F1080C58
:1017D0004FF0010808FA0CF8C2F81080401C0828E5
:1017E000CED35460BDE8F08100BFFEE700BFFEE746
:1017F0007047000070B5002100230F22C47804B3A5
:10180000154C246804F4E064C4F5E064210AC1F1D5
:101810000403CA40447804FA03F184781440214355
:1018200009010E4C0678A155047804F01F05012427
:10183000AC4005786D11AD0005F1E025C5F800411B
:1018400009E0047804F01F050124AC40044D06783B
:10185000761145F8264070BD0CED00E000E400E094
:1018600080E100E002490143024A11607047000034
:101870000000FA050CED00E07047000029B1064AAF
:1018800092690243044B9A6104E0034A92698243DD
:10189000014B9A61704700000010024030B50021F2
:1018A0000022002400232D4D6D6805F00C0121B1AC
:1018B000042905D0082923D105E0294D056022E03F
:1018C000274D05601FE0254D6D6805F47012234D0E
:1018D0006D6805F48034022505EB92421CB9214D58
:1018E000554305600BE01D4D6D6805F400351DB1D5
:1018F0001C4D5543056002E0194D5543056002E05B
:10190000174D056000BF00BF144D6D6805F0F00174
:101910000909154D6B5C0568DD4045600F4D6D682C
:1019200005F4E061090A104D6B5C4568DD40856097
:101930000A4D6D6805F46051C90A0B4D6B5C456832
:10194000DD40C560054D6D6805F44041890B074DCC
:101950006B5CC568B5FBF3F5056130BD0010024056
:1019600000127A0000093D001A0000202A00002021
:10197000704710B500F002F810BD00000CB5002053
:10198000019000903348006840F48030314908608D
:1019900000BF3048006800F4003000900198401CFF
:1019A0000190009818B90198B0F5A06FF1D12948BD
:1019B000006800F4003010B10120009001E0002028
:1019C00000900098012843D12348006840F010009F
:1019D000214908600846006820F0030008600846B6
:1019E000006840F0020008601A48406819494860E1
:1019F0000846406848600846406840F48060486097
:101A00000846406820F47C1048600846406840F46E
:101A1000E81048600846006840F08070086000BF29
:101A20000C48006800F000700028F9D009484068B0
:101A300020F00300074948600846406840F0020073
:101A4000486000BF0348406800F00C000828F9D146
:101A50000CBD000000100240002002400248006857
:101A6000401C0149086070477000002010B5134801
:101A7000006840F0010011490860084640681049BC
:101A800008400E494860084600680E4908400B4966
:101A900008600846006820F4802008600846406816
:101AA00020F4FE0048604FF41F008860FFF761FFDC
:101AB0004FF000600449086010BD000000100240B3
:101AC0000000FFF8FFFFF6FE08ED00E010B540F261
:101AD00025511D4800F04AF810B31B4800F002F9E8
:101AE000C4B21A48008800F40040C8B917480088FA
:101AF00000F4804060B10A2C03D000201349088014
:101B000020E01248008840F400401049088019E0A5
:101B10000D2C06D10D48008840F480400B49088008
:101B200010E00A480088C0F30D0009490C5407482A
:101B30000088401C0549088008460088C72801DD48
:101B40000020088010BD000000380140180000206F
:101B5000B800002021B1828942F40052828104E061
:101B600082894DF6FF731A408281704770B5024634
:101B7000002400230025002040F66A16B14200D15F
:101B800000BFC1F3421501F01F03012606FA03F35B
:101B9000012D02D19689334006E0022D02D1168A2A
:101BA000334001E0968A33400C12012606FA04F411
:101BB0001688344013B10CB1012000E0002070BD44
:101BC000F0B50346002400260025002040F66A17E1
:101BD000B94200D100BF1846C1F3421401F01F06FC
:101BE000012707FA06F5012C01D10C3004E0022C84
:101BF00001D1103000E014301AB107682F4307609C
:101C000002E00768AF430760F0BD00002DE9F04730
:101C100086B005460E460024A24600BFA146002716
:101C2000B08900B100BF2F462C8A4CF6FF700440EB
:101C3000F08804432C82AC894EF6F3100440B0883F
:101C400031890843718908430443AC81AC8A4FF65B
:101C5000FF400440B0890443AC8201A8FFF71EFE98
:101C60001F48874202D1DDF810A001E0DDF80CA08A
:101C7000A88900F4004040B10AEBCA0000EB0A104A
:101C800031684900B0FBF1F807E00AEBCA0000EB4D
:101C90000A1031688900B0FBF1F86420B8FBF0F05D
:101CA00004012009642101FB1089A88900F4004087
:101CB00040B1322000EBC900B0FBF1F000F00700AA
:101CC000044308E0322000EB09106421B0FBF1F07E
:101CD00000F00F0004432C8106B0BDE8F08700003F
:101CE0000038014001468888C0F30800704700BFF3
:101CF000FEE7490050EAC12018BF04204A0D18BF72
:101D000040F0010040F2FF72B2EB515F08BF40F0BB
:101D10000200012808BF0520704730380A2801D288
:101D20000120704700207047014600BF7047014600
:101D300000BF7047014600BF70472DE9FC47804651
:101D40000C46B8F90060C6F3C019B9F1000F03D012
:101D500006F07F00BDE8FC8706F0070AC6F3C3075C
:101D600047EA0717BAF1000F03D0BAF1010F1ED1ED
:101D700012E0222F00DA2227208FCDE90070B4F97B
:101D80000230B4F90020D4E9051000F032F905B2B0
:101D9000E08F00B9E5870CE0228F394604F1280076
:101DA00000F00AF905B2A08F00B9A58701E0354619
:101DB00000BF00BF218FA8B200F024FC208705F0EF
:101DC0007F0506F47F4040F08000284300B2A8F869
:101DD00000002846BEE7000010B50024002C02DDFC
:101DE00002A0FEF733FA204610BD00004552524FC4
:101DF000523A20506C65617365206D6F6469667935
:101E000020746865206461746174797065732069F9
:101E10006E20636F72655F706F72746D652E6821DE
:101E20000A0000002DE9F04106460C4615462946F9
:101E30003046FFF782FF074629462046FFF77DFF21
:101E40008046A7EB0800BDE8F08110B503468AB9CB
:101E5000188800F47F401C88C4F30724204300B294
:101E60001880088800F47F400C88C4F307242043BE
:101E700000B20880B3F90200B1F90240001B10BDA6
:101E80000A8802804A884280704700002DE9FF5F7F
:101E9000804689460027BA4600200390D8F824409F
:101EA000B8F904000290ADF80290BB463EE00BF09A
:101EB000FF00ADF800006946204600F0C9F906466B
:101EC000204600F0EDFA04465EB90398401C80B24B
:101ED0000390206840680088C0F30020384487B22F
:101EE00016E00AF101001FFA80FA7068007800F02D
:101EF000010028B170680088C0F34020384487B2E0
:101F0000306828B13568286830602068286025600E
:101F1000BDF90200002805DBBDF80200401C00B23C
:101F2000ADF802000BF101000FFA80FB0298834527
:101F3000BDDB0398C0EB8A00384487B2B9F1000FCB
:101F400005DD42461A49204600F041FA0446206861
:101F500000F09AFA01906946204600F079F90546AA
:101F600005B9256807E06168B1F90000394600F05D
:101F700041FB07462D68002DF5D12168019800F03E
:101F800099FA019000220B49204600F020FA0446FD
:101F9000256807E06168B1F90000394600F02AFBC6
:101FA00007462D68002DF5D1384604B0BDE8F09FF6
:101FB000251E00084B1E00082DE9FC5F04460D4657
:101FC00016462768D4F80C80D4F80490A0680190D5
:101FD000AA46CDF800A04A4641463846019B01F08A
:101FE0004AFA8346314600F005FB06463046BDE816
:101FF000FC9F2DE9F04F91B006460D4617469846D6
:10200000DDE91A9A0095002407E0002001A941F8B3
:10201000240009A941F82400641C082CF5D30CE025
:1020200001A9684600F04EFA834609A850F82B0033
:10203000401C09A941F82B0000BF00980078002837
:10204000EED100950CE0009800782C2805D000987F
:102050000078F9B248400099087000984844009010
:10206000A81900998842EED800950CE001A96846AD
:1020700000F028FA834609A850F82B00401C09A953
:1020800041F82B0000BF009800780028EED10095A1
:102090000DE0009800782C2806D00098007808F011
:1020A000FF01484000990870009848440090A81922
:1020B00000998842EDD800240EE009A951F82400C7
:1020C000514600F0AEFA824601A951F8240051466B
:1020D00000F0A7FA8246641C082CEED3504611B0DB
:1020E000BDE8F08F2DE9F04F804689461546002067
:1020F0004FF0010C0021002405B9012504E0491C22
:1021000001FB01FA4FEACA044445F8D3481EA9F17D
:10211000010A2AF0030A0AF1040600FB00FA06EBA2
:102120004A07002123E000241EE00CFB05FA4FEAD9
:10213000EA7B0AEB1B4B4FEA2B4BAAEB0B4505EB5B
:102140000C0A0FFA8AF200BF01FB004A27F81A2096
:1021500002EB0C0A0FFA8AF2D2B201FB004A26F80F
:102160001A200CF1010C641C8442DED3491C81420C
:10217000D9D35E609F6000FB00FA07EB4A0AAAF120
:10218000010A2AF0030A0AF1040AC3F80CA0186035
:10219000BDE8F08FF0B50346144600200025002668
:1021A0005B1E00BF3FE085B1002205E0B75C04EB99
:1021B000000C0CF80270521CAA42F7D32C2704EB37
:1021C000000C0CF802706F1C38444F1C39B201F03F
:1021D0000707082F25D2DFE807F00405060D0E15C6
:1021E000161D00BF00BF164FC1F3C10C57F82C607D
:1021F000042517E000BF134FC1F3C10C57F82C6042
:1022000008250FE000BF104FC1F3C10C57F82C6038
:10221000082507E00D4FC1F3C10C57F82C600825C5
:1022200000E000BF00BF47197F1C9F42BBD35B1C6F
:1022300002E000272754401C9842FAD3F0BD00006A
:10224000780000208800002098000020A8000020CE
:10225000B1F90220002A0ADB00E0006830B14268D0
:10226000B2F90220B1F902309A42F6D1704700E08B
:10227000006828B142681278B1F900309A42F7D16B
:1022800000BFF3E72DE9F74F88B08246904614204F
:1022900007900798BAFBF0F0871E099800EBC70972
:1022A000CDF81890069800EB870B099D0020286058
:1022B0000698686000206968488048F28000696874
:1022C00008800998083009900698001D069047F686
:1022D000FF70ADF816004FF0FF30ADF8140006ABFC
:1022E00009AA05A92846CDE9009B00F049F8002479
:1022F00017E088EA040000F00F00049020460499DB
:1023000061F3DF000390039840EA0020ADF8140069
:1023100006AB09AA05A92846CDE9009B00F030F8D4
:10232000641CBC42E5D32E68012419E00520B7FBEC
:10233000F0F0A04205D92046641C00B271684880C4
:102340000DE02146641C81EA080188B204F007010F
:1023500040EA0121C1F30D017268518000BF366867
:1023600030680028E2D100220449284600F02FF806
:10237000054628460BB0BDE8F08F00004B1E000854
:102380002DE9F04306460F4614461D46DDE9078950
:1023900020680830404502D30020BDE8F08328685B
:1023A000001D484501D30020F7E723682068083066
:1023B0002060306818603360286858602868001D05
:1023C000286039465868FFF75BFD1846E5E72DE9B8
:1023D000F74F82B08B464FF0010A54E0029D002077
:1023E00002908146019040E00198401C01902C46EB
:1023F00000270020009006E07F1C246804B905E057
:102400000098401C009000985045F5DB00BFD04676
:1024100023E027B926462468A8F1010815E0B8F1A1
:10242000000F00D01CB92E462D687F1E0DE061689C
:102430006868049AD847002803DC2E462D687F1E62
:1024400003E026462468A8F10108B9F1000F02D084
:10245000C9F8006000E00296B146002FD9DCB8F15F
:10246000000F01DD002CD4D12546002DBCD1002069
:10247000C9F800000198012803DC029805B0BDE806
:10248000F08F4FEA4A0AA9E7014608684A6843689C
:102490004B6042600B681B680B6000230360704751
:1024A0000146002003E00A6808600846114600293A
:1024B000F9D1704742684B6843604A600B6803601B
:1024C000086070472DE9F04180460C46D8F800605E
:1024D000002784E035782C2D01D1761C84E0082F6C
:1024E0007AD2DFE807F004791C5331416170284645
:1024F00000F0C9F808B104270DE02B2D01D02D2DD7
:1025000001D1022707E02E2D01D1052703E0012785
:102510006068401C60602068401C20605DE02846C8
:1025200000F0B1F820B10427A068401CA0600AE0C8
:102530002E2D04D10527A068401CA06003E00127D0
:10254000A068401CA06048E02E2D04D1052720691A
:10255000401C206107E0284600F095F818B90127D3
:102560002069401C206138E0452D01D0652D04D143
:1025700003276069401C606107E0284600F083F88B
:1025800018B901276069401C606126E02B2D01D03D
:102590002D2D04D10627E068401CE06003E00127F0
:1025A000E068401CE06018E0284600F06CF820B1BC
:1025B0000727A069401CA06103E00127A069401C17
:1025C000A0610AE008E0284600F05DF818B901278C
:1025D0006068401C606000E000BF00BF761C30787F
:1025E00010B1012F7FF476AF00BFC8F80060384605
:1025F000BDE8F08130B504460D46A0B2294600F092
:1026000001F830BD30B504460D46E0B2294600F071
:1026100018F805462012294600F013F8054628460A
:1026200030BD30B504460D46294620B2FFF7E2FF23
:102630000546210C08B22946FFF7DCFF054628466F
:1026400030BD70B5024600230024002500BF16E00F
:1026500002F0010001F0010680EA0604521024B1E4
:1026600044F202004140012500E00025491015B167
:1026700041F4004101E0C1F30E01581CC3B2082B24
:10268000E6DB084670BD0146302901DB012200E08F
:102690000022392901DC012300E0002302EA0300C3
:1026A0007047000000BF054A128802F04002002A6D
:1026B000F9D0C2B2014B1B1D1A807047003801408F
:1026C0000146062913D2DFE801F0120306090C0FB8
:1026D000094A10680DE0094A10680AE0084A1068C3
:1026E00007E0084A106804E0074A106801E000208B
:1026F00000BF00BF704700005C00002060000020A9
:1027000064000020680000206C0000200149086877
:1027100070470000700000202DE9F04105462C466E
:10272000E769002020876087A087E087002618E0FF
:1027300001212046FFF7AAFB8046218F4046FFF784
:1027400061FF20874FF0FF312046FFF79FFB804657
:10275000218F4046FFF756FF20870EB9208F6087F4
:10276000761CBE42E4D30020BDE8F0812DE9F34F92
:10277000ADF6340D89464FF0000A0020CDF82C0844
:10278000451E0026CDF828084A460DF634010DF600
:10279000220000F0CDFE0120FFF792FF00B2ADF85D
:1027A000E0070220FFF78CFF00B2ADF8E20703203C
:1027B000FFF786FF00B2ADF8E4070420FFF780FFC3
:1027C000CDF8FC070520FFF77BFFCDF80008DDF80A
:1027D000000810B90720CDF80008BDF8E00768B977
:1027E000BDF8E20750B9BDF8E40738B90020ADF8EC
:1027F000E007ADF8E2076620ADF8E407BDF8E007B2
:1028000001280ED1BDF8E20758B9BDF8E40740B978
:1028100043F21540ADF8E007ADF8E2076620ADF8E9
:10282000E407002439E0600000EB4001C1EBC01078
:1028300004A901EBC00004EB04110DF5FC6202EBEE
:10284000810188604FF4FA6004EB041102EB81010E
:102850008861BDF8E00704EB041122F82100BDF8FF
:10286000E20704EB041102EB81014880BDF8E407A4
:1028700004EB041102EB81018880002004EB0411B9
:1028800002EB8101A1F8400004EB041102EB81018D
:10289000DDF800080862601C84B2012CC3DB002450
:1028A0000DE00120A040DDF80018084028B1DDF857
:1028B0002C08401C80B2CDF82C08601C84B2032C7C
:1028C000EFDB002413E004EB04100DF5FC6101EBD9
:1028D00080008169DDF82C08B1FBF0F004EB0411F5
:1028E0000DF5FC6202EB81018861601C84B2012C51
:1028F000E9DB0020044626E00121A140DDF80028A4
:102900001140E9B1002015E000EB00110DF5FC626B
:1029100002EB81018968DDF8F82702FB0A1300EB5E
:1029200000110DF5FC6202EB81010831621C41F8D7
:102930002230401C0028E7D00AF101011FFA81FA79
:10294000601C80B20446032CD6DB002462E004EB5A
:1029500004100DF5FC6101EB800090F8200000F000
:10296000010098B104EB04130F4637F9232004EB60
:10297000041307EB8303D968DDF8F807FFF782FC3F
:1029800004EB04113A4602EB8101486204EB0410A7
:102990000DF5FC6101EB800090F8200000F00200D2
:1029A000E8B104EB04178C463CF9277004EB041CD7
:1029B000884608EB8C0CBCF802C047EA0C4204EBDA
:1029C00004178C460CEB870707F1280304EB041768
:1029D0000CEB87073969DDF8F807FFF783FB04EB99
:1029E00004100DF5FC6101EB800090F8200000F070
:1029F000040068B104EB04130F4607EB83035A6924
:102A000004EB041337F92310DDF8F807FFF7C2FBD6
:102A1000601C84B2012C9ADBDDF8FC07B8BB0021F6
:102A20000F4688460120CDF8FC0715E0DDF8FC07CD
:102A300000EB80004000CDF8FC0700F09FFD0DF595
:102A4000FC60FFF769FE00F0CFFDFFF75FFE03902B
:102A500000F0D6FD074688460022F74B384641462F
:102A600000F0ECFFE2D33846414600F0A7FF834672
:102A7000BBF1000F01D14FF0010B0A20B0FBFBF0BE
:102A8000401CDDF8FC174843CDF8FC0700BF00F000
:102A900075FD0DF5FC60FFF73FFE00F0A5FDFFF7AB
:102AA00035FECDF82408BDF9E007DDF82818FFF75A
:102AB000A1FDCDF82808BDF9E207DDF82818FFF7D9
:102AC00099FDCDF82808BDF9E407DDF82818FFF7CF
:102AD00091FDCDF82808DDF8F81708B2DDF82818C0
:102AE000FFF788FDCDF8280847F60532DDF82808FD
:102AF000811A90421AD00BDCA0F5C050A0F1F20070
:102B0000002822D0A0F55450BD38002822D112E070
:102B1000A1F6FD6028B1A0F5BE40F338002819D118
:102B20000EE00025C5A0FDF791FB16E00125CFA022
:102B3000FDF78CFB11E00225D8A0FDF787FB0CE028
:102B40000325E3A0FDF782FB07E00425ECA0FDF7D9
:102B50007DFB02E04FF0FF3600BF00BF002D7DDBA4
:102B60000024B3E0002004EB04110DF5FC6202EB3D
:102B70008101A1F8400004EB0410114601EB800034
:102B800090F8200000F0010040B304EB041001EBCA
:102B90008000408FE64931F8151088421ED0E44885
:102BA00030F8153004EB0410114601EB8000428F21
:102BB0002146E0A0FDF74AFB04EB04100DF5FC6193
:102BC00001EB8000B0F84000401C00B204EB04119F
:102BD0000DF5FC6202EB8101A1F8400004EB04104A
:102BE0000DF5FC6101EB800090F8200000F0020080
:102BF00048B304EB041001EB8000808FD94931F811
:102C0000151088421FD0D74830F8153004EB041057
:102C10000DF5FC6101EB8000828F2146D2A0FDF70B
:102C200015FB04EB04100DF5FC6101EB8000B0F81E
:102C30004000401C00B204EB04110DF5FC6202EBF5
:102C40008101A1F8400004EB04100DF5FC6101EBDB
:102C5000800090F8200000F0040000E03BE048B362
:102C600004EB041001EB8000C08FCC4931F8151043
:102C700088421FD0C94830F8153004EB04100DF518
:102C8000FC6101EB8000C28F2146C5A0FDF7DEFA92
:102C900004EB04100DF5FC6101EB8000B0F840007E
:102CA000401C00B204EB04110DF5FC6202EB810143
:102CB000A1F8400004EB04100DF5FC6101EB80006D
:102CC000B0F84000304406B2601C84B2C1480068CD
:102CD0008442FFF447AFFFF77FF8304406B2BEA04E
:102CE000DDF8F817FDF7B2FAC2A0DDF82418FDF7F9
:102CF000ADFADDF8240800F083FC07463A460B469F
:102D0000C3A0FDF7A3FADDF8240800F079FC07461C
:102D10000022134600F022FF1AD2DDF8240800F04A
:102D20006FFC07468846AB4ADDF8FC17126801FBCA
:102D300002F000F070FE3A464346CDE9000100F093
:102D4000E5FC02460B46CDE90201B7A0FDF77EFA8D
:102D5000DDF8240800F054FC07460022B84B00F0D0
:102D60006DFE04D2B7A0FDF771FA701C06B2994A45
:102D7000DDF8FC07126800FB02F1C2A0FDF766FA5D
:102D8000C7A1D3A0FDF762FAD7A1DEA0FDF75EFAD6
:102D9000E2A1E4A0FDF75AFAE8A0DDF82818FDF753
:102DA00055FADDF8000800F0010090B100240CE0B5
:102DB00004EB04100DF5FC6101EB8000428F21460D
:102DC000E5A0FDF743FA601C84B2824800688442A3
:102DD000EED3DDF8000800F0020090B100240CE012
:102DE00004EB04100DF5FC6101EB8000828F21469D
:102DF000E1A0FDF72BFA601C84B27648006884429B
:102E0000EED3DDF8000800F0040090B100240CE0DF
:102E100004EB04100DF5FC6101EB8000C28F21462C
:102E2000DDA0FDF713FA601C84B26A480068844292
:102E3000EED30024CDE100000000F03F366B20709F
:102E40006572666F726D616E63652072756E20705B
:102E50006172616D657465727320666F7220636F55
:102E600072656D61726B2E0D0A000000366B207664
:102E7000616C69646174696F6E2072756E20706137
:102E800072616D657465727320666F7220636F7214
:102E9000656D61726B2E0D0A0000000050726F6646
:102EA000696C652067656E65726174696F6E20720A
:102EB000756E20706172616D657465727320666FE6
:102EC0007220636F72656D61726B2E0D0A000000D7
:102ED000324B20706572666F726D616E6365207231
:102EE000756E20706172616D657465727320666FB6
:102EF0007220636F72656D61726B2E0D0A000000A7
:102F0000324B2076616C69646174696F6E207275F2
:102F10006E20706172616D657465727320666F7288
:102F200020636F72656D61726B2E0D0A00000000E8
:102F3000300000205B25755D4552524F5221206CB8
:102F40006973742063726320307825303478202DC3
:102F50002073686F756C642062652030782530348A
:102F6000780D0A003A0000205B25755D4552524FEE
:102F70005221206D61747269782063726320307809
:102F800025303478202D2073686F756C642062655D
:102F9000203078253034780D0A00000044000020ED
:102FA0005B25755D4552524F5221207374617465E3
:102FB0002063726320307825303478202D207368A8
:102FC0006F756C64206265203078253034780D0A86
:102FD0000000000074000020436F72654D61726B49
:102FE0002053697A65202020203A20256C750D0A2F
:102FF00000000000546F74616C207469636B73206F
:1030000020202020203A20256C750D0A00000000A9
:10301000546F74616C2074696D65202873656373E7
:10302000293A2025660D0A00497465726174696F3A
:103030006E732F5365632020203A2025660D0A0009
:10304000000024404552524F5221204D7573742088
:103050006578656375746520666F72206174206C95
:1030600065617374203130207365637320666F72FD
:1030700020612076616C696420726573756C7421BF
:103080000D0A0000497465726174696F6E732020C7
:1030900020202020203A20256C750D0A0000000019
:1030A000506C656173652070757420636F6D706915
:1030B0006C65722076657273696F6E2068657265E3
:1030C0002028652E672E2067636320342E31290067
:1030D000436F6D70696C65722076657273696F6E8F
:1030E000203A2025730D0A002D4F6873202D6E6F36
:1030F0005F73697A655F636F6E73747261696E7412
:1031000073000000436F6D70696C657220666C61BE
:1031100067732020203A2025730D0A005354414341
:103120004B0000004D656D6F7279206C6F636174A8
:10313000696F6E20203A2025730D0A00736565645F
:10314000637263202020202020202020203A20307D
:1031500078253034780D0A005B25645D6372636CFA
:10316000697374202020202020203A2030782530D8
:1031700034780D0A000000005B25645D6372636DA6
:10318000617472697820202020203A203078253020
:1031900034780D0A000000005B25645D6372637380
:1031A000746174652020202020203A20307825305A
:1031B00034780D0A0000000004EB04100DF5FC61EA
:1031C00001EB8000028F214625A0FDF73FF8601C2F
:1031D00084B22B4800688442EED36EBB2948FDF7C9
:1031E00035F8032D28D1DDF8240800F009FACDE9DF
:1031F0000001234ADDF8FC17126801FB02F000F021
:103200000AFC0746DDE9002300F080FACDE902015F
:10321000AFF22C11AFF27810CDE900011AA0DDE970
:103220000223FDF713F8AFF20C111EA0FDF70EF804
:10323000AFF2B410FDF70AF8002E02DD1BA0FDF777
:1032400005F8002E02DA1E48FDF700F80DF6220000
:1032500000F06BF900200DF63C0DBDE8F08F00008A
:103260005B25645D63726366696E616C202020205B
:1032700020203A203078253034780D0A00000000F4
:1032800074000020003D0008436F72654D61726B51
:1032900020312E30203A202566202F20257320252E
:1032A00073000000202F2025730000004572726F0C
:1032B00072732064657465637465640D0A000000B0
:1032C0009C3C000870B50B46144600210FE000221C
:1032D0000AE001FB002533F8155025442DB201FB0F
:1032E000002623F81650521C8242F2D3491C814218
:1032F000EDD370BDF0B50C46154600210EE000225E
:1033000009E001FB002635F916605E4301FB00274A
:1033100044F82760521C8242F3D3491C8142EED309
:10332000F0BD2DE9F0410C4615461E46002121E076
:1033300000221CE0002701FB002C44F82C70002325
:1033400012E001FB002754F8277001FB003C35F91F
:103350001CC003FB002836F918800CFB087701FB22
:10336000002C44F82C705B1C8342EAD3521C82422E
:10337000E0D3491C8142DBD3BDE8F0812DE9F04365
:103380000C4615461E46002127E0002222E00027B9
:1033900001FB002C44F82C70002318E001FB003CDA
:1033A00035F91CC003FB002836F918800CFB08F720
:1033B00001FB002C54F82CC0C7F38308C7F346194F
:1033C00008FB09CC01FB002844F828C05B1C8342A1
:1033D000E4D3521C8242DAD3491C8142D5D3BDE8E2
:1033E000F083F0B504461546002014E0002641F8AD
:1033F000206000220CE051F8206000FB042735F922
:10340000177033F912C007FB0C6641F82060521C9C
:10341000A242F0D3401CA042E8D3F0BD2DE9F04118
:1034200003460D4616460027BC4600210020002218
:103430001DE0002418E002FB034855F828100F4453
:10344000B74205DD00F10A080FFA88F0002709E00D
:10345000614502DD4FF0010801E04FF000088044B3
:103460000FFA88F08C46641C9C42E4D3521C9A42AA
:10347000DFD3BDE8F0812DE9F05F074688461546A9
:1034800099460A9C002644F470400FFA80FA2246BE
:1034900029463846FFF716FF23462A464146384656
:1034A000FFF728FF524641463846FFF7B7FF8346ED
:1034B0003146FFF79FF806464B462A4641463846B6
:1034C000FFF78FFF524641463846FFF7A7FF834676
:1034D0003146FFF78FF806464B462A4641463846A6
:1034E000FFF71FFF524641463846FFF797FF8346D6
:1034F0003146FFF77FF806464B462A464146384696
:10350000FFF73CFF524641463846FFF787FF8346A8
:103510003146FFF76FF80646604202B22946384648
:10352000FFF7D0FE30B2BDE8F09F00210170704778
:1035300070B504460D4616464FF4A060FEF792F9AA
:103540004FF4E13000F070F802A0FCF77FFE01209C
:10355000207070BD54686520436F72654D61726B59
:103560002069732072756E696E672C506C6561738B
:103570006520576169742E2E2E0D0A0030B500208B
:1035800015490860154800684FF47A72B0FBF2F1F3
:10359000B1F1807F00D31DE021F07F40401E4FF04D
:1035A000E022506150170F22002807DA13071D0E82
:1035B0000B4B00F00F04241F1D5503E013071C0ED6
:1035C000084B1C5400BF00204FF0E0229061072000
:1035D000106100BF30BD000070000020000000201E
:1035E00018ED00E000E400E04FF0E020006920F07A
:1035F00001004FF0E0210861002088617047000061
:103600002DE9F0410446204600F005FA0546002267
:10361000044B00F07BF80746884638464146BDE833
:10362000F081000000408F4010B586B004460121B3
:1036300044F20400FEF722F94FF40070ADF81400D4
:1036400003208DF8160018208DF8170005A91C48D6
:10365000FEF73FF84FF48060ADF8140004208DF8B9
:10366000170005A91648FEF734F825208DF800004C
:1036700003208DF801008DF8020001208DF8030071
:103680006846FEF7B7F801940020ADF80800ADF8E1
:103690000A00ADF80C00ADF810000C20ADF80E00DB
:1036A00001A90848FEF7B2FA012240F22551054867
:1036B000FEF786FA01210348FEF74CFA06B010BD6A
:1036C000000801400038014010B500290AD00878F0
:1036D000002807D005487844FDF716FB002801D0E4
:1036E000002010BD0248784410BD00005E070000B5
:1036F00056070000491058BFC1F140415B1058BF48
:10370000C3F140438B42EFF3008070472DE9C04185
:1037100030B4DFF8A0C23CEA111418BF3CEA13141D
:1037200000F0EC8081EA03051CEA111444EAD57428
:1037300018BF1CEA131500F0C780A4EB05044FF076
:10374000004545EAC12145EAC32341EA505143EA15
:10375000525304F17F74994204F500344FEAC020BB
:103760004FEAC22208BF904200F09C804FEA1365E6
:103770000FF24016765D4FEA134506FB05F7C7F1D9
:10378000807706FB07F74FEAD737A7FB0368764237
:10379000C8F58038A7FB06CE38BFA8F1010807FBA3
:1037A00008E64FF0000EA6FB028CE6FB03CEDCF130
:1037B000000CCEF1004E38BFAEF1010EA6FB0C5846
:1037C0004FF000074FF00005E6FB0E87A1FB08C68F
:1037D000A0FB07CE16EB0E0645F10005E1FB0765E1
:1037E00015F1E04E7EBFA4F580345FEA46066D41D8
:1037F00016F1800745F100054FEA17274FEA0666E4
:1038000047EA0567A6F1DE46B6F1805F4FEA152567
:103810001FD9384624F0010C05EBC471BCF1FE6FD2
:1038200001EB0C1102D8F0BCBDE8008124425CBF62
:1038300001F5801E9EEAC47F02D4F0BCBDE8008181
:10384000244238D4F0BCA1F1C041BDE8004100F0F1
:103850007FB94FEAD22242EA43524FEAD323A7FB71
:1038600002864FEAD02040EA415007FB03661EEA79
:103870000E0F4FEAD12105FB026658BFA6EB00569A
:10388000B6EB00564FEA520E4EEAC37E18EB0E0E10
:1038900056EB530EBDD518EB02085E417F1C55F167
:1038A0000005B6E74FF480154FF000074FF0000613
:1038B0004FF00008ADE7F0BC4FF0000001F1C0414F
:1038C00001F00041BDE8008111EA0C1F0CEA13155C
:1038D00000D00CE013EA0C1F00F025804FF0000030
:1038E000F0BC81EA030101F00041BDE80081F0BCB9
:1038F000BDE8004181EA030100F02AB9F0BCBDE84F
:10390000004170B500F0D6F8097EFC3E00F007B823
:1039100081EA03014FF0000001F00041704781EAA5
:10392000030100F015B9F0BCBDE800414FF0000004
:1039300021497047FFFDFBF9F7F5F4F2F0EEEDEBEE
:10394000E9E8E6E4E3E1E0DEDDDBDAD8D7D5D4D39D
:10395000D1D0CFCDCCCBCAC8C7C6C5C4C2C1C0BFE9
:10396000BEBDBCBBBAB9B8B7B6B5B4B3B2B1B0AFEF
:10397000AEADACABAAA9A8A8A7A6A5A4A3A3A2A1D3
:10398000A09F9F9E9D9C9C9B9A999998979796958E
:1039900095949393929191908F8F8E8E8D8C8C8B2A
:1039A0008B8A8989888887878685858484838382B2
:1039B000828181800000FF070000F87F4FEA1153E9
:1039C000A3F58063D3F11E03A8BFD3F1200C08DB5D
:1039D0004FF0004242EAC12252EA505232FA03F05A
:1039E000704709420BD4102BC4BF0020704703F569
:1039F000787CBCF1FF3F05D04FF0FF3070474FF0AF
:103A00000000704770B500F055F800BF499224805F
:103A100000207047F0E7B0FA80F310FA03F10AD003
:103A2000C3F11D0303F580634FEA41504FEA03528F
:103A300002EBD12170474FF00000704751EA030CB0
:103A400017D41CF5801F58BFBCF5801F00F10680FD
:103A5000994218BF704708BF9042704707D711F5C9
:103A6000801F58BF13F5801F19D4994270478942AF
:103A700070471CF5801F08D5BCF5801FF7D58B4219
:103A800018BF704708BF824270474FF4001C1CEB00
:103A9000410F38BF1CEB430F01D28B42704770B50A
:103AA00000F008F8922449004FF000514FF0805385
:103AB000FFF720BE0EF1020E2EF0030E5EF8046B2F
:103AC000364205D4012A43EB030515F5001F12D831
:103AD000012841EB010C1CF5001F0CD80ED14FEA58
:103AE000D17C15F5001F0CEB4C0C0CF1020C08BF3F
:103AF0004CEBD37C04E04FF0080C01E04FEAD37CA0
:103B00000CEB4C0526FA05F606F00706B6F1040C98
:103B100006D20EEB860CBDE870404CF0010C6047FD
:103B2000DFE80CF0090B02024FF000414FF00000FB
:103B3000A1F5002170BD19461046012851EB010482
:103B400018BFD4F5001484BF002001F0004170BDFF
:103B50000808A0F500114FEA3101704753EA010C43
:103B600017D41CF5801F58BFBCF5801F00F10680DC
:103B70008B4218BF704708BF8242704707D713F5C2
:103B8000801F58BF11F5801F19D48B4270479B428C
:103B900070471CF5801F08D5BCF5801FF7D59942EA
:103BA00018BF704708BF904270474FF4001C1CEBD1
:103BB000430F38BF1CEB410F01D2994270470FB43D
:103BC0000CBC03BCFFF76BBFFCF7FCBD30313233DC
:103BD0003435363738394142434445464030580041
:103BE0003031323334353637383961626364656673
:103BF00040307800040000080000000000000002CF
:103C0000000100001000000002400000000000A0C1
:103C10000000000005400000000000C80000000097
:103C20000C4000000000409C000000001940000013
:103C30000020BCBE0000000034400000BFC91B8E45
:103C400000000004B5400000504BCFD06607E2CF23
:103C5000010000006C4100003E8251AADFEEA73453
:103C600001000000D9420000DCB5A0E23A301F9705
:103C7000FFFFFFFFB4450000FD25A0C8E9A3C14F29
:103C8000FFFFFFFFFF3F000000000080000000007A
:103C9000FF3F0000000000800000000043616E6EE6
:103CA0006F742076616C6964617465206F706572F1
:103CB0006174696F6E20666F722074686573652029
:103CC000736565642076616C7565732C20706C6516
:103CD00061736520636F6D706172652077697468C8
:103CE00020726573756C7473206F6E2061206B6E2B
:103CF0006F776E20706C6174666F726D2E0D0A00A6
:103D0000436F7272656374206F7065726174696F5E
:103D10006E2076616C6964617465642E20536565FC
:103D200020726561646D652E74787420666F7220F0
:103D300072756E20616E64207265706F7274696E48
:103D4000672072756C65732E0D0A000053746174E0
:103D500069630000537461636B0000004865617023
:103D60000000000033352E353434303000000000C0
:103D70002B302E3634343030000000002E313233F8
:103D800034353030000000002D3131302E373030E6
:103D9000000000002D2E313233652D32000000006E
:103DA0002B302E36652D3132000000003530313297
:103DB000000000002B313232000000002D38376542
:103DC0002B38333200000000352E353030652B3370
:103DD0000000000031323334000000002D38373449
:103DE0000000000054302E33652D314600000000E5
:103DF00033342E30652D545E000000002D542E54B7
:103E00002B2B5471000000003154332E3465347A6A
:103E100000000000503E000800000020B800000034
:103E20006C010008083F0008B800002028230000AB
:103E3000880100081C00000043000000F8FFFFFF9D
:103E40000C0000000E0000000F0000002E0000001B
:103E500000A24A0400000000000000000102030468
:103E60000607080900000000000000000000010231
:103E700003040102030406070809020406080000FF
:103E8000B0D44033796A14E7C1E352BE99110856A1
:103E9000D71F4707475EBF39A4E53A8E848D0000DF
:103EA0004C3D00085C3D0008543D00080000000047
:103EB0000000000066000000E02E0000000000008E
:103EC0000000000001000000AC3D0008D43D0008E7
:103ED000DC3D0008B43D0008643D00087C3D00085E
:103EE000883D0008703D0008C83D0008943D00086A
:103EF000BC3D0008A03D0008E43D0008FC3D000872
:083F0000083E0008F03D000836
:0400000508000131BD
:00000001FF
